{
  "contractName": "CrossContractMan",
  "abi": [
    {
      "inputs": [],
      "stateMutability": "nonpayable",
      "type": "constructor"
    },
    {
      "anonymous": false,
      "inputs": [
        {
          "indexed": false,
          "internalType": "bytes32",
          "name": "h_name",
          "type": "bytes32"
        },
        {
          "indexed": false,
          "internalType": "address",
          "name": "contract_addr",
          "type": "address"
        }
      ],
      "name": "ContractAdded",
      "type": "event"
    },
    {
      "anonymous": false,
      "inputs": [
        {
          "indexed": false,
          "internalType": "bytes32",
          "name": "h_name",
          "type": "bytes32"
        },
        {
          "indexed": false,
          "internalType": "address",
          "name": "contract_addr",
          "type": "address"
        }
      ],
      "name": "ContractReplaced",
      "type": "event"
    },
    {
      "anonymous": false,
      "inputs": [
        {
          "indexed": false,
          "internalType": "address",
          "name": "oldManager",
          "type": "address"
        }
      ],
      "name": "ManagerUpdatedFrom",
      "type": "event"
    },
    {
      "anonymous": false,
      "inputs": [
        {
          "indexed": false,
          "internalType": "address",
          "name": "newManager",
          "type": "address"
        }
      ],
      "name": "ManagerUpdatedTo",
      "type": "event"
    },
    {
      "anonymous": false,
      "inputs": [
        {
          "indexed": true,
          "internalType": "address",
          "name": "previousOwner",
          "type": "address"
        },
        {
          "indexed": true,
          "internalType": "address",
          "name": "newOwner",
          "type": "address"
        }
      ],
      "name": "OwnershipTransferred",
      "type": "event"
    },
    {
      "anonymous": false,
      "inputs": [
        {
          "indexed": true,
          "internalType": "bytes32",
          "name": "role",
          "type": "bytes32"
        },
        {
          "indexed": true,
          "internalType": "bytes32",
          "name": "previousAdminRole",
          "type": "bytes32"
        },
        {
          "indexed": true,
          "internalType": "bytes32",
          "name": "newAdminRole",
          "type": "bytes32"
        }
      ],
      "name": "RoleAdminChanged",
      "type": "event"
    },
    {
      "anonymous": false,
      "inputs": [
        {
          "indexed": true,
          "internalType": "bytes32",
          "name": "role",
          "type": "bytes32"
        },
        {
          "indexed": true,
          "internalType": "address",
          "name": "account",
          "type": "address"
        },
        {
          "indexed": true,
          "internalType": "address",
          "name": "sender",
          "type": "address"
        }
      ],
      "name": "RoleGranted",
      "type": "event"
    },
    {
      "anonymous": false,
      "inputs": [
        {
          "indexed": true,
          "internalType": "bytes32",
          "name": "role",
          "type": "bytes32"
        },
        {
          "indexed": true,
          "internalType": "address",
          "name": "account",
          "type": "address"
        },
        {
          "indexed": true,
          "internalType": "address",
          "name": "sender",
          "type": "address"
        }
      ],
      "name": "RoleRevoked",
      "type": "event"
    },
    {
      "inputs": [],
      "name": "DEFAULT_ADMIN_ROLE",
      "outputs": [
        {
          "internalType": "bytes32",
          "name": "",
          "type": "bytes32"
        }
      ],
      "stateMutability": "view",
      "type": "function",
      "constant": true
    },
    {
      "inputs": [],
      "name": "RETIRING_MANAGER_ROLE",
      "outputs": [
        {
          "internalType": "bytes32",
          "name": "",
          "type": "bytes32"
        }
      ],
      "stateMutability": "view",
      "type": "function",
      "constant": true
    },
    {
      "inputs": [
        {
          "internalType": "bytes32",
          "name": "",
          "type": "bytes32"
        }
      ],
      "name": "contracts",
      "outputs": [
        {
          "internalType": "address",
          "name": "",
          "type": "address"
        }
      ],
      "stateMutability": "view",
      "type": "function",
      "constant": true
    },
    {
      "inputs": [
        {
          "internalType": "bytes32",
          "name": "role",
          "type": "bytes32"
        }
      ],
      "name": "getRoleAdmin",
      "outputs": [
        {
          "internalType": "bytes32",
          "name": "",
          "type": "bytes32"
        }
      ],
      "stateMutability": "view",
      "type": "function",
      "constant": true
    },
    {
      "inputs": [
        {
          "internalType": "bytes32",
          "name": "role",
          "type": "bytes32"
        },
        {
          "internalType": "uint256",
          "name": "index",
          "type": "uint256"
        }
      ],
      "name": "getRoleMember",
      "outputs": [
        {
          "internalType": "address",
          "name": "",
          "type": "address"
        }
      ],
      "stateMutability": "view",
      "type": "function",
      "constant": true
    },
    {
      "inputs": [
        {
          "internalType": "bytes32",
          "name": "role",
          "type": "bytes32"
        }
      ],
      "name": "getRoleMemberCount",
      "outputs": [
        {
          "internalType": "uint256",
          "name": "",
          "type": "uint256"
        }
      ],
      "stateMutability": "view",
      "type": "function",
      "constant": true
    },
    {
      "inputs": [
        {
          "internalType": "bytes32",
          "name": "role",
          "type": "bytes32"
        },
        {
          "internalType": "address",
          "name": "account",
          "type": "address"
        }
      ],
      "name": "grantRole",
      "outputs": [],
      "stateMutability": "nonpayable",
      "type": "function"
    },
    {
      "inputs": [
        {
          "internalType": "bytes32",
          "name": "role",
          "type": "bytes32"
        },
        {
          "internalType": "address",
          "name": "account",
          "type": "address"
        }
      ],
      "name": "hasRole",
      "outputs": [
        {
          "internalType": "bool",
          "name": "",
          "type": "bool"
        }
      ],
      "stateMutability": "view",
      "type": "function",
      "constant": true
    },
    {
      "inputs": [
        {
          "internalType": "uint256",
          "name": "",
          "type": "uint256"
        }
      ],
      "name": "hnames",
      "outputs": [
        {
          "internalType": "bytes32",
          "name": "",
          "type": "bytes32"
        }
      ],
      "stateMutability": "view",
      "type": "function",
      "constant": true
    },
    {
      "inputs": [],
      "name": "owner",
      "outputs": [
        {
          "internalType": "address",
          "name": "",
          "type": "address"
        }
      ],
      "stateMutability": "view",
      "type": "function",
      "constant": true
    },
    {
      "inputs": [],
      "name": "renounceOwnership",
      "outputs": [],
      "stateMutability": "nonpayable",
      "type": "function"
    },
    {
      "inputs": [
        {
          "internalType": "bytes32",
          "name": "role",
          "type": "bytes32"
        },
        {
          "internalType": "address",
          "name": "account",
          "type": "address"
        }
      ],
      "name": "renounceRole",
      "outputs": [],
      "stateMutability": "nonpayable",
      "type": "function"
    },
    {
      "inputs": [
        {
          "internalType": "bytes32",
          "name": "role",
          "type": "bytes32"
        },
        {
          "internalType": "address",
          "name": "account",
          "type": "address"
        }
      ],
      "name": "revokeRole",
      "outputs": [],
      "stateMutability": "nonpayable",
      "type": "function"
    },
    {
      "inputs": [
        {
          "internalType": "bytes4",
          "name": "interfaceId",
          "type": "bytes4"
        }
      ],
      "name": "supportsInterface",
      "outputs": [
        {
          "internalType": "bool",
          "name": "",
          "type": "bool"
        }
      ],
      "stateMutability": "view",
      "type": "function",
      "constant": true
    },
    {
      "inputs": [
        {
          "internalType": "address",
          "name": "newOwner",
          "type": "address"
        }
      ],
      "name": "transferOwnership",
      "outputs": [],
      "stateMutability": "nonpayable",
      "type": "function"
    },
    {
      "inputs": [
        {
          "internalType": "address",
          "name": "oldManager",
          "type": "address"
        }
      ],
      "name": "onSwitchManager",
      "outputs": [],
      "stateMutability": "nonpayable",
      "type": "function"
    },
    {
      "inputs": [
        {
          "internalType": "address",
          "name": "contract_addr",
          "type": "address"
        }
      ],
      "name": "addContract",
      "outputs": [],
      "stateMutability": "nonpayable",
      "type": "function"
    },
    {
      "inputs": [
        {
          "internalType": "string",
          "name": "name",
          "type": "string"
        },
        {
          "internalType": "address",
          "name": "contract_addr",
          "type": "address"
        }
      ],
      "name": "addContract",
      "outputs": [],
      "stateMutability": "nonpayable",
      "type": "function"
    },
    {
      "inputs": [
        {
          "internalType": "string",
          "name": "name",
          "type": "string"
        }
      ],
      "name": "removeContract",
      "outputs": [],
      "stateMutability": "nonpayable",
      "type": "function"
    },
    {
      "inputs": [
        {
          "internalType": "address",
          "name": "newOwner",
          "type": "address"
        }
      ],
      "name": "updateOwnership",
      "outputs": [],
      "stateMutability": "nonpayable",
      "type": "function"
    },
    {
      "inputs": [
        {
          "internalType": "address",
          "name": "newManager",
          "type": "address"
        }
      ],
      "name": "switchManager",
      "outputs": [],
      "stateMutability": "nonpayable",
      "type": "function"
    },
    {
      "inputs": [
        {
          "internalType": "string",
          "name": "name",
          "type": "string"
        }
      ],
      "name": "getContract",
      "outputs": [
        {
          "internalType": "address",
          "name": "",
          "type": "address"
        }
      ],
      "stateMutability": "view",
      "type": "function",
      "constant": true
    },
    {
      "inputs": [],
      "name": "getContractsCount",
      "outputs": [
        {
          "internalType": "uint256",
          "name": "",
          "type": "uint256"
        }
      ],
      "stateMutability": "view",
      "type": "function",
      "constant": true
    }
  ],
  "bytecode": "0x60806040523480156200001157600080fd5b506200001d3362000030565b6200002a60003362000080565b620001be565b600080546001600160a01b038381166001600160a01b0319831681178455604051919092169283917f8be0079c531659141344cd1fd0a4f28419497f9722a3daafe3b4186f6b6457e09190a35050565b620000978282620000c360201b62000fce1760201c565b6000828152600260209081526040909120620000be918390620010396200014c821b17901c565b505050565b60008281526001602090815260408083206001600160a01b038516845290915290205460ff16620001485760008281526001602081815260408084206001600160a01b0386168086529252808420805460ff19169093179092559051339285917f2f8788117e7eff1d82e926ec794901d17c78024a50270940304540a733656f0d9190a45b5050565b600062000163836001600160a01b0384166200016c565b90505b92915050565b6000818152600183016020526040812054620001b55750815460018181018455600084815260208082209093018490558454848252828601909352604090209190915562000166565b50600062000166565b611ef980620001ce6000396000f3fe608060405234801561001057600080fd5b506004361061014d5760003560e01c8063715018a6116100c3578063a217fddf1161007c578063a217fddf146102df578063bf5b6016146102e7578063ca15c873146102fa578063d547741f1461030d578063ec56a37314610320578063f2fde38b1461034957600080fd5b8063715018a6146102855780638da5cb5b1461028d5780639010d07c1461029e57806391d14854146102b15780639683584f146102c457806397623b58146102cc57600080fd5b806336568abe1161011557806336568abe146102135780634bde91d11461022657806356aadd14146102395780635df112911461024c5780635f539d691461025f5780636b2bf27f1461027257600080fd5b806301ffc9a71461015257806303816af31461017a578063248a9ca3146101af5780632f2ff15d146101d357806335817773146101e8575b600080fd5b610165610160366004611ad1565b61035c565b60405190151581526020015b60405180910390f35b6101a17f33d7a8e7a62219cc6b885a43d7b1700892672340c88d0ceaba27d80a26492bc281565b604051908152602001610171565b6101a16101bd366004611afb565b6000908152600160208190526040909120015490565b6101e66101e1366004611b29565b610387565b005b6101fb6101f6366004611ba2565b6103b3565b6040516001600160a01b039091168152602001610171565b6101e6610221366004611b29565b6103ff565b6101a1610234366004611afb565b610482565b6101e6610247366004611be4565b6104a3565b6101e661025a366004611be4565b610761565b6101e661026d366004611be4565b610955565b6101e6610280366004611be4565b6109fe565b6101e6610ae7565b6000546001600160a01b03166101fb565b6101fb6102ac366004611c01565b610b1d565b6101656102bf366004611b29565b610b3c565b6004546101a1565b6101e66102da366004611ba2565b610b67565b6101a1600081565b6101e66102f5366004611c23565b610e91565b6101a1610308366004611afb565b610ef8565b6101e661031b366004611b29565b610f0f565b6101fb61032e366004611afb565b6003602052600090815260409020546001600160a01b031681565b6101e6610357366004611be4565b610f36565b60006001600160e01b03198216635a05180f60e01b148061038157506103818261104e565b92915050565b600082815260016020819052604090912001546103a48133611083565b6103ae83836110e7565b505050565b60008083836040516020016103c9929190611c7a565b60408051808303601f190181529181528151602092830120600090815260039092529020546001600160a01b0316949350505050565b6001600160a01b03811633146104745760405162461bcd60e51b815260206004820152602f60248201527f416363657373436f6e74726f6c3a2063616e206f6e6c792072656e6f756e636560448201526e103937b632b9903337b91039b2b63360891b60648201526084015b60405180910390fd5b61047e8282611109565b5050565b6004818154811061049257600080fd5b600091825260209091200154905081565b6104cd7f33d7a8e7a62219cc6b885a43d7b1700892672340c88d0ceaba27d80a26492bc233610b3c565b61053f5760405162461bcd60e51b815260206004820152603c60248201527f43726f7373436f6e74726163744d616e3a207468652063616c6c6572206d757360448201527f742068617665205245544952494e475f4d414e414745525f524f4c4500000000606482015260840161046b565b60005b816001600160a01b0316639683584f6040518163ffffffff1660e01b815260040160206040518083038186803b15801561057b57600080fd5b505afa15801561058f573d6000803e3d6000fd5b505050506040513d601f19601f820116820180604052508101906105b39190611c8a565b81101561072157604051634bde91d160e01b8152600481018290526000906001600160a01b03841690634bde91d19060240160206040518083038186803b1580156105fd57600080fd5b505afa158015610611573d6000803e3d6000fd5b505050506040513d601f19601f820116820180604052508101906106359190611c8a565b6004805460018101825560008290527f8a35acfbc15ff81a39ae7d344fd709f28e8600b4aa8c65c6b64bfe7fe36bd19b0182905560405163ec56a37360e01b81529081018290529091506001600160a01b0384169063ec56a3739060240160206040518083038186803b1580156106ab57600080fd5b505afa1580156106bf573d6000803e3d6000fd5b505050506040513d601f19601f820116820180604052508101906106e39190611ca3565b60009182526003602052604090912080546001600160a01b0319166001600160a01b039092169190911790558061071981611cd6565b915050610542565b506040516001600160a01b03821681527fe94e1e625d72b8d4750cfe76c8c924aa5450a2243364cd03830d66db68a063ef9060200160405180910390a150565b6000546001600160a01b0316331461078b5760405162461bcd60e51b815260040161046b90611cf1565b60005b60045481101561083d5760036000600483815481106107af576107af611d26565b60009182526020808320919091015483528201929092526040908101909120549051635df1129160e01b81526001600160a01b03848116600483015290911690635df1129190602401600060405180830381600087803b15801561081257600080fd5b505af1158015610826573d6000803e3d6000fd5b50505050808061083590611cd6565b91505061078e565b506040516001600160a01b03821681527fbc680cd5d51f93aff6e2d1e94b77b489c4478e6458f795f44a92c037678d99649060200160405180910390a16040516315aab74560e21b81523060048201526001600160a01b038216906356aadd1490602401600060405180830381600087803b1580156108bb57600080fd5b505af11580156108cf573d6000803e3d6000fd5b5050604051631b2b455f60e11b81527f33d7a8e7a62219cc6b885a43d7b1700892672340c88d0ceaba27d80a26492bc260048201523060248201526001600160a01b03841692506336568abe9150604401600060405180830381600087803b15801561093a57600080fd5b505af115801561094e573d6000803e3d6000fd5b5050505050565b6000546001600160a01b0316331461097f5760405162461bcd60e51b815260040161046b90611cf1565b6000816001600160a01b0316635d1ca6316040518163ffffffff1660e01b815260040160206040518083038186803b1580156109ba57600080fd5b505afa1580156109ce573d6000803e3d6000fd5b505050506040513d601f19601f820116820180604052508101906109f29190611c8a565b905061047e818361112b565b6000546001600160a01b03163314610a285760405162461bcd60e51b815260040161046b90611cf1565b60005b600454811015610ada576003600060048381548110610a4c57610a4c611d26565b60009182526020808320919091015483528201929092526040908101909120549051636b2bf27f60e01b81526001600160a01b03848116600483015290911690636b2bf27f90602401600060405180830381600087803b158015610aaf57600080fd5b505af1158015610ac3573d6000803e3d6000fd5b505050508080610ad290611cd6565b915050610a2b565b50610ae481610f36565b50565b6000546001600160a01b03163314610b115760405162461bcd60e51b815260040161046b90611cf1565b610b1b600061164b565b565b6000828152600260205260408120610b35908361169b565b9392505050565b60009182526001602090815260408084206001600160a01b0393909316845291905290205460ff1690565b6000546001600160a01b03163314610b915760405162461bcd60e51b815260040161046b90611cf1565b60008282604051602001610ba6929190611c7a565b60408051601f198184030181529181528151602092830120600081815260039093529120549091506001600160a01b0316610be057505050565b600081815260036020526040812054610c01906001600160a01b03166116a7565b600083815260036020526040902054909150610c25906001600160a01b03166116a7565b15610c8f57600082815260036020526040808220548151631a6f04f360e01b815291516001600160a01b0390911692631a6f04f3926004808201939182900301818387803b158015610c7657600080fd5b505af1158015610c8a573d6000803e3d6000fd5b505050505b60005b600454811015610e6f5760006001600160a01b03166003600060048481548110610cbe57610cbe611d26565b600091825260208083209091015483528201929092526040019020546001600160a01b03161415610cee57610e6f565b610d326003600060048481548110610d0857610d08611d26565b600091825260208083209091015483528201929092526040019020546001600160a01b03166116a7565b610d3b57610e6f565b6003600060048381548110610d5257610d52611d26565b6000918252602080832091909101548352820192909252604090810190912054905163d4697a4760e01b8152600481018590526001600160a01b039091169063d4697a4790602401600060405180830381600087803b158015610db457600080fd5b505af1158015610dc8573d6000803e3d6000fd5b505050600084815260036020526040902054600480546001600160a01b03909216925063d4697a479184908110610e0157610e01611d26565b90600052602060002001546040518263ffffffff1660e01b8152600401610e2a91815260200190565b600060405180830381600087803b158015610e4457600080fd5b505af1158015610e58573d6000803e3d6000fd5b505050508080610e6790611cd6565b915050610c92565b5050600090815260036020526040902080546001600160a01b03191690555050565b6000546001600160a01b03163314610ebb5760405162461bcd60e51b815260040161046b90611cf1565b60008383604051602001610ed0929190611c7a565b604051602081830303815290604052805190602001209050610ef2818361112b565b50505050565b600081815260026020526040812061038190611743565b60008281526001602081905260409091200154610f2c8133611083565b6103ae8383611109565b6000546001600160a01b03163314610f605760405162461bcd60e51b815260040161046b90611cf1565b6001600160a01b038116610fc55760405162461bcd60e51b815260206004820152602660248201527f4f776e61626c653a206e6577206f776e657220697320746865207a65726f206160448201526564647265737360d01b606482015260840161046b565b610ae48161164b565b610fd88282610b3c565b61047e5760008281526001602081815260408084206001600160a01b0386168086529252808420805460ff19169093179092559051339285917f2f8788117e7eff1d82e926ec794901d17c78024a50270940304540a733656f0d9190a45050565b6000610b35836001600160a01b03841661174d565b60006001600160e01b03198216637965db0b60e01b148061038157506301ffc9a760e01b6001600160e01b0319831614610381565b61108d8282610b3c565b61047e576110a5816001600160a01b0316601461179c565b6110b083602061179c565b6040516020016110c1929190611d68565b60408051601f198184030181529082905262461bcd60e51b825261046b91600401611ddd565b6110f18282610fce565b60008281526002602052604090206103ae9082611039565b6111138282611938565b60008281526002602052604090206103ae908261199f565b6000611136826116a7565b600084815260036020526040812054919250906001600160a01b0316156112a95781156111d05760008481526003602052604090819020549051630447a2cd60e01b81526001600160a01b03918216600482015230602482015290841690630447a2cd90604401600060405180830381600087803b1580156111b757600080fd5b505af11580156111cb573d6000803e3d6000fd5b505050505b6000848152600360205260409020546111f1906001600160a01b03166116a7565b15611263576000848152600360205260409081902054905163c69c957960e01b81526001600160a01b0385811660048301529091169063c69c957990602401600060405180830381600087803b15801561124a57600080fd5b505af115801561125e573d6000803e3d6000fd5b505050505b604080518581526001600160a01b03851660208201527fa53e31dacd071738355ef18fc82af270693bb05b1e7be9026b41d76d98d9c75f910160405180910390a1611383565b506001811561130c57604051634420448f60e11b81523060048201526001600160a01b03841690638840891e90602401600060405180830381600087803b1580156112f357600080fd5b505af1158015611307573d6000803e3d6000fd5b505050505b600480546001810182556000919091527f8a35acfbc15ff81a39ae7d344fd709f28e8600b4aa8c65c6b64bfe7fe36bd19b01849055604080518581526001600160a01b03851660208201527f643cefa5894755d9e02f78cb384977d4ee3a06c8394b062a290e19176e9c69de910160405180910390a15b60005b60045481101561161a5760006001600160a01b031660036000600484815481106113b2576113b2611d26565b600091825260208083209091015483528201929092526040019020546001600160a01b031614156113e257611608565b6113fc6003600060048481548110610d0857610d08611d26565b156114a357600360006004838154811061141857611418611d26565b600091825260208083209190910154835282019290925260409081019091205490516305bca34960e21b8152600481018790526001600160a01b0386811660248301528415156044830152909116906316f28d2490606401600060405180830381600087803b15801561148a57600080fd5b505af115801561149e573d6000803e3d6000fd5b505050505b821561160857836001600160a01b03166316f28d24600483815481106114cb576114cb611d26565b906000526020600020015460036000600486815481106114ed576114ed611d26565b6000918252602080832090910154835282019290925260409081019091205490516001600160e01b031960e085901b16815260048101929092526001600160a01b0316602482015260016044820152606401600060405180830381600087803b15801561155957600080fd5b505af115801561156d573d6000803e3d6000fd5b505050508161160857600085815260036020526040902054600480546001600160a01b039092169163d4697a479190849081106115ac576115ac611d26565b90600052602060002001546040518263ffffffff1660e01b81526004016115d591815260200190565b600060405180830381600087803b1580156115ef57600080fd5b505af1158015611603573d6000803e3d6000fd5b505050505b8061161281611cd6565b915050611386565b50505060009182526003602052604090912080546001600160a01b0319166001600160a01b03909216919091179055565b600080546001600160a01b038381166001600160a01b0319831681178455604051919092169283917f8be0079c531659141344cd1fd0a4f28419497f9722a3daafe3b4186f6b6457e09190a35050565b6000610b3583836119b4565b60006001600160a01b0382163b1561173b576040516301ffc9a760e01b815263ee7ed59960e01b60048201526001600160a01b038316906301ffc9a79060240160206040518083038186803b1580156116ff57600080fd5b505afa92505050801561172f575060408051601f3d908101601f1916820190925261172c91810190611e10565b60015b61038157506000919050565b506000919050565b6000610381825490565b600081815260018301602052604081205461179457508154600181810184556000848152602080822090930184905584548482528286019093526040902091909155610381565b506000610381565b606060006117ab836002611e32565b6117b6906002611e51565b67ffffffffffffffff8111156117ce576117ce611e69565b6040519080825280601f01601f1916602001820160405280156117f8576020820181803683370190505b509050600360fc1b8160008151811061181357611813611d26565b60200101906001600160f81b031916908160001a905350600f60fb1b8160018151811061184257611842611d26565b60200101906001600160f81b031916908160001a9053506000611866846002611e32565b611871906001611e51565b90505b60018111156118e9576f181899199a1a9b1b9c1cb0b131b232b360811b85600f16601081106118a5576118a5611d26565b1a60f81b8282815181106118bb576118bb611d26565b60200101906001600160f81b031916908160001a90535060049490941c936118e281611e7f565b9050611874565b508315610b355760405162461bcd60e51b815260206004820181905260248201527f537472696e67733a20686578206c656e67746820696e73756666696369656e74604482015260640161046b565b6119428282610b3c565b1561047e5760008281526001602090815260408083206001600160a01b0385168085529252808320805460ff1916905551339285917ff6391f5c32d9c69d2a47ea670b442974b53935d1edc7fd64eb21e047a839171b9190a45050565b6000610b35836001600160a01b0384166119de565b60008260000182815481106119cb576119cb611d26565b9060005260206000200154905092915050565b60008181526001830160205260408120548015611ac7576000611a02600183611e96565b8554909150600090611a1690600190611e96565b9050818114611a7b576000866000018281548110611a3657611a36611d26565b9060005260206000200154905080876000018481548110611a5957611a59611d26565b6000918252602080832090910192909255918252600188019052604090208390555b8554869080611a8c57611a8c611ead565b600190038181906000526020600020016000905590558560010160008681526020019081526020016000206000905560019350505050610381565b6000915050610381565b600060208284031215611ae357600080fd5b81356001600160e01b031981168114610b3557600080fd5b600060208284031215611b0d57600080fd5b5035919050565b6001600160a01b0381168114610ae457600080fd5b60008060408385031215611b3c57600080fd5b823591506020830135611b4e81611b14565b809150509250929050565b60008083601f840112611b6b57600080fd5b50813567ffffffffffffffff811115611b8357600080fd5b602083019150836020828501011115611b9b57600080fd5b9250929050565b60008060208385031215611bb557600080fd5b823567ffffffffffffffff811115611bcc57600080fd5b611bd885828601611b59565b90969095509350505050565b600060208284031215611bf657600080fd5b8135610b3581611b14565b60008060408385031215611c1457600080fd5b50508035926020909101359150565b600080600060408486031215611c3857600080fd5b833567ffffffffffffffff811115611c4f57600080fd5b611c5b86828701611b59565b9094509250506020840135611c6f81611b14565b809150509250925092565b8183823760009101908152919050565b600060208284031215611c9c57600080fd5b5051919050565b600060208284031215611cb557600080fd5b8151610b3581611b14565b634e487b7160e01b600052601160045260246000fd5b6000600019821415611cea57611cea611cc0565b5060010190565b6020808252818101527f4f776e61626c653a2063616c6c6572206973206e6f7420746865206f776e6572604082015260600190565b634e487b7160e01b600052603260045260246000fd5b60005b83811015611d57578181015183820152602001611d3f565b83811115610ef25750506000910152565b7f416363657373436f6e74726f6c3a206163636f756e7420000000000000000000815260008351611da0816017850160208801611d3c565b7001034b99036b4b9b9b4b733903937b6329607d1b6017918401918201528351611dd1816028840160208801611d3c565b01602801949350505050565b6020815260008251806020840152611dfc816040850160208701611d3c565b601f01601f19169190910160400192915050565b600060208284031215611e2257600080fd5b81518015158114610b3557600080fd5b6000816000190483118215151615611e4c57611e4c611cc0565b500290565b60008219821115611e6457611e64611cc0565b500190565b634e487b7160e01b600052604160045260246000fd5b600081611e8e57611e8e611cc0565b506000190190565b600082821015611ea857611ea8611cc0565b500390565b634e487b7160e01b600052603160045260246000fdfea26469706673582212206a83d548d51ca358cb1ec43dde5036f0e57f363e88afb95541112146d9bcfae064736f6c63430008090033",
  "immutableReferences": {},
  "source": "\npragma solidity ^0.8;\n\nimport \"@openzeppelin/contracts/utils/introspection/ERC165.sol\";\nimport \"@openzeppelin/contracts/access/Ownable.sol\";\nimport \"@openzeppelin/contracts/utils/Address.sol\";\nimport \"@openzeppelin/contracts/access/AccessControlEnumerable.sol\";\n\nimport \"./ICrossContractManListener.sol\";\n\ncontract CrossContractMan is Ownable, AccessControlEnumerable {\n    using Address for address;\n    bytes32 public constant RETIRING_MANAGER_ROLE = keccak256('RETIRING_MANAGER_ROLE');\n\n    mapping(bytes32 => address) public contracts;\n\n    bytes32[] public hnames;\n\n    event ContractReplaced(bytes32 h_name, address contract_addr);\n\n    event ContractAdded(bytes32 h_name, address contract_addr);\n\n    event ManagerUpdatedFrom(address oldManager);\n\n    event ManagerUpdatedTo(address newManager);\n\n    modifier isRetiringManager() {\n\trequire(hasRole(RETIRING_MANAGER_ROLE, msg.sender),\"CrossContractMan: the caller must have RETIRING_MANAGER_ROLE\");\n\t_;\n    }\n\n    constructor() Ownable() {\n\t_grantRole(DEFAULT_ADMIN_ROLE, msg.sender);\n    }\n\n    function onSwitchManager(address oldManager) public virtual isRetiringManager {\n\tfor(uint i=0;i<CrossContractMan(oldManager).getContractsCount();i++){\n\t    bytes32 hname = CrossContractMan(oldManager).hnames(i);\n\t    hnames.push(hname);\n\t    contracts[hname] = CrossContractMan(oldManager).contracts(hname);\n\t}\n\temit ManagerUpdatedFrom(oldManager);\n    }\n\n    function addContract(address contract_addr) public virtual onlyOwner {\n\tbytes32 id = ICrossContractManListener(contract_addr).getId();\n\t_addContract(id, contract_addr);\n    }\n\n    function addContract(string calldata name, address contract_addr) public virtual onlyOwner {\n\tbytes32 h_name = keccak256(abi.encodePacked(name));\n\t_addContract(h_name, contract_addr);\n    }\n\n    function _addContract(bytes32 h_name, address contract_addr) internal {\n\tbool is_listener = isListener(contract_addr);\n\tbool is_new = false;\n\tif(contracts[h_name] != address(0)){\n\t    if(is_listener)\n\t\tICrossContractManListener(contract_addr).onUpdate(contracts[h_name], address(this));\n\t    if(isListener(contracts[h_name]))\n\t\tICrossContractManListener(contracts[h_name]).onReplaced(contract_addr);\n\t    emit ContractReplaced(h_name, contract_addr);\n\t}else{\n\t    is_new = true;\n\t    if(is_listener)\n\t\tICrossContractManListener(contract_addr).onAdd(address(this));\n\t    hnames.push(h_name);\n\t    emit ContractAdded(h_name, contract_addr);\n\t}\n\tfor(uint i=0;i<hnames.length;i++){\n\t    if(contracts[hnames[i]] == address(0))continue;\n\t    if(isListener(contracts[hnames[i]]))\n\t\tICrossContractManListener(contracts[hnames[i]]).onListenAdded(h_name,contract_addr,is_new);\n\t    if(is_listener){\n\t\tICrossContractManListener(contract_addr).onListenAdded(hnames[i],contracts[hnames[i]],true);\n\t\tif(!is_new)\n\t\t    ICrossContractManListener(contracts[h_name]).onListenRemoved(hnames[i]);\n\t    }\n\t}\n\tcontracts[h_name] = contract_addr;\n    }\n\n    function removeContract(string calldata name) public virtual onlyOwner {\n\tbytes32 h_name = keccak256(abi.encodePacked(name));\n\tif(contracts[h_name] == address(0))return;\n\tbool is_listener = isListener(contracts[h_name]);\n\tif(isListener(contracts[h_name])){\n\t    ICrossContractManListener(contracts[h_name]).onRemoved();\n\t}\n\tfor(uint i=0;i<hnames.length;i++){\n\t    if(contracts[hnames[i]] == address(0))break;\n\t    if(!isListener(contracts[hnames[i]]))break;\n\t    ICrossContractManListener(contracts[hnames[i]]).onListenRemoved(h_name);\n\t    ICrossContractManListener(contracts[h_name]).onListenRemoved(hnames[i]);\n\t}\n\tdelete contracts[h_name];\n    }\n\n    function isListener(address instance) internal view returns(bool) {\n\tif(instance.isContract()){\n\t    try ERC165(instance).supportsInterface(type(ICrossContractManListener).interfaceId) returns(bool responce){\n\t\treturn responce;\n\t    }catch{\n\t\treturn false;\n\t    }\n\t}\n\treturn false;\n    }\n\n    function updateOwnership(address newOwner) public virtual onlyOwner {\n\tfor(uint i=0;i<hnames.length;i++){\n\t    ICrossContractManListener(contracts[hnames[i]]).updateOwnership(newOwner);\n\t}\n\ttransferOwnership(newOwner);\n    }\n\n    function switchManager(address newManager) public virtual onlyOwner {\n\tfor(uint i=0;i<hnames.length;i++){\n\t    ICrossContractManListener(contracts[hnames[i]]).switchManager(newManager);\n\t}\n\temit ManagerUpdatedTo(newManager);\n\tCrossContractMan(newManager).onSwitchManager(address(this));\n\tCrossContractMan(newManager).renounceRole(RETIRING_MANAGER_ROLE, address(this));\n    }\n\n    function getContract(string calldata name) public view returns(address) {\n\tbytes32 h_name = keccak256(abi.encodePacked(name));\n\treturn contracts[h_name];\n    }\n\n    function getContractsCount() public view returns(uint256) {\n\treturn hnames.length;\n    }\n}\n",
  "sourcePath": "/home/vrogojin/Projects/FireZard/nft/contracts/CrossContractMan.sol",
  "compiler": {
    "name": "solc",
    "version": "0.8.9+commit.e5eed63a.Emscripten.clang"
  },
  "schemaVersion": "3.4.3",
  "updatedAt": "2022-02-10T17:40:06.230Z",
  "networkType": "ethereum",
  "devdoc": {
    "kind": "dev",
    "methods": {
      "getRoleAdmin(bytes32)": {
        "details": "Returns the admin role that controls `role`. See {grantRole} and {revokeRole}. To change a role's admin, use {_setRoleAdmin}."
      },
      "getRoleMember(bytes32,uint256)": {
        "details": "Returns one of the accounts that have `role`. `index` must be a value between 0 and {getRoleMemberCount}, non-inclusive. Role bearers are not sorted in any particular way, and their ordering may change at any point. WARNING: When using {getRoleMember} and {getRoleMemberCount}, make sure you perform all queries on the same block. See the following https://forum.openzeppelin.com/t/iterating-over-elements-on-enumerableset-in-openzeppelin-contracts/2296[forum post] for more information."
      },
      "getRoleMemberCount(bytes32)": {
        "details": "Returns the number of accounts that have `role`. Can be used together with {getRoleMember} to enumerate all bearers of a role."
      },
      "grantRole(bytes32,address)": {
        "details": "Grants `role` to `account`. If `account` had not been already granted `role`, emits a {RoleGranted} event. Requirements: - the caller must have ``role``'s admin role."
      },
      "hasRole(bytes32,address)": {
        "details": "Returns `true` if `account` has been granted `role`."
      },
      "owner()": {
        "details": "Returns the address of the current owner."
      },
      "renounceOwnership()": {
        "details": "Leaves the contract without owner. It will not be possible to call `onlyOwner` functions anymore. Can only be called by the current owner. NOTE: Renouncing ownership will leave the contract without an owner, thereby removing any functionality that is only available to the owner."
      },
      "renounceRole(bytes32,address)": {
        "details": "Revokes `role` from the calling account. Roles are often managed via {grantRole} and {revokeRole}: this function's purpose is to provide a mechanism for accounts to lose their privileges if they are compromised (such as when a trusted device is misplaced). If the calling account had been revoked `role`, emits a {RoleRevoked} event. Requirements: - the caller must be `account`."
      },
      "revokeRole(bytes32,address)": {
        "details": "Revokes `role` from `account`. If `account` had been granted `role`, emits a {RoleRevoked} event. Requirements: - the caller must have ``role``'s admin role."
      },
      "supportsInterface(bytes4)": {
        "details": "See {IERC165-supportsInterface}."
      },
      "transferOwnership(address)": {
        "details": "Transfers ownership of the contract to a new account (`newOwner`). Can only be called by the current owner."
      }
    },
    "version": 1
  },
  "userdoc": {
    "kind": "user",
    "methods": {},
    "version": 1
  }
}