{
  "contractName": "DragonCardView",
  "abi": [
    {
      "anonymous": false,
      "inputs": [
        {
          "indexed": false,
          "internalType": "address",
          "name": "_manager",
          "type": "address"
        }
      ],
      "name": "ContractAdded",
      "type": "event"
    },
    {
      "anonymous": false,
      "inputs": [
        {
          "indexed": false,
          "internalType": "address",
          "name": "newManager",
          "type": "address"
        }
      ],
      "name": "ContractManagerSwitch",
      "type": "event"
    },
    {
      "anonymous": false,
      "inputs": [
        {
          "indexed": false,
          "internalType": "address",
          "name": "newOwner",
          "type": "address"
        }
      ],
      "name": "ContractOwnershipUpdate",
      "type": "event"
    },
    {
      "anonymous": false,
      "inputs": [],
      "name": "ContractRemoved",
      "type": "event"
    },
    {
      "anonymous": false,
      "inputs": [
        {
          "indexed": false,
          "internalType": "address",
          "name": "contractInstance",
          "type": "address"
        }
      ],
      "name": "ContractReplaced",
      "type": "event"
    },
    {
      "anonymous": false,
      "inputs": [
        {
          "indexed": false,
          "internalType": "address",
          "name": "oldInstance",
          "type": "address"
        },
        {
          "indexed": false,
          "internalType": "address",
          "name": "_manager",
          "type": "address"
        }
      ],
      "name": "ContractUpdated",
      "type": "event"
    },
    {
      "anonymous": false,
      "inputs": [
        {
          "indexed": false,
          "internalType": "address",
          "name": "nft_addr",
          "type": "address"
        }
      ],
      "name": "NFTLink",
      "type": "event"
    },
    {
      "anonymous": false,
      "inputs": [
        {
          "indexed": true,
          "internalType": "address",
          "name": "previousOwner",
          "type": "address"
        },
        {
          "indexed": true,
          "internalType": "address",
          "name": "newOwner",
          "type": "address"
        }
      ],
      "name": "OwnershipTransferred",
      "type": "event"
    },
    {
      "anonymous": false,
      "inputs": [
        {
          "indexed": true,
          "internalType": "bytes32",
          "name": "role",
          "type": "bytes32"
        },
        {
          "indexed": true,
          "internalType": "bytes32",
          "name": "previousAdminRole",
          "type": "bytes32"
        },
        {
          "indexed": true,
          "internalType": "bytes32",
          "name": "newAdminRole",
          "type": "bytes32"
        }
      ],
      "name": "RoleAdminChanged",
      "type": "event"
    },
    {
      "anonymous": false,
      "inputs": [
        {
          "indexed": true,
          "internalType": "bytes32",
          "name": "role",
          "type": "bytes32"
        },
        {
          "indexed": true,
          "internalType": "address",
          "name": "account",
          "type": "address"
        },
        {
          "indexed": true,
          "internalType": "address",
          "name": "sender",
          "type": "address"
        }
      ],
      "name": "RoleGranted",
      "type": "event"
    },
    {
      "anonymous": false,
      "inputs": [
        {
          "indexed": true,
          "internalType": "bytes32",
          "name": "role",
          "type": "bytes32"
        },
        {
          "indexed": true,
          "internalType": "address",
          "name": "account",
          "type": "address"
        },
        {
          "indexed": true,
          "internalType": "address",
          "name": "sender",
          "type": "address"
        }
      ],
      "name": "RoleRevoked",
      "type": "event"
    },
    {
      "anonymous": false,
      "inputs": [
        {
          "indexed": false,
          "internalType": "address",
          "name": "dragon_stats",
          "type": "address"
        }
      ],
      "name": "StatsLibLink",
      "type": "event"
    },
    {
      "anonymous": false,
      "inputs": [
        {
          "indexed": false,
          "internalType": "address",
          "name": "tag_addr",
          "type": "address"
        }
      ],
      "name": "ViewLink",
      "type": "event"
    },
    {
      "inputs": [],
      "name": "DEFAULT_ADMIN_ROLE",
      "outputs": [
        {
          "internalType": "bytes32",
          "name": "",
          "type": "bytes32"
        }
      ],
      "stateMutability": "view",
      "type": "function"
    },
    {
      "inputs": [],
      "name": "MANAGER_ROLE",
      "outputs": [
        {
          "internalType": "bytes32",
          "name": "",
          "type": "bytes32"
        }
      ],
      "stateMutability": "view",
      "type": "function"
    },
    {
      "inputs": [],
      "name": "NFT_addr",
      "outputs": [
        {
          "internalType": "address",
          "name": "",
          "type": "address"
        }
      ],
      "stateMutability": "view",
      "type": "function"
    },
    {
      "inputs": [],
      "name": "VERSION",
      "outputs": [
        {
          "internalType": "bytes32",
          "name": "",
          "type": "bytes32"
        }
      ],
      "stateMutability": "view",
      "type": "function"
    },
    {
      "inputs": [],
      "name": "contract_id",
      "outputs": [
        {
          "internalType": "bytes32",
          "name": "",
          "type": "bytes32"
        }
      ],
      "stateMutability": "view",
      "type": "function"
    },
    {
      "inputs": [],
      "name": "contract_name",
      "outputs": [
        {
          "internalType": "string",
          "name": "",
          "type": "string"
        }
      ],
      "stateMutability": "view",
      "type": "function"
    },
    {
      "inputs": [],
      "name": "dragon_stats_addr",
      "outputs": [
        {
          "internalType": "address",
          "name": "",
          "type": "address"
        }
      ],
      "stateMutability": "view",
      "type": "function"
    },
    {
      "inputs": [
        {
          "internalType": "bytes32",
          "name": "role",
          "type": "bytes32"
        }
      ],
      "name": "getRoleAdmin",
      "outputs": [
        {
          "internalType": "bytes32",
          "name": "",
          "type": "bytes32"
        }
      ],
      "stateMutability": "view",
      "type": "function"
    },
    {
      "inputs": [
        {
          "internalType": "bytes32",
          "name": "role",
          "type": "bytes32"
        },
        {
          "internalType": "uint256",
          "name": "index",
          "type": "uint256"
        }
      ],
      "name": "getRoleMember",
      "outputs": [
        {
          "internalType": "address",
          "name": "",
          "type": "address"
        }
      ],
      "stateMutability": "view",
      "type": "function"
    },
    {
      "inputs": [
        {
          "internalType": "bytes32",
          "name": "role",
          "type": "bytes32"
        }
      ],
      "name": "getRoleMemberCount",
      "outputs": [
        {
          "internalType": "uint256",
          "name": "",
          "type": "uint256"
        }
      ],
      "stateMutability": "view",
      "type": "function"
    },
    {
      "inputs": [
        {
          "internalType": "bytes32",
          "name": "role",
          "type": "bytes32"
        },
        {
          "internalType": "address",
          "name": "account",
          "type": "address"
        }
      ],
      "name": "grantRole",
      "outputs": [],
      "stateMutability": "nonpayable",
      "type": "function"
    },
    {
      "inputs": [
        {
          "internalType": "bytes32",
          "name": "role",
          "type": "bytes32"
        },
        {
          "internalType": "address",
          "name": "account",
          "type": "address"
        }
      ],
      "name": "hasRole",
      "outputs": [
        {
          "internalType": "bool",
          "name": "",
          "type": "bool"
        }
      ],
      "stateMutability": "view",
      "type": "function"
    },
    {
      "inputs": [],
      "name": "manager",
      "outputs": [
        {
          "internalType": "address",
          "name": "",
          "type": "address"
        }
      ],
      "stateMutability": "view",
      "type": "function"
    },
    {
      "inputs": [
        {
          "internalType": "address",
          "name": "_manager",
          "type": "address"
        }
      ],
      "name": "onAdd",
      "outputs": [],
      "stateMutability": "nonpayable",
      "type": "function"
    },
    {
      "inputs": [],
      "name": "onRemoved",
      "outputs": [],
      "stateMutability": "nonpayable",
      "type": "function"
    },
    {
      "inputs": [
        {
          "internalType": "address",
          "name": "newInstance",
          "type": "address"
        }
      ],
      "name": "onReplaced",
      "outputs": [],
      "stateMutability": "nonpayable",
      "type": "function"
    },
    {
      "inputs": [
        {
          "internalType": "address",
          "name": "oldInstance",
          "type": "address"
        },
        {
          "internalType": "address",
          "name": "_manager",
          "type": "address"
        }
      ],
      "name": "onUpdate",
      "outputs": [],
      "stateMutability": "nonpayable",
      "type": "function"
    },
    {
      "inputs": [],
      "name": "owner",
      "outputs": [
        {
          "internalType": "address",
          "name": "",
          "type": "address"
        }
      ],
      "stateMutability": "view",
      "type": "function"
    },
    {
      "inputs": [],
      "name": "renounceOwnership",
      "outputs": [],
      "stateMutability": "nonpayable",
      "type": "function"
    },
    {
      "inputs": [
        {
          "internalType": "bytes32",
          "name": "role",
          "type": "bytes32"
        },
        {
          "internalType": "address",
          "name": "account",
          "type": "address"
        }
      ],
      "name": "renounceRole",
      "outputs": [],
      "stateMutability": "nonpayable",
      "type": "function"
    },
    {
      "inputs": [
        {
          "internalType": "bytes32",
          "name": "role",
          "type": "bytes32"
        },
        {
          "internalType": "address",
          "name": "account",
          "type": "address"
        }
      ],
      "name": "revokeRole",
      "outputs": [],
      "stateMutability": "nonpayable",
      "type": "function"
    },
    {
      "inputs": [
        {
          "internalType": "bytes4",
          "name": "interfaceId",
          "type": "bytes4"
        }
      ],
      "name": "supportsInterface",
      "outputs": [
        {
          "internalType": "bool",
          "name": "",
          "type": "bool"
        }
      ],
      "stateMutability": "view",
      "type": "function"
    },
    {
      "inputs": [
        {
          "internalType": "address",
          "name": "newManager",
          "type": "address"
        }
      ],
      "name": "switchManager",
      "outputs": [],
      "stateMutability": "nonpayable",
      "type": "function"
    },
    {
      "inputs": [
        {
          "internalType": "address",
          "name": "newOwner",
          "type": "address"
        }
      ],
      "name": "transferOwnership",
      "outputs": [],
      "stateMutability": "nonpayable",
      "type": "function"
    },
    {
      "inputs": [
        {
          "internalType": "address",
          "name": "newOwner",
          "type": "address"
        }
      ],
      "name": "updateOwnership",
      "outputs": [],
      "stateMutability": "nonpayable",
      "type": "function"
    },
    {
      "inputs": [],
      "name": "viewer_addr",
      "outputs": [
        {
          "internalType": "address",
          "name": "",
          "type": "address"
        }
      ],
      "stateMutability": "view",
      "type": "function"
    },
    {
      "inputs": [],
      "name": "getName",
      "outputs": [
        {
          "internalType": "string",
          "name": "",
          "type": "string"
        }
      ],
      "stateMutability": "view",
      "type": "function"
    },
    {
      "inputs": [],
      "name": "getId",
      "outputs": [
        {
          "internalType": "bytes32",
          "name": "",
          "type": "bytes32"
        }
      ],
      "stateMutability": "view",
      "type": "function"
    },
    {
      "inputs": [
        {
          "internalType": "bytes32",
          "name": "hname",
          "type": "bytes32"
        },
        {
          "internalType": "address",
          "name": "contractInstance",
          "type": "address"
        },
        {
          "internalType": "bool",
          "name": "isNew",
          "type": "bool"
        }
      ],
      "name": "onListenAdded",
      "outputs": [],
      "stateMutability": "nonpayable",
      "type": "function"
    },
    {
      "inputs": [
        {
          "internalType": "bytes32",
          "name": "hname",
          "type": "bytes32"
        }
      ],
      "name": "onListenRemoved",
      "outputs": [],
      "stateMutability": "nonpayable",
      "type": "function"
    },
    {
      "inputs": [
        {
          "internalType": "address",
          "name": "viewer",
          "type": "address"
        }
      ],
      "name": "linkViewer",
      "outputs": [],
      "stateMutability": "nonpayable",
      "type": "function"
    },
    {
      "inputs": [
        {
          "internalType": "address",
          "name": "nft_container",
          "type": "address"
        }
      ],
      "name": "linkNFT",
      "outputs": [],
      "stateMutability": "nonpayable",
      "type": "function"
    },
    {
      "inputs": [
        {
          "internalType": "address",
          "name": "dragon_stats",
          "type": "address"
        }
      ],
      "name": "linkStatsLib",
      "outputs": [],
      "stateMutability": "nonpayable",
      "type": "function"
    },
    {
      "inputs": [
        {
          "internalType": "address",
          "name": "user",
          "type": "address"
        }
      ],
      "name": "getInventorySize",
      "outputs": [
        {
          "internalType": "uint256",
          "name": "",
          "type": "uint256"
        }
      ],
      "stateMutability": "view",
      "type": "function"
    },
    {
      "inputs": [
        {
          "internalType": "address",
          "name": "user",
          "type": "address"
        },
        {
          "internalType": "uint256",
          "name": "startIndex",
          "type": "uint256"
        },
        {
          "internalType": "uint256",
          "name": "count",
          "type": "uint256"
        }
      ],
      "name": "getInventorySlots",
      "outputs": [
        {
          "internalType": "uint256[]",
          "name": "",
          "type": "uint256[]"
        }
      ],
      "stateMutability": "view",
      "type": "function"
    },
    {
      "inputs": [
        {
          "internalType": "uint256",
          "name": "id",
          "type": "uint256"
        }
      ],
      "name": "getView",
      "outputs": [
        {
          "components": [
            {
              "internalType": "address",
              "name": "owner",
              "type": "address"
            },
            {
              "internalType": "uint256",
              "name": "stacked",
              "type": "uint256"
            },
            {
              "internalType": "bytes32",
              "name": "nft_type",
              "type": "bytes32"
            },
            {
              "internalType": "bytes32",
              "name": "version",
              "type": "bytes32"
            },
            {
              "internalType": "uint256",
              "name": "rarity",
              "type": "uint256"
            },
            {
              "internalType": "uint256",
              "name": "health",
              "type": "uint256"
            },
            {
              "internalType": "enum Util.CardType",
              "name": "card_type",
              "type": "uint8"
            },
            {
              "internalType": "uint256",
              "name": "attack",
              "type": "uint256"
            },
            {
              "internalType": "uint256",
              "name": "defense",
              "type": "uint256"
            },
            {
              "internalType": "uint256",
              "name": "character",
              "type": "uint256"
            },
            {
              "internalType": "string",
              "name": "character_name",
              "type": "string"
            },
            {
              "internalType": "bool",
              "name": "card_claimed",
              "type": "bool"
            }
          ],
          "internalType": "struct DragonCardView.DragonStatsView",
          "name": "",
          "type": "tuple"
        }
      ],
      "stateMutability": "view",
      "type": "function"
    }
  ],
  "bytecode": "0x60c0604052600e60808190526d447261676f6e436172645669657760901b60a09081526200003191600491906200023e565b506040518060400160405280600e81526020016d447261676f6e436172645669657760901b8152506040516020016200006b9190620002e4565b604051602081830303815290604052805190602001206005553480156200009157600080fd5b506200009d33620000b0565b620000aa60003362000100565b6200035f565b600080546001600160a01b038381166001600160a01b0319831681178455604051919092169283917f8be0079c531659141344cd1fd0a4f28419497f9722a3daafe3b4186f6b6457e09190a35050565b6200011782826200014360201b620018361760201c565b60008281526002602090815260409091206200013e918390620018a1620001cc821b17901c565b505050565b60008281526001602090815260408083206001600160a01b038516845290915290205460ff16620001c85760008281526001602081815260408084206001600160a01b0386168086529252808420805460ff19169093179092559051339285917f2f8788117e7eff1d82e926ec794901d17c78024a50270940304540a733656f0d9190a45b5050565b6000620001e3836001600160a01b038416620001ec565b90505b92915050565b60008181526001830160205260408120546200023557508154600181810184556000848152602080822090930184905584548482528286019093526040902091909155620001e6565b506000620001e6565b8280546200024c9062000322565b90600052602060002090601f016020900481019282620002705760008555620002bb565b82601f106200028b57805160ff1916838001178555620002bb565b82800160010185558215620002bb579182015b82811115620002bb5782518255916020019190600101906200029e565b50620002c9929150620002cd565b5090565b5b80821115620002c95760008155600101620002ce565b6000825160005b81811015620003075760208186018101518583015201620002eb565b8181111562000317576000828501525b509190910192915050565b600181811c908216806200033757607f821691505b602082108114156200035957634e487b7160e01b600052602260045260246000fd5b50919050565b61299d806200036f6000396000f3fe608060405234801561001057600080fd5b506004361061021c5760003560e01c80638840891e11610125578063c69c9579116100ad578063d94796921161007c578063d9479692146104a0578063ec87621c146104a8578063ecc1d93b146104bd578063f2fde38b146104d0578063ffa1ad74146104e357600080fd5b8063c69c957914610454578063ca15c87314610467578063d4697a471461047a578063d547741f1461048d57600080fd5b806391d14854116100f457806391d14854146103f357806397ffa316146104065780639f2e5d5214610419578063a217fddf14610439578063aadd04881461044157600080fd5b80638840891e146103a957806388971bf5146103bc5780638da5cb5b146103cf5780639010d07c146103e057600080fd5b806336568abe116101a85780635d1ca631116101775780635d1ca631146103605780635df11291146103685780636b2bf27f1461037b578063715018a61461038e57806385f131101461039657600080fd5b806336568abe1461031e5780633ad32d1614610331578063481c6a751461033a57806350b978a81461034d57600080fd5b806317d7de7c116101ef57806317d7de7c1461029c5780631a6f04f3146102b1578063248a9ca3146102b95780632f2ff15d146102eb578063337bfccc146102fe57600080fd5b806301ffc9a7146102215780630447a2cd146102495780630b0c573c1461025e57806316f28d2414610289575b600080fd5b61023461022f3660046121c2565b61051d565b60405190151581526020015b60405180910390f35b61025c610257366004612201565b610548565b005b600854610271906001600160a01b031681565b6040516001600160a01b039091168152602001610240565b61025c610297366004612248565b610556565b6102a461067b565b60405161024091906122e6565b61025c61070d565b6102dd6102c73660046122f9565b6000908152600160208190526040909120015490565b604051908152602001610240565b61025c6102f9366004612312565b610717565b61031161030c3660046122f9565b61073e565b6040516102409190612378565b61025c61032c366004612312565b61125b565b6102dd60055481565b600354610271906001600160a01b031681565b600754610271906001600160a01b031681565b6005546102dd565b61025c610376366004612431565b6112d5565b61025c610389366004612431565b6112e1565b61025c6112ea565b6102dd6103a4366004612431565b61131e565b61025c6103b7366004612431565b61139c565b61025c6103ca366004612431565b6113a5565b6000546001600160a01b0316610271565b6102716103ee36600461244e565b6113d8565b610234610401366004612312565b6113f7565b600654610271906001600160a01b031681565b61042c610427366004612470565b611422565b60405161024091906124a5565b6102dd600081565b61025c61044f366004612431565b611549565b61025c610462366004612431565b61157c565b6102dd6104753660046122f9565b611585565b61025c6104883660046122f9565b61159c565b61025c61049b366004612312565b6116b6565b6102a46116dd565b6102dd60008051602061294883398151915281565b61025c6104cb366004612431565b61176b565b61025c6104de366004612431565b61179e565b6102dd6040516e223930b3b7b721b0b93216bb18971960891b6020820152602f016040516020818303038152906040528051906020012081565b60006001600160e01b0319821663ee7ed59960e01b14806105425750610542826118b6565b92915050565b61055282826118db565b5050565b61056e600080516020612948833981519152336113f7565b6105935760405162461bcd60e51b815260040161058a906124e9565b60405180910390fd5b6040518060400160405280600981526020016853746174735669657760b81b8152506040516020016105c59190612546565b604051602081830303815290604052805190602001208314156105f0576105eb8261196e565b505050565b7fc227f98e618597415dca1f5035d597d1e75936952bfd5d741271dd85ba110d90831415610621576105eb826119c3565b6040518060400160405280600b81526020016a447261676f6e537461747360a81b8152506040516020016106559190612546565b604051602081830303815290604052805190602001208314156105eb576105eb82611a11565b60606004805461068a90612562565b80601f01602080910402602001604051908101604052809291908181526020018280546106b690612562565b80156107035780601f106106d857610100808354040283529160200191610703565b820191906000526020600020905b8154815290600101906020018083116106e657829003601f168201915b5050505050905090565b610715611a5f565b565b600082815260016020819052604090912001546107348133611ace565b6105eb8383611b32565b6107a46040805161018081018252600080825260208201819052918101829052606081018290526080810182905260a081018290529060c08201908152602001600081526020016000815260200160008152602001606081526020016000151581525090565b60075460405163c588ff8b60e01b8152600481018490526000916001600160a01b03169063c588ff8b9060240160206040518083038186803b1580156107e957600080fd5b505afa1580156107fd573d6000803e3d6000fd5b505050506040513d601f19601f82011682018060405250810190610821919061259d565b600654600854604080516319cd4c3d60e01b815290519394506000936001600160a01b039384169363846235739387938a9391909216916319cd4c3d916004808301928a929190829003018186803b15801561087c57600080fd5b505afa158015610890573d6000803e3d6000fd5b505050506040513d6000823e601f3d908101601f191682016040526108b8919081019061267d565b6040518463ffffffff1660e01b81526004016108d6939291906126ba565b60006040518083038186803b1580156108ee57600080fd5b505afa158015610902573d6000803e3d6000fd5b505050506040513d6000823e601f3d908101601f1916820160405261092a91908101906126e2565b608001511561093b57506003610a57565b6006546008546040805163091a7f8b60e41b815290516001600160a01b039384169363846235739387938a9391909216916391a7f8b0916004808301926000929190829003018186803b15801561099157600080fd5b505afa1580156109a5573d6000803e3d6000fd5b505050506040513d6000823e601f3d908101601f191682016040526109cd919081019061267d565b6040518463ffffffff1660e01b81526004016109eb939291906126ba565b60006040518083038186803b158015610a0357600080fd5b505afa158015610a17573d6000803e3d6000fd5b505050506040513d6000823e601f3d908101601f19168201604052610a3f91908101906126e2565b602001516004811115610a5457610a54612337565b90505b6006546008546040805163367eca3f60e21b815290516000936001600160a01b039081169363846235739388938b939092169163d9fb28fc916004808201928a92909190829003018186803b158015610aaf57600080fd5b505afa158015610ac3573d6000803e3d6000fd5b505050506040513d6000823e601f3d908101601f19168201604052610aeb919081019061267d565b6040518463ffffffff1660e01b8152600401610b09939291906126ba565b60006040518083038186803b158015610b2157600080fd5b505afa158015610b35573d6000803e3d6000fd5b505050506040513d6000823e601f3d908101601f19168201604052610b5d91908101906126e2565b602001516004811115610b7257610b72612337565b6008546040516357c3b5bd60e11b81529192506000916001600160a01b039091169063af876b7a90610bac90899087908790600401612791565b60206040518083038186803b158015610bc457600080fd5b505afa158015610bd8573d6000803e3d6000fd5b505050506040513d601f19601f82011682018060405250810190610bfc919061259d565b604080516101808101918290526007546331a9108f60e11b909252610184810189905291925081906001600160a01b0316636352211e6101a4830160206040518083038186803b158015610c4f57600080fd5b505afa158015610c63573d6000803e3d6000fd5b505050506040513d601f19601f82011682018060405250810190610c8791906127be565b6001600160a01b03908116825260075460405163bd85b03960e01b8152600481018b905260209093019291169063bd85b0399060240160206040518083038186803b158015610cd557600080fd5b505afa158015610ce9573d6000803e3d6000fd5b505050506040513d601f19601f82011682018060405250810190610d0d919061259d565b8152602001858152602001604051602001610d3d906e223930b3b7b721b0b93216bb18971960891b8152600f0190565b604051602081830303815290604052805190602001208152602001846004811115610d6a57610d6a612337565b815260065460085460408051630fa97af960e41b815290516020909401936001600160a01b03938416936384623573938b938e93919092169163fa97af90916004808301926000929190829003018186803b158015610dc857600080fd5b505afa158015610ddc573d6000803e3d6000fd5b505050506040513d6000823e601f3d908101601f19168201604052610e04919081019061267d565b6040518463ffffffff1660e01b8152600401610e22939291906126ba565b60006040518083038186803b158015610e3a57600080fd5b505afa158015610e4e573d6000803e3d6000fd5b505050506040513d6000823e601f3d908101601f19168201604052610e7691908101906126e2565b602001518152602001836004811115610e9157610e91612337565b81526006546008546040805163b51e6dc760e01b815290516020909401936001600160a01b03938416936384623573938b938e93919092169163b51e6dc7916004808301926000929190829003018186803b158015610eef57600080fd5b505afa158015610f03573d6000803e3d6000fd5b505050506040513d6000823e601f3d908101601f19168201604052610f2b919081019061267d565b6040518463ffffffff1660e01b8152600401610f49939291906126ba565b60006040518083038186803b158015610f6157600080fd5b505afa158015610f75573d6000803e3d6000fd5b505050506040513d6000823e601f3d908101601f19168201604052610f9d91908101906126e2565b60209081015182526006546008546040805163c7a6ffc960e01b8152905194909301936001600160a01b03928316936384623573938b938e9391169163c7a6ffc9916004808301926000929190829003018186803b158015610ffe57600080fd5b505afa158015611012573d6000803e3d6000fd5b505050506040513d6000823e601f3d908101601f1916820160405261103a919081019061267d565b6040518463ffffffff1660e01b8152600401611058939291906126ba565b60006040518083038186803b15801561107057600080fd5b505afa158015611084573d6000803e3d6000fd5b505050506040513d6000823e601f3d908101601f191682016040526110ac91908101906126e2565b6020908101518252810183905260085460408051631329cc0360e21b8152600481018690529201916001600160a01b0390911690634ca7300c9060240160006040518083038186803b15801561110157600080fd5b505afa158015611115573d6000803e3d6000fd5b505050506040513d6000823e601f3d908101601f1916820160405261113d919081019061267d565b8152600654600854604080516309dea7c760e31b815290516020909401936001600160a01b03938416936384623573938b938e939190921691634ef53e38916004808301926000929190829003018186803b15801561119b57600080fd5b505afa1580156111af573d6000803e3d6000fd5b505050506040513d6000823e601f3d908101601f191682016040526111d7919081019061267d565b6040518463ffffffff1660e01b81526004016111f5939291906126ba565b60006040518083038186803b15801561120d57600080fd5b505afa158015611221573d6000803e3d6000fd5b505050506040513d6000823e601f3d908101601f1916820160405261124991908101906126e2565b60800151151590529695505050505050565b6001600160a01b03811633146112cb5760405162461bcd60e51b815260206004820152602f60248201527f416363657373436f6e74726f6c3a2063616e206f6e6c792072656e6f756e636560448201526e103937b632b9903337b91039b2b63360891b606482015260840161058a565b6105528282611b54565b6112de81611b76565b50565b6112de81611c2e565b6000546001600160a01b031633146113145760405162461bcd60e51b815260040161058a906127db565b6107156000611ca4565b6007546040516370a0823160e01b81526001600160a01b03838116600483015260009216906370a082319060240160206040518083038186803b15801561136457600080fd5b505afa158015611378573d6000803e3d6000fd5b505050506040513d601f19601f82011682018060405250810190610542919061259d565b6112de81611cf4565b6000546001600160a01b031633146113cf5760405162461bcd60e51b815260040161058a906127db565b6112de81611a11565b60008281526002602052604081206113f09083611d76565b9392505050565b60009182526001602090815260408084206001600160a01b0393909316845291905290205460ff1690565b606060008267ffffffffffffffff81111561143f5761143f6125b6565b604051908082528060200260200182016040528015611468578160200160208202803683370190505b5090506000845b6114798587612826565b81101561153e57600754604051632f745c5960e01b81526001600160a01b0389811660048301526024820184905290911690632f745c599060440160206040518083038186803b1580156114cc57600080fd5b505afa1580156114e0573d6000803e3d6000fd5b505050506040513d601f19601f82011682018060405250810190611504919061259d565b838361150f8161283e565b94508151811061152157611521612859565b6020908102919091010152806115368161283e565b91505061146f565b509095945050505050565b6000546001600160a01b031633146115735760405162461bcd60e51b815260040161058a906127db565b6112de816119c3565b6112de81611d82565b600081815260026020526040812061054290611dff565b6115b4600080516020612948833981519152336113f7565b6115d05760405162461bcd60e51b815260040161058a906124e9565b6040518060400160405280600981526020016853746174735669657760b81b8152506040516020016116029190612546565b60405160208183030381529060405280519060200120811415611629576112de600061196e565b7fc227f98e618597415dca1f5035d597d1e75936952bfd5d741271dd85ba110d9081141561165b576112de60006119c3565b6040518060400160405280600b81526020016a447261676f6e537461747360a81b81525060405160200161168f9190612546565b604051602081830303815290604052805190602001208114156112de576112de6000611a11565b600082815260016020819052604090912001546116d38133611ace565b6105eb8383611b54565b600480546116ea90612562565b80601f016020809104026020016040519081016040528092919081815260200182805461171690612562565b80156117635780601f1061173857610100808354040283529160200191611763565b820191906000526020600020905b81548152906001019060200180831161174657829003601f168201915b505050505081565b6000546001600160a01b031633146117955760405162461bcd60e51b815260040161058a906127db565b6112de8161196e565b6000546001600160a01b031633146117c85760405162461bcd60e51b815260040161058a906127db565b6001600160a01b03811661182d5760405162461bcd60e51b815260206004820152602660248201527f4f776e61626c653a206e6577206f776e657220697320746865207a65726f206160448201526564647265737360d01b606482015260840161058a565b6112de81611ca4565b61184082826113f7565b6105525760008281526001602081815260408084206001600160a01b0386168086529252808420805460ff19169093179092559051339285917f2f8788117e7eff1d82e926ec794901d17c78024a50270940304540a733656f0d9190a45050565b60006113f0836001600160a01b038416611e09565b60006001600160e01b03198216635a05180f60e01b1480610542575061054282611e58565b6118f3600080516020612948833981519152336113f7565b61190f5760405162461bcd60e51b815260040161058a906124e9565b600380546001600160a01b0319166001600160a01b0383811691821790925560408051928516835260208301919091527ff6515f2a6d531f16723c1e578303b7d74152bf8c0fa3bee828700a3d4706da8d910160405180910390a15050565b600680546001600160a01b0319166001600160a01b0383169081179091556040519081527f6a18b90af8b2ae0add67d0ae89a6972d279fd5888cd58c820f581fa70f2d54bd906020015b60405180910390a150565b600780546001600160a01b0319166001600160a01b0383169081179091556040519081527f7869e3c19f5ec29481a8433791a06441db7b22cd85336da47df97fd7b686ba2a906020016119b8565b600880546001600160a01b0319166001600160a01b0383169081179091556040519081527f8eabd18158736228e0bcd01444e967ae9262cdb0e8a88fb154542a13f701bf7b906020016119b8565b611a77600080516020612948833981519152336113f7565b611a935760405162461bcd60e51b815260040161058a906124e9565b600380546001600160a01b03191690556040517f9a9a74cf290a994f69a718e8557deb1dd65135268f40e660cecddf675f5dd51490600090a1565b611ad882826113f7565b61055257611af0816001600160a01b03166014611e8d565b611afb836020611e8d565b604051602001611b0c92919061286f565b60408051601f198184030181529082905262461bcd60e51b825261058a916004016122e6565b611b3c8282611836565b60008281526002602052604090206105eb90826118a1565b611b5e8282612029565b60008281526002602052604090206105eb9082612090565b611b8e600080516020612948833981519152336113f7565b611baa5760405162461bcd60e51b815260040161058a906124e9565b600380546001600160a01b0319166001600160a01b038316179055611bdd60008051602061294883398151915282610717565b611bf5600080516020612948833981519152336116b6565b6040516001600160a01b03821681527f8eb47098f9568be754f51d21a870c8091ee0242cf97418db00927326d0e6ffcf906020016119b8565b611c46600080516020612948833981519152336113f7565b611c625760405162461bcd60e51b815260040161058a906124e9565b611c6b8161179e565b6040516001600160a01b03821681527ff2addf7f813887cf0fdd82b58fcc379ab2301e95c90b41a8cf2e5401914689c9906020016119b8565b600080546001600160a01b038381166001600160a01b0319831681178455604051919092169283917f8be0079c531659141344cd1fd0a4f28419497f9722a3daafe3b4186f6b6457e09190a35050565b611d0c600080516020612948833981519152336113f7565b611d285760405162461bcd60e51b815260040161058a906124e9565b600380546001600160a01b0319166001600160a01b0383169081179091556040519081527f89c66952b48f3e96bf1d8ba1b63189520fd988a6979b8b740bd5c5d8dc53e205906020016119b8565b60006113f083836120a5565b611d9a600080516020612948833981519152336113f7565b611db65760405162461bcd60e51b815260040161058a906124e9565b600380546001600160a01b03191690556040516001600160a01b03821681527f85a56ff958486f55dd742819603a46ba6233d3b24e6715f9cd5fd2ef6425d680906020016119b8565b6000610542825490565b6000818152600183016020526040812054611e5057508154600181810184556000848152602080822090930184905584548482528286019093526040902091909155610542565b506000610542565b60006001600160e01b03198216637965db0b60e01b148061054257506301ffc9a760e01b6001600160e01b0319831614610542565b60606000611e9c8360026128e4565b611ea7906002612826565b67ffffffffffffffff811115611ebf57611ebf6125b6565b6040519080825280601f01601f191660200182016040528015611ee9576020820181803683370190505b509050600360fc1b81600081518110611f0457611f04612859565b60200101906001600160f81b031916908160001a905350600f60fb1b81600181518110611f3357611f33612859565b60200101906001600160f81b031916908160001a9053506000611f578460026128e4565b611f62906001612826565b90505b6001811115611fda576f181899199a1a9b1b9c1cb0b131b232b360811b85600f1660108110611f9657611f96612859565b1a60f81b828281518110611fac57611fac612859565b60200101906001600160f81b031916908160001a90535060049490941c93611fd381612903565b9050611f65565b5083156113f05760405162461bcd60e51b815260206004820181905260248201527f537472696e67733a20686578206c656e67746820696e73756666696369656e74604482015260640161058a565b61203382826113f7565b156105525760008281526001602090815260408083206001600160a01b0385168085529252808320805460ff1916905551339285917ff6391f5c32d9c69d2a47ea670b442974b53935d1edc7fd64eb21e047a839171b9190a45050565b60006113f0836001600160a01b0384166120cf565b60008260000182815481106120bc576120bc612859565b9060005260206000200154905092915050565b600081815260018301602052604081205480156121b85760006120f360018361291a565b85549091506000906121079060019061291a565b905081811461216c57600086600001828154811061212757612127612859565b906000526020600020015490508087600001848154811061214a5761214a612859565b6000918252602080832090910192909255918252600188019052604090208390555b855486908061217d5761217d612931565b600190038181906000526020600020016000905590558560010160008681526020019081526020016000206000905560019350505050610542565b6000915050610542565b6000602082840312156121d457600080fd5b81356001600160e01b0319811681146113f057600080fd5b6001600160a01b03811681146112de57600080fd5b6000806040838503121561221457600080fd5b823561221f816121ec565b9150602083013561222f816121ec565b809150509250929050565b80151581146112de57600080fd5b60008060006060848603121561225d57600080fd5b83359250602084013561226f816121ec565b9150604084013561227f8161223a565b809150509250925092565b60005b838110156122a557818101518382015260200161228d565b838111156122b4576000848401525b50505050565b600081518084526122d281602086016020860161228a565b601f01601f19169290920160200192915050565b6020815260006113f060208301846122ba565b60006020828403121561230b57600080fd5b5035919050565b6000806040838503121561232557600080fd5b82359150602083013561222f816121ec565b634e487b7160e01b600052602160045260246000fd5b600581106112de57634e487b7160e01b600052602160045260246000fd5b6123748161234d565b9052565b602081526123926020820183516001600160a01b03169052565b602082015160408201526040820151606082015260608201516080820152608082015160a082015260a082015160c0820152600060c08301516123d860e084018261236b565b5060e083015161010083810191909152830151610120808401919091528301516101408084019190915283015161018061016080850182905261241f6101a08601846122ba565b95015115159301929092525090919050565b60006020828403121561244357600080fd5b81356113f0816121ec565b6000806040838503121561246157600080fd5b50508035926020909101359150565b60008060006060848603121561248557600080fd5b8335612490816121ec565b95602085013595506040909401359392505050565b6020808252825182820181905260009190848201906040850190845b818110156124dd578351835292840192918401916001016124c1565b50909695505050505050565b6020808252603b908201527f43726f7373436f6e74726163744d616e4c697374656e65723a2074686520636160408201527f6c6c6572206d7573742068617665204d414e414745525f524f4c450000000000606082015260800190565b6000825161255881846020870161228a565b9190910192915050565b600181811c9082168061257657607f821691505b6020821081141561259757634e487b7160e01b600052602260045260246000fd5b50919050565b6000602082840312156125af57600080fd5b5051919050565b634e487b7160e01b600052604160045260246000fd5b60405160a0810167ffffffffffffffff811182821017156125ef576125ef6125b6565b60405290565b600082601f83011261260657600080fd5b815167ffffffffffffffff80821115612621576126216125b6565b604051601f8301601f19908116603f01168101908282118183101715612649576126496125b6565b8160405283815286602085880101111561266257600080fd5b61267384602083016020890161228a565b9695505050505050565b60006020828403121561268f57600080fd5b815167ffffffffffffffff8111156126a657600080fd5b6126b2848285016125f5565b949350505050565b8381528260208201526060604082015260006126d960608301846122ba565b95945050505050565b6000602082840312156126f457600080fd5b815167ffffffffffffffff8082111561270c57600080fd5b9083019060a0828603121561272057600080fd5b6127286125cc565b82516004811061273757600080fd5b81526020838101519082015260408301518281111561275557600080fd5b612761878286016125f5565b60408301525060608301516060820152608083015192506127818361223a565b6080810192909252509392505050565b838152606081016127a18461234d565b8360208301526127b08361234d565b826040830152949350505050565b6000602082840312156127d057600080fd5b81516113f0816121ec565b6020808252818101527f4f776e61626c653a2063616c6c6572206973206e6f7420746865206f776e6572604082015260600190565b634e487b7160e01b600052601160045260246000fd5b6000821982111561283957612839612810565b500190565b600060001982141561285257612852612810565b5060010190565b634e487b7160e01b600052603260045260246000fd5b7f416363657373436f6e74726f6c3a206163636f756e74200000000000000000008152600083516128a781601785016020880161228a565b7001034b99036b4b9b9b4b733903937b6329607d1b60179184019182015283516128d881602884016020880161228a565b01602801949350505050565b60008160001904831182151516156128fe576128fe612810565b500290565b60008161291257612912612810565b506000190190565b60008282101561292c5761292c612810565b500390565b634e487b7160e01b600052603160045260246000fdfe241ecf16d79d0f8dbfb92cbc07fe17840425976cf0667f022fe9877caa831b08a26469706673582212205f1f7cc11490ea12508ad47ccdc8a8a4f5608606841364dc346a0a52f81da13d64736f6c63430008090033",
  "immutableReferences": {},
  "source": "// SPDX-License-Identifier: MIT\npragma solidity ^0.8;\n\nimport \"@openzeppelin/contracts/access/Ownable.sol\";\nimport \"./FireZardNFT.sol\";\nimport \"./StatsView.sol\";\nimport \"./DragonStats.sol\";\nimport \"./CrossContractManListener.sol\";\nimport {Util} from \"./Util.sol\";\n\ncontract DragonCardView is CrossContractManListener{\n    string  public contract_name = Util.DRAGON_CARD_VIEW_CONTRACT_NAME;\n    bytes32 public contract_id = Util.DRAGON_CARD_VIEW_CONTRACT_ID;\n\n    address public\tviewer_addr;\n    address public\tNFT_addr;\n    address public\tdragon_stats_addr;\n\n    bytes32 public constant VERSION=keccak256(abi.encodePacked('DragonCard-v1.2'));\n\n    struct DragonStatsView{\n\taddress owner;\n\tuint256 stacked;\n\n\tbytes32 nft_type;\n\tbytes32 version;\n\n\tuint256 rarity;\n\tuint256 health;\n\tUtil.CardType card_type;\n\tuint256 attack;\n\tuint256 defense;\n\tuint256 character;\n\tstring  character_name;\n\tbool    card_claimed;\n    }\n\n/*    constructor(address viewer, address nft_container, address dragon_stats){\n\tviewer_addr = viewer;\n\tNFT_addr = nft_container;\n\tdragon_stats_addr = dragon_stats;\n    }*/\n\n    function getName() view external returns(string memory) {\n\treturn contract_name;\n    }\n\n    function getId() view external returns(bytes32) {\n\treturn contract_id;\n    }\n\n    function onListenAdded(bytes32 hname, address contractInstance, bool isNew) external onlyManager {\n\tif(hname == Util.STATS_VIEW_CONTRACT_ID){\n\t    _linkViewer(contractInstance);\n\t    return;\n\t}\n\tif(hname == Util.NFT_CONTRACT_ID){\n\t    _linkNFT(contractInstance);\n\t    return;\n\t}\n\tif(hname == Util.DRAGON_STATS_CONTRACT_ID){\n\t    _linkStatsLib(contractInstance);\n\t    return;\n\t}\n    }\n\n    function onListenRemoved(bytes32 hname) external onlyManager {\n\tif(hname == Util.STATS_VIEW_CONTRACT_ID){\n\t    _linkViewer(address(0));\n\t    return;\n\t}\n\tif(hname == Util.NFT_CONTRACT_ID){\n\t    _linkNFT(address(0));\n\t    return;\n\t}\n\tif(hname == Util.DRAGON_STATS_CONTRACT_ID){\n\t    _linkStatsLib(address(0));\n\t    return;\n\t}\n    }\n\n    function _linkViewer(address viewer) internal {\n        viewer_addr = viewer;\n        emit ViewLink(viewer);\n    }\n\n    function _linkNFT(address nft_container) internal {\n        NFT_addr = nft_container;\n        emit NFTLink(nft_container);\n    }\n\n    function _linkStatsLib(address dragon_stats) internal {\n        dragon_stats_addr = dragon_stats;\n        emit StatsLibLink(dragon_stats);\n    }\n\n\n    /**\n     * @notice Sets link to Tag Storage smart contract\n    **/\n    function linkViewer(address viewer) public virtual onlyOwner {\n\t_linkViewer(viewer);\n    }\n\n    /**\n     * @notice Sets link to ERC1155 NFT smart contract\n    **/\n    function linkNFT(address nft_container) public virtual onlyOwner {\n\t_linkNFT(nft_container);\n    }\n\n    /**\n     * @notice Sets link to the Stats deriving library\n    **/\n    function linkStatsLib(address dragon_stats) public virtual onlyOwner {\n\t_linkStatsLib(dragon_stats);\n    }\n\n    function getInventorySize(address user) public view returns(uint256){\n\treturn FireZardNFT(NFT_addr).balanceOf(user);\n    }\n\n    function getInventorySlots(address user, uint256 startIndex, uint256 count) public view returns(uint256[] memory){\n\tuint256[] memory slots = new uint256[](count);\n\tuint j=0;\n\tfor(uint i=startIndex;i<startIndex+count;i++)\n\t    slots[j++]=FireZardNFT(NFT_addr).tokenOfOwnerByIndex(user,i);\n\treturn slots;\n    }\n\n    function getView(uint256 id) public view returns (DragonStatsView memory) {\n\tbytes32 nft_type = FireZardNFT(NFT_addr).typeOf(id);\n//\tstring memory\trarity\t\t= DragonStats(dragon_stats_addr).RARITY_STR();\n//\tstring memory\trarity_override = DragonStats(dragon_stats_addr).RARITY_OVERRIDE_STR();\n//\tstring memory\thealth  = DragonStats(dragon_stats_addr).HEALTH_STR();\n//\tstring memory\ttype_s  = DragonStats(dragon_stats_addr).TYPE_STR();\n//\tstring memory\tattack  = DragonStats(dragon_stats_addr).ATTACK_STR();\n//\tstring memory\tdefense = DragonStats(dragon_stats_addr).DEFENSE_STR();\n\tUtil.CardRarity rarity_val;\n\tif(StatsView(viewer_addr).getStat(nft_type, id, DragonStats(dragon_stats_addr).RARITY_OVERRIDE_STR()).bool_val)\n\t    rarity_val = Util.CardRarity.Uncommon;\n\telse\n\t    rarity_val = Util.CardRarity(StatsView(viewer_addr).getStat(nft_type, id, DragonStats(dragon_stats_addr).RARITY_STR()).int_val);\n\tUtil.CardType card_type = Util.CardType(StatsView(viewer_addr).getStat(nft_type, id, DragonStats(dragon_stats_addr).TYPE_STR()).int_val);\n\tuint256 character = DragonStats(dragon_stats_addr).deriveCharacter(id, rarity_val, card_type);\n//\tstring memory character_name = DragonStats(dragon_stats_addr).deriveCharacterName(character);\n\treturn DragonStatsView(\n\t    FireZardNFT(NFT_addr).ownerOf(id),\n\t    FireZardNFT(NFT_addr).totalSupply(id),\n\t    nft_type,\n\t    VERSION,\n\t    uint256(rarity_val),\n\t    StatsView(viewer_addr).getStat(nft_type, id, DragonStats(dragon_stats_addr).HEALTH_STR()).int_val,\n\t    card_type,\n\t    StatsView(viewer_addr).getStat(nft_type, id, DragonStats(dragon_stats_addr).ATTACK_STR()).int_val,\n\t    StatsView(viewer_addr).getStat(nft_type, id, DragonStats(dragon_stats_addr).DEFENSE_STR()).int_val,\n\t    character,\n\t    DragonStats(dragon_stats_addr).deriveCharacterName(character),\n\t    StatsView(viewer_addr).getStat(nft_type, id, DragonStats(dragon_stats_addr).CARD_CLAIMED_STR()).bool_val\n\t);\n    }\n\n    event\tViewLink(address tag_addr);\n    event\tNFTLink(address nft_addr);\n    event\tStatsLibLink(address dragon_stats);\n}\n",
  "sourcePath": "/home/vrogojin/Projects/FireZard/nft/contracts/DragonCardView.sol",
  "compiler": {
    "name": "solc",
    "version": "0.8.9+commit.e5eed63a.Emscripten.clang"
  },
  "schemaVersion": "3.4.3",
  "updatedAt": "2022-02-10T17:25:45.421Z",
  "devdoc": {
    "kind": "dev",
    "methods": {
      "getRoleAdmin(bytes32)": {
        "details": "Returns the admin role that controls `role`. See {grantRole} and {revokeRole}. To change a role's admin, use {_setRoleAdmin}."
      },
      "getRoleMember(bytes32,uint256)": {
        "details": "Returns one of the accounts that have `role`. `index` must be a value between 0 and {getRoleMemberCount}, non-inclusive. Role bearers are not sorted in any particular way, and their ordering may change at any point. WARNING: When using {getRoleMember} and {getRoleMemberCount}, make sure you perform all queries on the same block. See the following https://forum.openzeppelin.com/t/iterating-over-elements-on-enumerableset-in-openzeppelin-contracts/2296[forum post] for more information."
      },
      "getRoleMemberCount(bytes32)": {
        "details": "Returns the number of accounts that have `role`. Can be used together with {getRoleMember} to enumerate all bearers of a role."
      },
      "grantRole(bytes32,address)": {
        "details": "Grants `role` to `account`. If `account` had not been already granted `role`, emits a {RoleGranted} event. Requirements: - the caller must have ``role``'s admin role."
      },
      "hasRole(bytes32,address)": {
        "details": "Returns `true` if `account` has been granted `role`."
      },
      "owner()": {
        "details": "Returns the address of the current owner."
      },
      "renounceOwnership()": {
        "details": "Leaves the contract without owner. It will not be possible to call `onlyOwner` functions anymore. Can only be called by the current owner. NOTE: Renouncing ownership will leave the contract without an owner, thereby removing any functionality that is only available to the owner."
      },
      "renounceRole(bytes32,address)": {
        "details": "Revokes `role` from the calling account. Roles are often managed via {grantRole} and {revokeRole}: this function's purpose is to provide a mechanism for accounts to lose their privileges if they are compromised (such as when a trusted device is misplaced). If the calling account had been revoked `role`, emits a {RoleRevoked} event. Requirements: - the caller must be `account`."
      },
      "revokeRole(bytes32,address)": {
        "details": "Revokes `role` from `account`. If `account` had been granted `role`, emits a {RoleRevoked} event. Requirements: - the caller must have ``role``'s admin role."
      },
      "supportsInterface(bytes4)": {
        "details": "See {IERC165-supportsInterface}."
      },
      "transferOwnership(address)": {
        "details": "Transfers ownership of the contract to a new account (`newOwner`). Can only be called by the current owner."
      }
    },
    "version": 1
  },
  "userdoc": {
    "kind": "user",
    "methods": {
      "linkNFT(address)": {
        "notice": "Sets link to ERC1155 NFT smart contract*"
      },
      "linkStatsLib(address)": {
        "notice": "Sets link to the Stats deriving library*"
      },
      "linkViewer(address)": {
        "notice": "Sets link to Tag Storage smart contract*"
      }
    },
    "version": 1
  }
}