{
  "contractName": "DragonStats",
  "abi": [
    {
      "anonymous": false,
      "inputs": [
        {
          "indexed": false,
          "internalType": "address",
          "name": "_manager",
          "type": "address"
        }
      ],
      "name": "ContractAdded",
      "type": "event"
    },
    {
      "anonymous": false,
      "inputs": [
        {
          "indexed": false,
          "internalType": "address",
          "name": "newManager",
          "type": "address"
        }
      ],
      "name": "ContractManagerSwitch",
      "type": "event"
    },
    {
      "anonymous": false,
      "inputs": [
        {
          "indexed": false,
          "internalType": "address",
          "name": "newOwner",
          "type": "address"
        }
      ],
      "name": "ContractOwnershipUpdate",
      "type": "event"
    },
    {
      "anonymous": false,
      "inputs": [],
      "name": "ContractRemoved",
      "type": "event"
    },
    {
      "anonymous": false,
      "inputs": [
        {
          "indexed": false,
          "internalType": "address",
          "name": "contractInstance",
          "type": "address"
        }
      ],
      "name": "ContractReplaced",
      "type": "event"
    },
    {
      "anonymous": false,
      "inputs": [
        {
          "indexed": false,
          "internalType": "address",
          "name": "oldInstance",
          "type": "address"
        },
        {
          "indexed": false,
          "internalType": "address",
          "name": "_manager",
          "type": "address"
        }
      ],
      "name": "ContractUpdated",
      "type": "event"
    },
    {
      "anonymous": false,
      "inputs": [
        {
          "indexed": true,
          "internalType": "address",
          "name": "previousOwner",
          "type": "address"
        },
        {
          "indexed": true,
          "internalType": "address",
          "name": "newOwner",
          "type": "address"
        }
      ],
      "name": "OwnershipTransferred",
      "type": "event"
    },
    {
      "anonymous": false,
      "inputs": [
        {
          "indexed": true,
          "internalType": "bytes32",
          "name": "role",
          "type": "bytes32"
        },
        {
          "indexed": true,
          "internalType": "bytes32",
          "name": "previousAdminRole",
          "type": "bytes32"
        },
        {
          "indexed": true,
          "internalType": "bytes32",
          "name": "newAdminRole",
          "type": "bytes32"
        }
      ],
      "name": "RoleAdminChanged",
      "type": "event"
    },
    {
      "anonymous": false,
      "inputs": [
        {
          "indexed": true,
          "internalType": "bytes32",
          "name": "role",
          "type": "bytes32"
        },
        {
          "indexed": true,
          "internalType": "address",
          "name": "account",
          "type": "address"
        },
        {
          "indexed": true,
          "internalType": "address",
          "name": "sender",
          "type": "address"
        }
      ],
      "name": "RoleGranted",
      "type": "event"
    },
    {
      "anonymous": false,
      "inputs": [
        {
          "indexed": true,
          "internalType": "bytes32",
          "name": "role",
          "type": "bytes32"
        },
        {
          "indexed": true,
          "internalType": "address",
          "name": "account",
          "type": "address"
        },
        {
          "indexed": true,
          "internalType": "address",
          "name": "sender",
          "type": "address"
        }
      ],
      "name": "RoleRevoked",
      "type": "event"
    },
    {
      "anonymous": false,
      "inputs": [
        {
          "indexed": false,
          "internalType": "address",
          "name": "_statsDistrib",
          "type": "address"
        }
      ],
      "name": "StatsDistribLink",
      "type": "event"
    },
    {
      "inputs": [],
      "name": "ATTACK_STR",
      "outputs": [
        {
          "internalType": "string",
          "name": "",
          "type": "string"
        }
      ],
      "stateMutability": "view",
      "type": "function",
      "constant": true
    },
    {
      "inputs": [],
      "name": "CARD_CLAIMED_STR",
      "outputs": [
        {
          "internalType": "string",
          "name": "",
          "type": "string"
        }
      ],
      "stateMutability": "view",
      "type": "function",
      "constant": true
    },
    {
      "inputs": [],
      "name": "CHARACTER_AQAZARD_STR",
      "outputs": [
        {
          "internalType": "string",
          "name": "",
          "type": "string"
        }
      ],
      "stateMutability": "view",
      "type": "function",
      "constant": true
    },
    {
      "inputs": [],
      "name": "CHARACTER_BLIZARD_STR",
      "outputs": [
        {
          "internalType": "string",
          "name": "",
          "type": "string"
        }
      ],
      "stateMutability": "view",
      "type": "function",
      "constant": true
    },
    {
      "inputs": [],
      "name": "CHARACTER_BLOSZARD_STR",
      "outputs": [
        {
          "internalType": "string",
          "name": "",
          "type": "string"
        }
      ],
      "stateMutability": "view",
      "type": "function",
      "constant": true
    },
    {
      "inputs": [],
      "name": "CHARACTER_CHILLAZARD_STR",
      "outputs": [
        {
          "internalType": "string",
          "name": "",
          "type": "string"
        }
      ],
      "stateMutability": "view",
      "type": "function",
      "constant": true
    },
    {
      "inputs": [],
      "name": "CHARACTER_COOLBRYO_STR",
      "outputs": [
        {
          "internalType": "string",
          "name": "",
          "type": "string"
        }
      ],
      "stateMutability": "view",
      "type": "function",
      "constant": true
    },
    {
      "inputs": [],
      "name": "CHARACTER_DRIPLAZARD_STR",
      "outputs": [
        {
          "internalType": "string",
          "name": "",
          "type": "string"
        }
      ],
      "stateMutability": "view",
      "type": "function",
      "constant": true
    },
    {
      "inputs": [],
      "name": "CHARACTER_EMBERZARD_STR",
      "outputs": [
        {
          "internalType": "string",
          "name": "",
          "type": "string"
        }
      ],
      "stateMutability": "view",
      "type": "function",
      "constant": true
    },
    {
      "inputs": [],
      "name": "CHARACTER_FIREZARD_STR",
      "outputs": [
        {
          "internalType": "string",
          "name": "",
          "type": "string"
        }
      ],
      "stateMutability": "view",
      "type": "function",
      "constant": true
    },
    {
      "inputs": [],
      "name": "CHARACTER_FLAMEBRYO_STR",
      "outputs": [
        {
          "internalType": "string",
          "name": "",
          "type": "string"
        }
      ],
      "stateMutability": "view",
      "type": "function",
      "constant": true
    },
    {
      "inputs": [],
      "name": "CHARACTER_FLAROZARD_STR",
      "outputs": [
        {
          "internalType": "string",
          "name": "",
          "type": "string"
        }
      ],
      "stateMutability": "view",
      "type": "function",
      "constant": true
    },
    {
      "inputs": [],
      "name": "CHARACTER_FLORAZARD_STR",
      "outputs": [
        {
          "internalType": "string",
          "name": "",
          "type": "string"
        }
      ],
      "stateMutability": "view",
      "type": "function",
      "constant": true
    },
    {
      "inputs": [],
      "name": "CHARACTER_FROZARD_STR",
      "outputs": [
        {
          "internalType": "string",
          "name": "",
          "type": "string"
        }
      ],
      "stateMutability": "view",
      "type": "function",
      "constant": true
    },
    {
      "inputs": [],
      "name": "CHARACTER_HYDRAZARD_STR",
      "outputs": [
        {
          "internalType": "string",
          "name": "",
          "type": "string"
        }
      ],
      "stateMutability": "view",
      "type": "function",
      "constant": true
    },
    {
      "inputs": [],
      "name": "CHARACTER_LECTRAZARD_STR",
      "outputs": [
        {
          "internalType": "string",
          "name": "",
          "type": "string"
        }
      ],
      "stateMutability": "view",
      "type": "function",
      "constant": true
    },
    {
      "inputs": [
        {
          "internalType": "uint256",
          "name": "",
          "type": "uint256"
        }
      ],
      "name": "CHARACTER_NAMES",
      "outputs": [
        {
          "internalType": "string",
          "name": "",
          "type": "string"
        }
      ],
      "stateMutability": "view",
      "type": "function",
      "constant": true
    },
    {
      "inputs": [],
      "name": "CHARACTER_NAME_STR",
      "outputs": [
        {
          "internalType": "string",
          "name": "",
          "type": "string"
        }
      ],
      "stateMutability": "view",
      "type": "function",
      "constant": true
    },
    {
      "inputs": [],
      "name": "CHARACTER_SEEDBRYO_STR",
      "outputs": [
        {
          "internalType": "string",
          "name": "",
          "type": "string"
        }
      ],
      "stateMutability": "view",
      "type": "function",
      "constant": true
    },
    {
      "inputs": [],
      "name": "CHARACTER_SPARKYZARD_STR",
      "outputs": [
        {
          "internalType": "string",
          "name": "",
          "type": "string"
        }
      ],
      "stateMutability": "view",
      "type": "function",
      "constant": true
    },
    {
      "inputs": [],
      "name": "CHARACTER_SPLASH_STR",
      "outputs": [
        {
          "internalType": "string",
          "name": "",
          "type": "string"
        }
      ],
      "stateMutability": "view",
      "type": "function",
      "constant": true
    },
    {
      "inputs": [],
      "name": "CHARACTER_SPROUTYZARD_STR",
      "outputs": [
        {
          "internalType": "string",
          "name": "",
          "type": "string"
        }
      ],
      "stateMutability": "view",
      "type": "function",
      "constant": true
    },
    {
      "inputs": [],
      "name": "CHARACTER_STR",
      "outputs": [
        {
          "internalType": "string",
          "name": "",
          "type": "string"
        }
      ],
      "stateMutability": "view",
      "type": "function",
      "constant": true
    },
    {
      "inputs": [],
      "name": "CHARACTER_VOLZARD_STR",
      "outputs": [
        {
          "internalType": "string",
          "name": "",
          "type": "string"
        }
      ],
      "stateMutability": "view",
      "type": "function",
      "constant": true
    },
    {
      "inputs": [],
      "name": "CHARACTER_ZAPBRYO_STR",
      "outputs": [
        {
          "internalType": "string",
          "name": "",
          "type": "string"
        }
      ],
      "stateMutability": "view",
      "type": "function",
      "constant": true
    },
    {
      "inputs": [],
      "name": "DEFAULT_ADMIN_ROLE",
      "outputs": [
        {
          "internalType": "bytes32",
          "name": "",
          "type": "bytes32"
        }
      ],
      "stateMutability": "view",
      "type": "function",
      "constant": true
    },
    {
      "inputs": [],
      "name": "DEFENSE_STR",
      "outputs": [
        {
          "internalType": "string",
          "name": "",
          "type": "string"
        }
      ],
      "stateMutability": "view",
      "type": "function",
      "constant": true
    },
    {
      "inputs": [],
      "name": "HEALTH_STR",
      "outputs": [
        {
          "internalType": "string",
          "name": "",
          "type": "string"
        }
      ],
      "stateMutability": "view",
      "type": "function",
      "constant": true
    },
    {
      "inputs": [],
      "name": "H_ATTACK_STR",
      "outputs": [
        {
          "internalType": "bytes32",
          "name": "",
          "type": "bytes32"
        }
      ],
      "stateMutability": "view",
      "type": "function",
      "constant": true
    },
    {
      "inputs": [],
      "name": "H_CARD_CLAIMED_STR",
      "outputs": [
        {
          "internalType": "bytes32",
          "name": "",
          "type": "bytes32"
        }
      ],
      "stateMutability": "view",
      "type": "function",
      "constant": true
    },
    {
      "inputs": [],
      "name": "H_CHARACTER_NAME_STR",
      "outputs": [
        {
          "internalType": "bytes32",
          "name": "",
          "type": "bytes32"
        }
      ],
      "stateMutability": "view",
      "type": "function",
      "constant": true
    },
    {
      "inputs": [],
      "name": "H_CHARACTER_STR",
      "outputs": [
        {
          "internalType": "bytes32",
          "name": "",
          "type": "bytes32"
        }
      ],
      "stateMutability": "view",
      "type": "function",
      "constant": true
    },
    {
      "inputs": [],
      "name": "H_DEFENSE_STR",
      "outputs": [
        {
          "internalType": "bytes32",
          "name": "",
          "type": "bytes32"
        }
      ],
      "stateMutability": "view",
      "type": "function",
      "constant": true
    },
    {
      "inputs": [],
      "name": "H_HEALTH_STR",
      "outputs": [
        {
          "internalType": "bytes32",
          "name": "",
          "type": "bytes32"
        }
      ],
      "stateMutability": "view",
      "type": "function",
      "constant": true
    },
    {
      "inputs": [],
      "name": "H_RARITY_OVERRIDE_STR",
      "outputs": [
        {
          "internalType": "bytes32",
          "name": "",
          "type": "bytes32"
        }
      ],
      "stateMutability": "view",
      "type": "function",
      "constant": true
    },
    {
      "inputs": [],
      "name": "H_RARITY_STR",
      "outputs": [
        {
          "internalType": "bytes32",
          "name": "",
          "type": "bytes32"
        }
      ],
      "stateMutability": "view",
      "type": "function",
      "constant": true
    },
    {
      "inputs": [],
      "name": "H_TYPE_STR",
      "outputs": [
        {
          "internalType": "bytes32",
          "name": "",
          "type": "bytes32"
        }
      ],
      "stateMutability": "view",
      "type": "function",
      "constant": true
    },
    {
      "inputs": [],
      "name": "MANAGER_ROLE",
      "outputs": [
        {
          "internalType": "bytes32",
          "name": "",
          "type": "bytes32"
        }
      ],
      "stateMutability": "view",
      "type": "function",
      "constant": true
    },
    {
      "inputs": [],
      "name": "RARITY_OVERRIDE_STR",
      "outputs": [
        {
          "internalType": "string",
          "name": "",
          "type": "string"
        }
      ],
      "stateMutability": "view",
      "type": "function",
      "constant": true
    },
    {
      "inputs": [],
      "name": "RARITY_STR",
      "outputs": [
        {
          "internalType": "string",
          "name": "",
          "type": "string"
        }
      ],
      "stateMutability": "view",
      "type": "function",
      "constant": true
    },
    {
      "inputs": [],
      "name": "TYPE_STR",
      "outputs": [
        {
          "internalType": "string",
          "name": "",
          "type": "string"
        }
      ],
      "stateMutability": "view",
      "type": "function",
      "constant": true
    },
    {
      "inputs": [],
      "name": "VERSION",
      "outputs": [
        {
          "internalType": "bytes32",
          "name": "",
          "type": "bytes32"
        }
      ],
      "stateMutability": "view",
      "type": "function",
      "constant": true
    },
    {
      "inputs": [],
      "name": "contract_id",
      "outputs": [
        {
          "internalType": "bytes32",
          "name": "",
          "type": "bytes32"
        }
      ],
      "stateMutability": "view",
      "type": "function",
      "constant": true
    },
    {
      "inputs": [],
      "name": "contract_name",
      "outputs": [
        {
          "internalType": "string",
          "name": "",
          "type": "string"
        }
      ],
      "stateMutability": "view",
      "type": "function",
      "constant": true
    },
    {
      "inputs": [
        {
          "internalType": "bytes32",
          "name": "role",
          "type": "bytes32"
        }
      ],
      "name": "getRoleAdmin",
      "outputs": [
        {
          "internalType": "bytes32",
          "name": "",
          "type": "bytes32"
        }
      ],
      "stateMutability": "view",
      "type": "function",
      "constant": true
    },
    {
      "inputs": [
        {
          "internalType": "bytes32",
          "name": "role",
          "type": "bytes32"
        },
        {
          "internalType": "uint256",
          "name": "index",
          "type": "uint256"
        }
      ],
      "name": "getRoleMember",
      "outputs": [
        {
          "internalType": "address",
          "name": "",
          "type": "address"
        }
      ],
      "stateMutability": "view",
      "type": "function",
      "constant": true
    },
    {
      "inputs": [
        {
          "internalType": "bytes32",
          "name": "role",
          "type": "bytes32"
        }
      ],
      "name": "getRoleMemberCount",
      "outputs": [
        {
          "internalType": "uint256",
          "name": "",
          "type": "uint256"
        }
      ],
      "stateMutability": "view",
      "type": "function",
      "constant": true
    },
    {
      "inputs": [
        {
          "internalType": "bytes32",
          "name": "role",
          "type": "bytes32"
        },
        {
          "internalType": "address",
          "name": "account",
          "type": "address"
        }
      ],
      "name": "grantRole",
      "outputs": [],
      "stateMutability": "nonpayable",
      "type": "function"
    },
    {
      "inputs": [
        {
          "internalType": "bytes32",
          "name": "role",
          "type": "bytes32"
        },
        {
          "internalType": "address",
          "name": "account",
          "type": "address"
        }
      ],
      "name": "hasRole",
      "outputs": [
        {
          "internalType": "bool",
          "name": "",
          "type": "bool"
        }
      ],
      "stateMutability": "view",
      "type": "function",
      "constant": true
    },
    {
      "inputs": [],
      "name": "manager",
      "outputs": [
        {
          "internalType": "address",
          "name": "",
          "type": "address"
        }
      ],
      "stateMutability": "view",
      "type": "function",
      "constant": true
    },
    {
      "inputs": [
        {
          "internalType": "address",
          "name": "_manager",
          "type": "address"
        }
      ],
      "name": "onAdd",
      "outputs": [],
      "stateMutability": "nonpayable",
      "type": "function"
    },
    {
      "inputs": [],
      "name": "onRemoved",
      "outputs": [],
      "stateMutability": "nonpayable",
      "type": "function"
    },
    {
      "inputs": [
        {
          "internalType": "address",
          "name": "newInstance",
          "type": "address"
        }
      ],
      "name": "onReplaced",
      "outputs": [],
      "stateMutability": "nonpayable",
      "type": "function"
    },
    {
      "inputs": [
        {
          "internalType": "address",
          "name": "oldInstance",
          "type": "address"
        },
        {
          "internalType": "address",
          "name": "_manager",
          "type": "address"
        }
      ],
      "name": "onUpdate",
      "outputs": [],
      "stateMutability": "nonpayable",
      "type": "function"
    },
    {
      "inputs": [],
      "name": "owner",
      "outputs": [
        {
          "internalType": "address",
          "name": "",
          "type": "address"
        }
      ],
      "stateMutability": "view",
      "type": "function",
      "constant": true
    },
    {
      "inputs": [],
      "name": "renounceOwnership",
      "outputs": [],
      "stateMutability": "nonpayable",
      "type": "function"
    },
    {
      "inputs": [
        {
          "internalType": "bytes32",
          "name": "role",
          "type": "bytes32"
        },
        {
          "internalType": "address",
          "name": "account",
          "type": "address"
        }
      ],
      "name": "renounceRole",
      "outputs": [],
      "stateMutability": "nonpayable",
      "type": "function"
    },
    {
      "inputs": [
        {
          "internalType": "bytes32",
          "name": "role",
          "type": "bytes32"
        },
        {
          "internalType": "address",
          "name": "account",
          "type": "address"
        }
      ],
      "name": "revokeRole",
      "outputs": [],
      "stateMutability": "nonpayable",
      "type": "function"
    },
    {
      "inputs": [],
      "name": "statsDistrib",
      "outputs": [
        {
          "internalType": "address",
          "name": "",
          "type": "address"
        }
      ],
      "stateMutability": "view",
      "type": "function",
      "constant": true
    },
    {
      "inputs": [
        {
          "internalType": "bytes4",
          "name": "interfaceId",
          "type": "bytes4"
        }
      ],
      "name": "supportsInterface",
      "outputs": [
        {
          "internalType": "bool",
          "name": "",
          "type": "bool"
        }
      ],
      "stateMutability": "view",
      "type": "function",
      "constant": true
    },
    {
      "inputs": [
        {
          "internalType": "address",
          "name": "newManager",
          "type": "address"
        }
      ],
      "name": "switchManager",
      "outputs": [],
      "stateMutability": "nonpayable",
      "type": "function"
    },
    {
      "inputs": [
        {
          "internalType": "address",
          "name": "newOwner",
          "type": "address"
        }
      ],
      "name": "transferOwnership",
      "outputs": [],
      "stateMutability": "nonpayable",
      "type": "function"
    },
    {
      "inputs": [
        {
          "internalType": "address",
          "name": "newOwner",
          "type": "address"
        }
      ],
      "name": "updateOwnership",
      "outputs": [],
      "stateMutability": "nonpayable",
      "type": "function"
    },
    {
      "inputs": [],
      "name": "getName",
      "outputs": [
        {
          "internalType": "string",
          "name": "",
          "type": "string"
        }
      ],
      "stateMutability": "view",
      "type": "function",
      "constant": true
    },
    {
      "inputs": [],
      "name": "getId",
      "outputs": [
        {
          "internalType": "bytes32",
          "name": "",
          "type": "bytes32"
        }
      ],
      "stateMutability": "view",
      "type": "function",
      "constant": true
    },
    {
      "inputs": [],
      "name": "tokenTypeCode",
      "outputs": [
        {
          "internalType": "bytes32",
          "name": "",
          "type": "bytes32"
        }
      ],
      "stateMutability": "pure",
      "type": "function",
      "constant": true
    },
    {
      "inputs": [
        {
          "internalType": "bytes32",
          "name": "hname",
          "type": "bytes32"
        },
        {
          "internalType": "address",
          "name": "contractInstance",
          "type": "address"
        },
        {
          "internalType": "bool",
          "name": "isNew",
          "type": "bool"
        }
      ],
      "name": "onListenAdded",
      "outputs": [],
      "stateMutability": "nonpayable",
      "type": "function"
    },
    {
      "inputs": [
        {
          "internalType": "bytes32",
          "name": "hname",
          "type": "bytes32"
        }
      ],
      "name": "onListenRemoved",
      "outputs": [],
      "stateMutability": "nonpayable",
      "type": "function"
    },
    {
      "inputs": [
        {
          "internalType": "address",
          "name": "_statsDistrib",
          "type": "address"
        }
      ],
      "name": "linkStatsDistrib",
      "outputs": [],
      "stateMutability": "nonpayable",
      "type": "function"
    },
    {
      "inputs": [
        {
          "internalType": "uint256",
          "name": "id",
          "type": "uint256"
        },
        {
          "internalType": "enum Util.CardRarity",
          "name": "rarity",
          "type": "uint8"
        },
        {
          "internalType": "enum Util.CardType",
          "name": "c_type",
          "type": "uint8"
        }
      ],
      "name": "deriveCharacter",
      "outputs": [
        {
          "internalType": "uint256",
          "name": "",
          "type": "uint256"
        }
      ],
      "stateMutability": "view",
      "type": "function",
      "constant": true
    },
    {
      "inputs": [
        {
          "internalType": "uint256",
          "name": "character",
          "type": "uint256"
        }
      ],
      "name": "deriveCharacterName",
      "outputs": [
        {
          "internalType": "string",
          "name": "",
          "type": "string"
        }
      ],
      "stateMutability": "view",
      "type": "function",
      "constant": true
    },
    {
      "inputs": [
        {
          "internalType": "bytes32",
          "name": "nft_type",
          "type": "bytes32"
        },
        {
          "internalType": "uint256",
          "name": "id",
          "type": "uint256"
        },
        {
          "internalType": "string",
          "name": "name",
          "type": "string"
        }
      ],
      "name": "getStatInt",
      "outputs": [
        {
          "internalType": "uint256",
          "name": "",
          "type": "uint256"
        }
      ],
      "stateMutability": "view",
      "type": "function",
      "constant": true
    },
    {
      "inputs": [
        {
          "internalType": "bytes32",
          "name": "nft_type",
          "type": "bytes32"
        },
        {
          "internalType": "uint256",
          "name": "id",
          "type": "uint256"
        },
        {
          "internalType": "string",
          "name": "name",
          "type": "string"
        }
      ],
      "name": "getStatString",
      "outputs": [
        {
          "internalType": "string",
          "name": "",
          "type": "string"
        }
      ],
      "stateMutability": "view",
      "type": "function",
      "constant": true
    },
    {
      "inputs": [
        {
          "internalType": "bytes32",
          "name": "nft_type",
          "type": "bytes32"
        },
        {
          "internalType": "uint256",
          "name": "id",
          "type": "uint256"
        },
        {
          "internalType": "string",
          "name": "name",
          "type": "string"
        }
      ],
      "name": "getStatByte32",
      "outputs": [
        {
          "internalType": "bytes32",
          "name": "",
          "type": "bytes32"
        }
      ],
      "stateMutability": "view",
      "type": "function",
      "constant": true
    },
    {
      "inputs": [
        {
          "internalType": "bytes32",
          "name": "nft_type",
          "type": "bytes32"
        },
        {
          "internalType": "uint256",
          "name": "id",
          "type": "uint256"
        },
        {
          "internalType": "string",
          "name": "name",
          "type": "string"
        }
      ],
      "name": "getStatBool",
      "outputs": [
        {
          "internalType": "bool",
          "name": "",
          "type": "bool"
        }
      ],
      "stateMutability": "view",
      "type": "function",
      "constant": true
    },
    {
      "inputs": [
        {
          "internalType": "bytes32",
          "name": "nft_type",
          "type": "bytes32"
        }
      ],
      "name": "stats",
      "outputs": [
        {
          "components": [
            {
              "internalType": "string",
              "name": "name",
              "type": "string"
            },
            {
              "internalType": "enum Util.StatType",
              "name": "statType",
              "type": "uint8"
            },
            {
              "internalType": "bool",
              "name": "is_mutable",
              "type": "bool"
            }
          ],
          "internalType": "struct Util.Stat[]",
          "name": "",
          "type": "tuple[]"
        }
      ],
      "stateMutability": "pure",
      "type": "function",
      "constant": true
    }
  ],
  "bytecode": "0x60c0604052600b60808190526a447261676f6e537461747360a81b60a09081526200002e916004919062000ca2565b506040518060400160405280600b81526020016a447261676f6e537461747360a81b81525060405160200162000065919062000e4e565b6040516020818303038152906040528051906020012060055560405180610820016040528060405180604001604052806008815260200167119a5c9956985c9960c21b815250815260200160405180604001604052806008815260200167119a5c9956985c9960c21b815250815260200160405180604001604052806009815260200168119b185c9bd6985c9960ba1b815250815260200160405180604001604052806009815260200168119b185c9bd6985c9960ba1b815250815260200160405180604001604052806009815260200168119b185c9bd6985c9960ba1b815250815260200160405180604001604052806009815260200168115b58995c96985c9960ba1b815250815260200160405180604001604052806009815260200168115b58995c96985c9960ba1b815250815260200160405180604001604052806009815260200168115b58995c96985c9960ba1b815250815260200160405180604001604052806009815260200168466c616d656272796f60b81b815250815260200160405180604001604052806009815260200168466c616d656272796f60b81b815250815260200160405180604001604052806009815260200168466c616d656272796f60b81b815250815260200160405180604001604052806009815260200168466c616d656272796f60b81b815250815260200160405180604001604052806009815260200168466c616d656272796f60b81b815250815260200160405180604001604052806007815260200166109b1a56985c9960ca1b815250815260200160405180604001604052806007815260200166109b1a56985c9960ca1b815250815260200160405180604001604052806007815260200166119c9bd6985c9960ca1b815250815260200160405180604001604052806007815260200166119c9bd6985c9960ca1b815250815260200160405180604001604052806007815260200166119c9bd6985c9960ca1b81525081526020016040518060400160405280600a81526020016910da1a5b1b1856985c9960b21b81525081526020016040518060400160405280600a81526020016910da1a5b1b1856985c9960b21b81525081526020016040518060400160405280600a81526020016910da1a5b1b1856985c9960b21b815250815260200160405180604001604052806008815260200167436f6f6c6272796f60c01b815250815260200160405180604001604052806008815260200167436f6f6c6272796f60c01b815250815260200160405180604001604052806008815260200167436f6f6c6272796f60c01b815250815260200160405180604001604052806008815260200167436f6f6c6272796f60c01b815250815260200160405180604001604052806008815260200167436f6f6c6272796f60c01b815250815260200160405180604001604052806009815260200168119b1bdc9856985c9960ba1b815250815260200160405180604001604052806009815260200168119b1bdc9856985c9960ba1b815250815260200160405180604001604052806008815260200167109b1bdcd6985c9960c21b815250815260200160405180604001604052806008815260200167109b1bdcd6985c9960c21b815250815260200160405180604001604052806008815260200167109b1bdcd6985c9960c21b81525081526020016040518060400160405280600b81526020016a14dc1c9bdd5d1e56985c9960aa1b81525081526020016040518060400160405280600b81526020016a14dc1c9bdd5d1e56985c9960aa1b81525081526020016040518060400160405280600b81526020016a14dc1c9bdd5d1e56985c9960aa1b815250815260200160405180604001604052806008815260200167536565646272796f60c01b815250815260200160405180604001604052806008815260200167536565646272796f60c01b815250815260200160405180604001604052806008815260200167536565646272796f60c01b815250815260200160405180604001604052806008815260200167536565646272796f60c01b815250815260200160405180604001604052806008815260200167536565646272796f60c01b81525081526020016040518060400160405280600a815260200169131958dd1c9856985c9960b21b81525081526020016040518060400160405280600a815260200169131958dd1c9856985c9960b21b815250815260200160405180604001604052806007815260200166159bdb16985c9960ca1b815250815260200160405180604001604052806007815260200166159bdb16985c9960ca1b815250815260200160405180604001604052806007815260200166159bdb16985c9960ca1b81525081526020016040518060400160405280600a81526020016914dc185c9ade56985c9960b21b81525081526020016040518060400160405280600a81526020016914dc185c9ade56985c9960b21b81525081526020016040518060400160405280600a81526020016914dc185c9ade56985c9960b21b8152508152602001604051806040016040528060078152602001665a61706272796f60c81b8152508152602001604051806040016040528060078152602001665a61706272796f60c81b8152508152602001604051806040016040528060078152602001665a61706272796f60c81b8152508152602001604051806040016040528060078152602001665a61706272796f60c81b8152508152602001604051806040016040528060078152602001665a61706272796f60c81b815250815260200160405180604001604052806009815260200168121e591c9856985c9960ba1b815250815260200160405180604001604052806009815260200168121e591c9856985c9960ba1b815250815260200160405180604001604052806007815260200166105c5856985c9960ca1b815250815260200160405180604001604052806007815260200166105c5856985c9960ca1b815250815260200160405180604001604052806007815260200166105c5856985c9960ca1b81525081526020016040518060400160405280600a815260200169111c9a5c1b1856985c9960b21b81525081526020016040518060400160405280600a815260200169111c9a5c1b1856985c9960b21b81525081526020016040518060400160405280600a815260200169111c9a5c1b1856985c9960b21b81525081526020016040518060400160405280600a81526020016953706c6173686272796f60b01b81525081526020016040518060400160405280600a81526020016953706c6173686272796f60b01b81525081526020016040518060400160405280600a81526020016953706c6173686272796f60b01b81525081526020016040518060400160405280600a81526020016953706c6173686272796f60b01b81525081526020016040518060400160405280600a81526020016953706c6173686272796f60b01b815250815250600690604162000a6892919062000d31565b50604080518082019091526001808252602082015262000a8d90600790600262000d91565b50604080518082019091526001808252602082015262000ab290600890600262000d91565b5060408051608081018252600180825260208201819052918101829052606081019190915262000ae790600990600462000d91565b5034801562000af557600080fd5b5062000b013362000b14565b62000b0e60003362000b64565b62000ec9565b600080546001600160a01b038381166001600160a01b0319831681178455604051919092169283917f8be0079c531659141344cd1fd0a4f28419497f9722a3daafe3b4186f6b6457e09190a35050565b62000b7b828262000ba760201b620020721760201c565b600082815260026020908152604090912062000ba2918390620020dd62000c30821b17901c565b505050565b60008281526001602090815260408083206001600160a01b038516845290915290205460ff1662000c2c5760008281526001602081815260408084206001600160a01b0386168086529252808420805460ff19169093179092559051339285917f2f8788117e7eff1d82e926ec794901d17c78024a50270940304540a733656f0d9190a45b5050565b600062000c47836001600160a01b03841662000c50565b90505b92915050565b600081815260018301602052604081205462000c995750815460018181018455600084815260208082209093018490558454848252828601909352604090209190915562000c4a565b50600062000c4a565b82805462000cb09062000e8c565b90600052602060002090601f01602090048101928262000cd4576000855562000d1f565b82601f1062000cef57805160ff191683800117855562000d1f565b8280016001018555821562000d1f579182015b8281111562000d1f57825182559160200191906001019062000d02565b5062000d2d92915062000dd4565b5090565b82805482825590600052602060002090810192821562000d83579160200282015b8281111562000d83578251805162000d7291849160209091019062000ca2565b509160200191906001019062000d52565b5062000d2d92915062000deb565b82805482825590600052602060002090810192821562000d1f579160200282015b8281111562000d1f578251829060ff1690559160200191906001019062000db2565b5b8082111562000d2d576000815560010162000dd5565b8082111562000d2d57600062000e02828262000e0c565b5060010162000deb565b50805462000e1a9062000e8c565b6000825580601f1062000e2b575050565b601f01602090049060005260206000209081019062000e4b919062000dd4565b50565b6000825160005b8181101562000e71576020818601810151858301520162000e55565b8181111562000e81576000828501525b509190910192915050565b600181811c9082168062000ea157607f821691505b6020821081141562000ec357634e487b7160e01b600052602260045260246000fd5b50919050565b6134768062000ed96000396000f3fe608060405234801561001057600080fd5b50600436106104545760003560e01c80638840891e11610241578063b2c5be731161013b578063d547741f116100c3578063ec87621c11610087578063ec87621c14610bb5578063f170b6c014610bca578063f2fde38b14610bd2578063fa97af9014610be5578063ffa1ad7414610c0a57600080fd5b8063d547741f14610b2a578063d947969214610b3d578063d9fb28fc14610b45578063dc358f9614610b68578063e0195c0b14610b8e57600080fd5b8063c69c95791161010a578063c69c957914610aa3578063c7a6ffc914610ab6578063ca15c87314610adc578063d1be5e9b14610aef578063d4697a4714610b1757600080fd5b8063b2c5be7314610a26578063b51e6dc714610a4f578063b92654e114610a74578063b9a33e1814610a9b57600080fd5b8063a1b05aa2116101c9578063abc26faf1161018d578063abc26faf1461099c578063ade1ca7e146109a4578063ae177706146109cd578063ae97568c146109f3578063af876b7a14610a1357600080fd5b8063a1b05aa214610913578063a217fddf1461091b578063a4c87caf14610923578063a7ae924014610949578063a9e68c941461097357600080fd5b806391a7f8b01161021057806391a7f8b01461088357806391d14854146108a857806392040706146108bb5780639463e045146108c3578063967dfc01146108eb57600080fd5b80638840891e1461082657806388fee7c2146108395780638da5cb5b1461085f5780639010d07c1461087057600080fd5b8063450a52d0116103525780635f560e83116102da5780637d325d271161029e5780637d325d27146107825780637ec4483b146107ab57806380c30bd9146107be5780638179b906146107eb57806382913d821461081357600080fd5b80635f560e83146107155780636b2bf27f146107365780636f57cb6214610749578063715018a61461075157806376eaa7881461075957600080fd5b80634ef53e38116103215780634ef53e38146106b3578063519f7843146106de57806354b10da1146106e65780635d1ca631146106fa5780635df112911461070257600080fd5b8063450a52d014610667578063481c6a751461067a5780634ca7300c1461068d5780634cb1f92b146106a057600080fd5b8063247a2f05116103e05780632f2ff15d116103a45780632f2ff15d146105fd5780632f34f36f1461061057806330044d421461063857806336568abe1461064b5780633ad32d161461065e57600080fd5b8063247a2f0514610559578063248a9ca31461057f57806327eb14c6146105a357806329b88a4a146105ca5780632d3e5030146105d257600080fd5b806316f28d241161042757806316f28d24146104f257806317d7de7c1461050557806319cd4c3d1461050d5780631a6f04f31461053b5780631d0b1fbb1461054357600080fd5b806301ffc9a7146104595780630447a2cd146104815780630dd5b17814610496578063129a3182146104cb575b600080fd5b61046c610467366004612c9b565b610c12565b60405190151581526020015b60405180910390f35b61049461048f366004612ce1565b610c3d565b005b6104be60405180604001604052806009815260200168119b185c9bd6985c9960ba1b81525081565b6040516104789190612d70565b6104be60405180604001604052806008815260200167536565646272796f60c01b81525081565b610494610500366004612d83565b610c4b565b6104be610ce8565b6104be6040518060400160405280600f81526020016e7261726974795f6f7665727269646560881b81525081565b610494610d7a565b61054b610d84565b604051908152602001610478565b6104be60405180604001604052806007815260200166119c9bd6985c9960ca1b81525081565b61054b61058d366004612dc8565b6000908152600160208190526040909120015490565b6104be60405180604001604052806008815260200167109b1bdcd6985c9960c21b81525081565b61054b610dcf565b600a546105e5906001600160a01b031681565b6040516001600160a01b039091168152602001610478565b61049461060b366004612de1565b610dfe565b6104be60405180604001604052806009815260200168119b1bdc9856985c9960ba1b81525081565b61054b610646366004612e04565b610e25565b610494610659366004612de1565b61111f565b61054b60055481565b61046c610675366004612e04565b611199565b6003546105e5906001600160a01b031681565b6104be61069b366004612dc8565b6112a8565b6104be6106ae366004612dc8565b611357565b6104be6040518060400160405280600c81526020016b18d85c9917d8db185a5b595960a21b81525081565b61054b611403565b60008051602061340183398151915261054b565b60055461054b565b610494610710366004612e84565b611433565b610728610723366004612e04565b61143f565b604051610478929190612e9f565b610494610744366004612e84565b611549565b61054b611552565b610494611589565b6104be6040518060400160405280600a815260200169131958dd1c9856985c9960b21b81525081565b6104be6040518060400160405280600a81526020016910da1a5b1b1856985c9960b21b81525081565b6104946107b9366004612e84565b6115bd565b6104be6040518060400160405280600e81526020016d6368617261637465725f6e616d6560901b81525081565b6104be60405180604001604052806009815260200168466c616d656272796f60b81b81525081565b61054b610821366004612e04565b6115f0565b610494610834366004612e84565b61161f565b6104be604051806040016040528060078152602001665a61706272796f60c81b81525081565b6000546001600160a01b03166105e5565b6105e561087e366004612ece565b611628565b6104be6040518060400160405280600681526020016572617269747960d01b81525081565b61046c6108b6366004612de1565b611647565b61054b611672565b6104be6040518060400160405280600981526020016831b430b930b1ba32b960b91b81525081565b6104be60405180604001604052806009815260200168115b58995c96985c9960ba1b81525081565b61054b61169f565b61054b600081565b6104be60405180604001604052806007815260200166109b1a56985c9960ca1b81525081565b6104be6040518060400160405280600b81526020016a14dc1c9bdd5d1e56985c9960aa1b81525081565b6104be6040518060400160405280600a81526020016953706c6173686272796f60b01b81525081565b61054b6116ce565b6104be6040518060400160405280600a81526020016914dc185c9ade56985c9960b21b81525081565b6104be60405180604001604052806007815260200166105c5856985c9960ca1b81525081565b610a06610a01366004612dc8565b611706565b6040516104789190612f06565b61054b610a21366004612fb5565b611aac565b6104be6040518060400160405280600a815260200169111c9a5c1b1856985c9960b21b81525081565b6104be6040518060400160405280600681526020016561747461636b60d01b81525081565b6104be60405180604001604052806008815260200167119a5c9956985c9960c21b81525081565b61054b611e70565b610494610ab1366004612e84565b611ea5565b6104be60405180604001604052806007815260200166646566656e736560c81b81525081565b61054b610aea366004612dc8565b611eae565b6104be60405180604001604052806009815260200168121e591c9856985c9960ba1b81525081565b610494610b25366004612dc8565b611ec5565b610494610b38366004612de1565b611f55565b6104be611f7c565b6104be604051806040016040528060048152602001637479706560e01b81525081565b6104be60405180604001604052806007815260200166159bdb16985c9960ca1b81525081565b6104be60405180604001604052806008815260200167436f6f6c6272796f60c01b81525081565b61054b60008051602061342183398151915281565b61054b611f89565b610494610be0366004612e84565b611fb8565b6104be604051806040016040528060068152602001650d0cac2d8e8d60d31b81525081565b61054b612050565b60006001600160e01b0319821663ee7ed59960e01b1480610c375750610c37826120f2565b92915050565b610c478282612117565b5050565b610c6360008051602061342183398151915233611647565b610c885760405162461bcd60e51b8152600401610c7f90612fec565b60405180910390fd5b6040518060400160405280600c81526020016b29ba30ba39a234b9ba3934b160a11b815250604051602001610cbd9190613049565b60405160208183030381529060405280519060200120831415610ce357610ce3826121aa565b505050565b606060048054610cf790613065565b80601f0160208091040260200160405190810160405280929190818152602001828054610d2390613065565b8015610d705780601f10610d4557610100808354040283529160200191610d70565b820191906000526020600020905b815481529060010190602001808311610d5357829003601f168201915b5050505050905090565b610d826121ff565b565b6040518060400160405280600981526020016831b430b930b1ba32b960b91b815250604051602001610db69190613049565b6040516020818303038152906040528051906020012081565b6040518060400160405280600681526020016561747461636b60d01b815250604051602001610db69190613049565b60008281526001602081905260409091200154610e1b813361226e565b610ce383836122d2565b60006000805160206134018339815191528514610e545760405162461bcd60e51b8152600401610c7f906130a0565b60008383604051602001610e699291906130d7565b60408051601f1981840301815282825280516020918201208383018352600684526572617269747960d01b848301529151919350610ea8929101613049565b60405160208183030381529060405280519060200120811415610ee757610ece856122f4565b6004811115610edf57610edf612ef0565b915050611117565b604051806040016040528060048152602001637479706560e01b815250604051602001610f149190613049565b60405160208183030381529060405280519060200120811415610f3a57610ece856124ed565b6040518060400160405280600981526020016831b430b930b1ba32b960b91b815250604051602001610f6c9190613049565b60405160208183030381529060405280519060200120811415610fe65760405162461bcd60e51b815260206004820152602c60248201527f447261676f6e53746174733a2063616c6c20646572697665436861726163746560448201526b72206578706c696369746c7960a01b6064820152608401610c7f565b604051806040016040528060068152602001650d0cac2d8e8d60d31b8152506040516020016110159190613049565b6040516020818303038152906040528051906020012081148061107b57506040518060400160405280600681526020016561747461636b60d01b8152506040516020016110629190613049565b6040516020818303038152906040528051906020012081145b806110ca575060405180604001604052806007815260200166646566656e736560c81b8152506040516020016110b19190613049565b6040516020818303038152906040528051906020012081145b156110dc57610edf60016000196130fd565b60405162461bcd60e51b815260206004820152601060248201526f155b9cdd5c1c1bdc9d1959081cdd185d60821b6044820152606401610c7f565b949350505050565b6001600160a01b038116331461118f5760405162461bcd60e51b815260206004820152602f60248201527f416363657373436f6e74726f6c3a2063616e206f6e6c792072656e6f756e636560448201526e103937b632b9903337b91039b2b63360891b6064820152608401610c7f565b610c47828261262d565b600060008051602061340183398151915285146111c85760405162461bcd60e51b8152600401610c7f906130a0565b600083836040516020016111dd9291906130d7565b60408051601f1981840301815282825280516020918201208383018352600f84526e7261726974795f6f7665727269646560881b848301529151919350611225929101613049565b6040516020818303038152906040528051906020012081141561124c576000915050611117565b6040518060400160405280600c81526020016b18d85c9917d8db185a5b595960a21b8152506040516020016112819190613049565b604051602081830303815290604052805190602001208114156110dc576000915050611117565b6060600682815481106112bd576112bd613114565b9060005260206000200180546112d290613065565b80601f01602080910402602001604051908101604052809291908181526020018280546112fe90613065565b801561134b5780601f106113205761010080835404028352916020019161134b565b820191906000526020600020905b81548152906001019060200180831161132e57829003601f168201915b50505050509050919050565b6006818154811061136757600080fd5b90600052602060002001600091509050805461138290613065565b80601f01602080910402602001604051908101604052809291908181526020018280546113ae90613065565b80156113fb5780601f106113d0576101008083540402835291602001916113fb565b820191906000526020600020905b8154815290600101906020018083116113de57829003601f168201915b505050505081565b60405180604001604052806007815260200166646566656e736560c81b815250604051602001610db69190613049565b61143c8161264f565b50565b366000600080516020613401833981519152861461146f5760405162461bcd60e51b8152600401610c7f906130a0565b600084846040516020016114849291906130d7565b60408051601f1981840301815282825280516020918201208383018352600e84526d6368617261637465725f6e616d6560901b8483015291519193506114cb929101613049565b604051602081830303815290604052805190602001208114156110dc5760405162461bcd60e51b815260206004820152603060248201527f447261676f6e53746174733a2063616c6c20646572697665436861726163746560448201526f724e616d65206578706c696369746c7960801b6064820152608401610c7f565b61143c81612707565b6040518060400160405280600e81526020016d6368617261637465725f6e616d6560901b815250604051602001610db69190613049565b6000546001600160a01b031633146115b35760405162461bcd60e51b8152600401610c7f9061312a565b610d82600061277d565b6000546001600160a01b031633146115e75760405162461bcd60e51b8152600401610c7f9061312a565b61143c816121aa565b600060008051602061340183398151915285146110dc5760405162461bcd60e51b8152600401610c7f906130a0565b61143c816127cd565b6000828152600260205260408120611640908361284f565b9392505050565b60009182526001602090815260408084206001600160a01b0393909316845291905290205460ff1690565b604051806040016040528060048152602001637479706560e01b815250604051602001610db69190613049565b604051806040016040528060068152602001650d0cac2d8e8d60d31b815250604051602001610db69190613049565b6040518060400160405280600f81526020016e7261726974795f6f7665727269646560881b815250604051602001610db69190613049565b606060008051602061340183398151915282146117355760405162461bcd60e51b8152600401610c7f906130a0565b6040805160098082526101408201909252600091816020015b604080516060808201835281526000602080830182905292820152825260001990920191018161174e5750506040805160a0810182526006606082019081526572617269747960d01b608083015281526000602082018190529181018290528251929350918391906117c2576117c2613114565b6020908102919091018101919091526040805160a08101909152600660608201908152650d0cac2d8e8d60d31b6080830152815290810160008152602001600115158152508160018151811061181a5761181a613114565b6020908102919091018101919091526040805160a08101909152600460608201908152637479706560e01b6080830152815290810160008152602001600015158152508160028151811061187057611870613114565b6020908102919091018101919091526040805160a081019091526006606082019081526561747461636b60d01b608083015281529081016000815260200160011515815250816003815181106118c8576118c8613114565b6020908102919091018101919091526040805160a0810190915260076060820190815266646566656e736560c81b6080830152815290810160008152602001600115158152508160048151811061192157611921613114565b6020908102919091018101919091526040805160a08101909152600f606082019081526e7261726974795f6f7665727269646560881b6080830152815290810160038152602001600115158152508160058151811061198257611982613114565b6020908102919091018101919091526040805160a081019091526009606082019081526831b430b930b1ba32b960b91b608083015281529081016000815260200160001515815250816006815181106119dd576119dd613114565b6020908102919091018101919091526040805160a08101909152600e606082019081526d6368617261637465725f6e616d6560901b60808301528152908101600181526020016000151581525081600781518110611a3d57611a3d613114565b6020908102919091018101919091526040805160a08101909152600c606082019081526b18d85c9917d8db185a5b595960a21b60808301528152908101600381526020016001151581525081600881518110611a9b57611a9b613114565b602090810291909101015292915050565b60008080836004811115611ac257611ac2612ef0565b1415611acc575060005b6001836004811115611ae057611ae0612ef0565b1415611aea5750600d5b6002836004811115611afe57611afe612ef0565b1415611b085750601a5b6003836004811115611b1c57611b1c612ef0565b1415611b26575060275b6004836004811115611b3a57611b3a612ef0565b1415611b44575060345b6000846004811115611b5857611b58612ef0565b1415611b685760ff169050611640565b6001846004811115611b7c57611b7c612ef0565b1415611b9857611b8d816001613175565b60ff16915050611640565b6000856040518060400160405280600981526020016831b430b930b1ba32b960b91b815250604051602001611bce92919061319a565b60408051601f19818403018152919052805160209091012090506002856004811115611bfc57611bfc612ef0565b1415611cb0576040516375233c2760e01b815273__Util__________________________________906375233c2790611c3f9084906007906003906004016131b3565b60206040518083038186803b158015611c5757600080fd5b505af4158015611c6b573d6000803e3d6000fd5b505050506040513d601f19601f82011682018060405250810190611c8f919061320f565b611c9a836002613175565b60ff16611ca79190613228565b92505050611640565b6003856004811115611cc457611cc4612ef0565b1415611d62576040516375233c2760e01b815273__Util__________________________________906375233c2790611d079084906008906003906004016131b3565b60206040518083038186803b158015611d1f57600080fd5b505af4158015611d33573d6000803e3d6000fd5b505050506040513d601f19601f82011682018060405250810190611d57919061320f565b611c9a836005613175565b6004856004811115611d7657611d76612ef0565b1415611e14576040516375233c2760e01b815273__Util__________________________________906375233c2790611db99084906009906005906004016131b3565b60206040518083038186803b158015611dd157600080fd5b505af4158015611de5573d6000803e3d6000fd5b505050506040513d601f19601f82011682018060405250810190611e09919061320f565b611c9a836008613175565b60405162461bcd60e51b815260206004820152602b60248201527f447261676f6e53746174733a204661696c656420746f2064657269766520746860448201526a329031b430b930b1ba32b960a91b6064820152608401610c7f565b6040518060400160405280600c81526020016b18d85c9917d8db185a5b595960a21b815250604051602001610db69190613049565b61143c8161285b565b6000818152600260205260408120610c37906128d8565b611edd60008051602061342183398151915233611647565b611ef95760405162461bcd60e51b8152600401610c7f90612fec565b6040518060400160405280600c81526020016b29ba30ba39a234b9ba3934b160a11b815250604051602001611f2e9190613049565b6040516020818303038152906040528051906020012081141561143c5761143c60006121aa565b60008281526001602081905260409091200154611f72813361226e565b610ce3838361262d565b6004805461138290613065565b6040518060400160405280600681526020016572617269747960d01b815250604051602001610db69190613049565b6000546001600160a01b03163314611fe25760405162461bcd60e51b8152600401610c7f9061312a565b6001600160a01b0381166120475760405162461bcd60e51b815260206004820152602660248201527f4f776e61626c653a206e6577206f776e657220697320746865207a65726f206160448201526564647265737360d01b6064820152608401610c7f565b61143c8161277d565b6040516d447261676f6e53746174732d763160901b6020820152602e01610db6565b61207c8282611647565b610c475760008281526001602081815260408084206001600160a01b0386168086529252808420805460ff19169093179092559051339285917f2f8788117e7eff1d82e926ec794901d17c78024a50270940304540a733656f0d9190a45050565b6000611640836001600160a01b0384166128e2565b60006001600160e01b03198216635a05180f60e01b1480610c375750610c3782612931565b61212f60008051602061342183398151915233611647565b61214b5760405162461bcd60e51b8152600401610c7f90612fec565b600380546001600160a01b0319166001600160a01b0383811691821790925560408051928516835260208301919091527ff6515f2a6d531f16723c1e578303b7d74152bf8c0fa3bee828700a3d4706da8d910160405180910390a15050565b600a80546001600160a01b0319166001600160a01b0383169081179091556040519081527fd6ebeed44b8b1f3dea0f0065729e759c6e0a54fff5e3457d639ab0cb4b164307906020015b60405180910390a150565b61221760008051602061342183398151915233611647565b6122335760405162461bcd60e51b8152600401610c7f90612fec565b600380546001600160a01b03191690556040517f9a9a74cf290a994f69a718e8557deb1dd65135268f40e660cecddf675f5dd51490600090a1565b6122788282611647565b610c4757612290816001600160a01b03166014612966565b61229b836020612966565b6040516020016122ac929190613240565b60408051601f198184030181529082905262461bcd60e51b8252610c7f91600401612d70565b6122dc8282612072565b6000828152600260205260409020610ce390826120dd565b600080826040518060400160405280600681526020016572617269747960d01b81525060405160200161232892919061319a565b6040516020818303038152906040528051906020012060001c905073__Util__________________________________6375233c2782600a60009054906101000a90046001600160a01b03166001600160a01b031663a9e790c86040518163ffffffff1660e01b815260040160006040518083038186803b1580156123ac57600080fd5b505afa1580156123c0573d6000803e3d6000fd5b505050506040513d6000823e601f3d908101601f191682016040526123e891908101906132b5565b600a60009054906101000a90046001600160a01b03166001600160a01b0316639f1349ed6040518163ffffffff1660e01b815260040160206040518083038186803b15801561243657600080fd5b505afa15801561244a573d6000803e3d6000fd5b505050506040513d601f19601f8201168201806040525081019061246e919061320f565b6040518463ffffffff1660e01b815260040161248c93929190613373565b60206040518083038186803b1580156124a457600080fd5b505af41580156124b8573d6000803e3d6000fd5b505050506040513d601f19601f820116820180604052508101906124dc919061320f565b600481111561164057611640612ef0565b60008082604051806040016040528060048152602001637479706560e01b81525060405160200161251f92919061319a565b6040516020818303038152906040528051906020012060001c905073__Util__________________________________6375233c2782600a60009054906101000a90046001600160a01b03166001600160a01b031663221cf8f86040518163ffffffff1660e01b815260040160006040518083038186803b1580156125a357600080fd5b505afa1580156125b7573d6000803e3d6000fd5b505050506040513d6000823e601f3d908101601f191682016040526125df91908101906132b5565b600a60009054906101000a90046001600160a01b03166001600160a01b031663d710216e6040518163ffffffff1660e01b815260040160206040518083038186803b15801561243657600080fd5b6126378282612b02565b6000828152600260205260409020610ce39082612b69565b61266760008051602061342183398151915233611647565b6126835760405162461bcd60e51b8152600401610c7f90612fec565b600380546001600160a01b0319166001600160a01b0383161790556126b660008051602061342183398151915282610dfe565b6126ce60008051602061342183398151915233611f55565b6040516001600160a01b03821681527f8eb47098f9568be754f51d21a870c8091ee0242cf97418db00927326d0e6ffcf906020016121f4565b61271f60008051602061342183398151915233611647565b61273b5760405162461bcd60e51b8152600401610c7f90612fec565b61274481611fb8565b6040516001600160a01b03821681527ff2addf7f813887cf0fdd82b58fcc379ab2301e95c90b41a8cf2e5401914689c9906020016121f4565b600080546001600160a01b038381166001600160a01b0319831681178455604051919092169283917f8be0079c531659141344cd1fd0a4f28419497f9722a3daafe3b4186f6b6457e09190a35050565b6127e560008051602061342183398151915233611647565b6128015760405162461bcd60e51b8152600401610c7f90612fec565b600380546001600160a01b0319166001600160a01b0383169081179091556040519081527f89c66952b48f3e96bf1d8ba1b63189520fd988a6979b8b740bd5c5d8dc53e205906020016121f4565b60006116408383612b7e565b61287360008051602061342183398151915233611647565b61288f5760405162461bcd60e51b8152600401610c7f90612fec565b600380546001600160a01b03191690556040516001600160a01b03821681527f85a56ff958486f55dd742819603a46ba6233d3b24e6715f9cd5fd2ef6425d680906020016121f4565b6000610c37825490565b600081815260018301602052604081205461292957508154600181810184556000848152602080822090930184905584548482528286019093526040902091909155610c37565b506000610c37565b60006001600160e01b03198216637965db0b60e01b1480610c3757506301ffc9a760e01b6001600160e01b0319831614610c37565b606060006129758360026133b4565b612980906002613228565b67ffffffffffffffff8111156129985761299861315f565b6040519080825280601f01601f1916602001820160405280156129c2576020820181803683370190505b509050600360fc1b816000815181106129dd576129dd613114565b60200101906001600160f81b031916908160001a905350600f60fb1b81600181518110612a0c57612a0c613114565b60200101906001600160f81b031916908160001a9053506000612a308460026133b4565b612a3b906001613228565b90505b6001811115612ab3576f181899199a1a9b1b9c1cb0b131b232b360811b85600f1660108110612a6f57612a6f613114565b1a60f81b828281518110612a8557612a85613114565b60200101906001600160f81b031916908160001a90535060049490941c93612aac816133d3565b9050612a3e565b5083156116405760405162461bcd60e51b815260206004820181905260248201527f537472696e67733a20686578206c656e67746820696e73756666696369656e746044820152606401610c7f565b612b0c8282611647565b15610c475760008281526001602090815260408083206001600160a01b0385168085529252808320805460ff1916905551339285917ff6391f5c32d9c69d2a47ea670b442974b53935d1edc7fd64eb21e047a839171b9190a45050565b6000611640836001600160a01b038416612ba8565b6000826000018281548110612b9557612b95613114565b9060005260206000200154905092915050565b60008181526001830160205260408120548015612c91576000612bcc6001836130fd565b8554909150600090612be0906001906130fd565b9050818114612c45576000866000018281548110612c0057612c00613114565b9060005260206000200154905080876000018481548110612c2357612c23613114565b6000918252602080832090910192909255918252600188019052604090208390555b8554869080612c5657612c566133ea565b600190038181906000526020600020016000905590558560010160008681526020019081526020016000206000905560019350505050610c37565b6000915050610c37565b600060208284031215612cad57600080fd5b81356001600160e01b03198116811461164057600080fd5b80356001600160a01b0381168114612cdc57600080fd5b919050565b60008060408385031215612cf457600080fd5b612cfd83612cc5565b9150612d0b60208401612cc5565b90509250929050565b60005b83811015612d2f578181015183820152602001612d17565b83811115612d3e576000848401525b50505050565b60008151808452612d5c816020860160208601612d14565b601f01601f19169290920160200192915050565b6020815260006116406020830184612d44565b600080600060608486031215612d9857600080fd5b83359250612da860208501612cc5565b915060408401358015158114612dbd57600080fd5b809150509250925092565b600060208284031215612dda57600080fd5b5035919050565b60008060408385031215612df457600080fd5b82359150612d0b60208401612cc5565b60008060008060608587031215612e1a57600080fd5b8435935060208501359250604085013567ffffffffffffffff80821115612e4057600080fd5b818701915087601f830112612e5457600080fd5b813581811115612e6357600080fd5b886020828501011115612e7557600080fd5b95989497505060200194505050565b600060208284031215612e9657600080fd5b61164082612cc5565b60208152816020820152818360408301376000818301604090810191909152601f909201601f19160101919050565b60008060408385031215612ee157600080fd5b50508035926020909101359150565b634e487b7160e01b600052602160045260246000fd5b60006020808301818452808551808352604092508286019150828160051b8701018488016000805b84811015612f9957603f198a8503018652825160608151818752612f5482880182612d44565b915050898201516004808210612f7757634e487b7160e01b865260218152602486fd5b50868b0152908801511515948801949094529487019491870191600101612f2e565b50919998505050505050505050565b6005811061143c57600080fd5b600080600060608486031215612fca57600080fd5b833592506020840135612fdc81612fa8565b91506040840135612dbd81612fa8565b6020808252603b908201527f43726f7373436f6e74726163744d616e4c697374656e65723a2074686520636160408201527f6c6c6572206d7573742068617665204d414e414745525f524f4c450000000000606082015260800190565b6000825161305b818460208701612d14565b9190910192915050565b600181811c9082168061307957607f821691505b6020821081141561309a57634e487b7160e01b600052602260045260246000fd5b50919050565b6020808252601f908201527f4e4654206d757374206265206f6620447261676f6e2043617264207479706500604082015260600190565b8183823760009101908152919050565b634e487b7160e01b600052601160045260246000fd5b60008282101561310f5761310f6130e7565b500390565b634e487b7160e01b600052603260045260246000fd5b6020808252818101527f4f776e61626c653a2063616c6c6572206973206e6f7420746865206f776e6572604082015260600190565b634e487b7160e01b600052604160045260246000fd5b600060ff821660ff84168060ff03821115613192576131926130e7565b019392505050565b8281526040602082015260006111176040830184612d44565b60006060820185835260206060818501528186548084526080860191508760005282600020935060005b818110156131f9578454835260019485019492840192016131dd565b5050809350505050826040830152949350505050565b60006020828403121561322157600080fd5b5051919050565b6000821982111561323b5761323b6130e7565b500190565b7f416363657373436f6e74726f6c3a206163636f756e7420000000000000000000815260008351613278816017850160208801612d14565b7001034b99036b4b9b9b4b733903937b6329607d1b60179184019182015283516132a9816028840160208801612d14565b01602801949350505050565b600060208083850312156132c857600080fd5b825167ffffffffffffffff808211156132e057600080fd5b818501915085601f8301126132f457600080fd5b8151818111156133065761330661315f565b8060051b604051601f19603f8301168101818110858211171561332b5761332b61315f565b60405291825284820192508381018501918883111561334957600080fd5b938501935b828510156133675784518452938501939285019261334e565b98975050505050505050565b6000606082018583526020606081850152818651808452608086019150828801935060005b818110156131f957845183529383019391830191600101613398565b60008160001904831182151516156133ce576133ce6130e7565b500290565b6000816133e2576133e26130e7565b506000190190565b634e487b7160e01b600052603160045260246000fdfe37a3c4a2a635dedf6a4912ec5757511a1f2fa87cb349543d4751fc18c65e4273241ecf16d79d0f8dbfb92cbc07fe17840425976cf0667f022fe9877caa831b08a2646970667358221220ac1613a23ad87710ed6e5c0e5b37c2ffd5f453d250cb04256e7f9590a61a76ee64736f6c63430008090033",
  "immutableReferences": {},
  "source": "// SPDX-License-Identifier: MIT\n/**\n * Derives dragon card stats from card ID\n * @title  Deriving dragon card stats from its ID\n * @author CryptoHog\n * @notice Defines an interface for a contract deriving the stats from a randomly generated ID\n */\n\npragma solidity ^0.8.0;\n\nimport \"./Util.sol\";\nimport \"./IStatsDerive.sol\";\nimport \"./StatsDistrib.sol\";\nimport \"./CrossContractManListener.sol\";\n\ncontract DragonStats is CrossContractManListener, IStatsDerive {\n    string  public contract_name = Util.DRAGON_STATS_CONTRACT_NAME;\n    bytes32 public contract_id = Util.DRAGON_STATS_CONTRACT_ID;\n\n    bytes32 public constant VERSION = keccak256(abi.encodePacked('DragonStats-v1'));\n    string public constant RARITY_STR = 'rarity';\n    string public constant RARITY_OVERRIDE_STR = 'rarity_override';\n    string public constant HEALTH_STR = 'health';\n    string public constant TYPE_STR   = 'type';\n    string public constant ATTACK_STR = 'attack';\n    string public constant DEFENSE_STR= 'defense';\n    string public constant CHARACTER_STR= 'character';\n    string public constant CHARACTER_NAME_STR= 'character_name';\n    string public constant CARD_CLAIMED_STR= 'card_claimed';\n    bytes32 public constant H_RARITY_STR = keccak256(abi.encodePacked(RARITY_STR));\n    bytes32 public constant H_RARITY_OVERRIDE_STR = keccak256(abi.encodePacked(RARITY_OVERRIDE_STR));\n    bytes32 public constant H_HEALTH_STR = keccak256(abi.encodePacked(HEALTH_STR));\n    bytes32 public constant H_TYPE_STR = keccak256(abi.encodePacked(TYPE_STR));\n    bytes32 public constant H_ATTACK_STR = keccak256(abi.encodePacked(ATTACK_STR));\n    bytes32 public constant H_DEFENSE_STR = keccak256(abi.encodePacked(DEFENSE_STR));\n    bytes32 public constant H_CHARACTER_STR = keccak256(abi.encodePacked(CHARACTER_STR));\n    bytes32 public constant H_CHARACTER_NAME_STR = keccak256(abi.encodePacked(CHARACTER_NAME_STR));\n    bytes32 public constant H_CARD_CLAIMED_STR = keccak256(abi.encodePacked(CARD_CLAIMED_STR));\n\n    string public constant CHARACTER_FIREZARD_STR = 'FireZard';\n    string public constant CHARACTER_FLAROZARD_STR = 'FlaroZard';\n    string public constant CHARACTER_EMBERZARD_STR = 'EmberZard';\n    string public constant CHARACTER_FLAMEBRYO_STR = 'Flamebryo';\n    string public constant CHARACTER_BLIZARD_STR = 'BliZard';\n    string public constant CHARACTER_FROZARD_STR = 'FroZard';\n    string public constant CHARACTER_CHILLAZARD_STR = 'ChillaZard';\n    string public constant CHARACTER_COOLBRYO_STR = 'Coolbryo';\n    string public constant CHARACTER_FLORAZARD_STR = 'FloraZard';\n    string public constant CHARACTER_BLOSZARD_STR = 'BlosZard';\n    string public constant CHARACTER_SPROUTYZARD_STR = 'SproutyZard';\n    string public constant CHARACTER_SEEDBRYO_STR = 'Seedbryo';\n    string public constant CHARACTER_LECTRAZARD_STR = 'LectraZard';\n    string public constant CHARACTER_VOLZARD_STR = 'VolZard';\n    string public constant CHARACTER_SPARKYZARD_STR = 'SparkyZard';\n    string public constant CHARACTER_ZAPBRYO_STR = 'Zapbryo';\n    string public constant CHARACTER_HYDRAZARD_STR = 'HydraZard';\n    string public constant CHARACTER_AQAZARD_STR = 'AqaZard';\n    string public constant CHARACTER_DRIPLAZARD_STR = 'DriplaZard';\n    string public constant CHARACTER_SPLASH_STR = 'Splashbryo';\n\n    string[] public CHARACTER_NAMES = [\n\tCHARACTER_FIREZARD_STR,   // 000\n\tCHARACTER_FIREZARD_STR,   // 001\n\tCHARACTER_FLAROZARD_STR,  // 002\n\tCHARACTER_FLAROZARD_STR,  // 003\n\tCHARACTER_FLAROZARD_STR,  // 004\n\tCHARACTER_EMBERZARD_STR,  // 005\n\tCHARACTER_EMBERZARD_STR,  // 006\n\tCHARACTER_EMBERZARD_STR,  // 007\n\tCHARACTER_FLAMEBRYO_STR,  // 008\n\tCHARACTER_FLAMEBRYO_STR,  // 009\n\tCHARACTER_FLAMEBRYO_STR,  // 010\n\tCHARACTER_FLAMEBRYO_STR,  // 011\n\tCHARACTER_FLAMEBRYO_STR,  // 012\n\tCHARACTER_BLIZARD_STR,    // 013\n\tCHARACTER_BLIZARD_STR,    // 014\n\tCHARACTER_FROZARD_STR,    // 015\n\tCHARACTER_FROZARD_STR,    // 016\n\tCHARACTER_FROZARD_STR,    // 017\n\tCHARACTER_CHILLAZARD_STR, // 018\n\tCHARACTER_CHILLAZARD_STR, // 019\n\tCHARACTER_CHILLAZARD_STR, // 020\n\tCHARACTER_COOLBRYO_STR,   // 021\n\tCHARACTER_COOLBRYO_STR,   // 022\n\tCHARACTER_COOLBRYO_STR,   // 023\n\tCHARACTER_COOLBRYO_STR,   // 024\n\tCHARACTER_COOLBRYO_STR,   // 025\n\tCHARACTER_FLORAZARD_STR,  // 026\n\tCHARACTER_FLORAZARD_STR,  // 027\n\tCHARACTER_BLOSZARD_STR,   // 028\n\tCHARACTER_BLOSZARD_STR,   // 029\n\tCHARACTER_BLOSZARD_STR,   // 030\n\tCHARACTER_SPROUTYZARD_STR,// 031\n\tCHARACTER_SPROUTYZARD_STR,// 032\n\tCHARACTER_SPROUTYZARD_STR,// 033\n\tCHARACTER_SEEDBRYO_STR,   // 034\n\tCHARACTER_SEEDBRYO_STR,   // 035\n\tCHARACTER_SEEDBRYO_STR,   // 036\n\tCHARACTER_SEEDBRYO_STR,   // 037\n\tCHARACTER_SEEDBRYO_STR,   // 038\n\tCHARACTER_LECTRAZARD_STR, // 039\n\tCHARACTER_LECTRAZARD_STR, // 040\n\tCHARACTER_VOLZARD_STR,    // 041\n\tCHARACTER_VOLZARD_STR,    // 042\n\tCHARACTER_VOLZARD_STR,    // 043\n\tCHARACTER_SPARKYZARD_STR, // 044\n\tCHARACTER_SPARKYZARD_STR, // 045\n\tCHARACTER_SPARKYZARD_STR, // 046\n\tCHARACTER_ZAPBRYO_STR,    // 047\n\tCHARACTER_ZAPBRYO_STR,    // 048\n\tCHARACTER_ZAPBRYO_STR,    // 049\n\tCHARACTER_ZAPBRYO_STR,    // 050\n\tCHARACTER_ZAPBRYO_STR,    // 051\n\tCHARACTER_HYDRAZARD_STR,  // 052\n\tCHARACTER_HYDRAZARD_STR,  // 053\n\tCHARACTER_AQAZARD_STR,    // 054\n\tCHARACTER_AQAZARD_STR,    // 055\n\tCHARACTER_AQAZARD_STR,    // 056\n\tCHARACTER_DRIPLAZARD_STR, // 057\n\tCHARACTER_DRIPLAZARD_STR, // 058\n\tCHARACTER_DRIPLAZARD_STR, // 059\n\tCHARACTER_SPLASH_STR,\t  // 060\n\tCHARACTER_SPLASH_STR,\t  // 061\n\tCHARACTER_SPLASH_STR,\t  // 062\n\tCHARACTER_SPLASH_STR,\t  // 063\n\tCHARACTER_SPLASH_STR\t  // 064\n    ];\n\n    uint256[] private  RARE_CHARACTER_DISTRIB = [1,1];\n    uint256   private constant RARE_CHARACTER_DISTRIB_SIZE = 3;\n    uint256[] private  UNCOMMON_CHARACTER_DISTRIB = [1,1];\n    uint256   private constant UNCOMMON_CHARACTER_DISTRIB_SIZE = 3;\n    uint256[] private  COMMON_CHARACTER_DISTRIB = [1,1,1,1];\n    uint256   private constant COMMON_CHARACTER_DISTRIB_SIZE = 5;\n\n    address public\tstatsDistrib;\n\n/*    constructor(address _statsDistrib){\n\tlinkStatsDistrib(_statsDistrib);\n    }*/\n\n    function getName() view external returns(string memory) {\n\treturn contract_name;\n    }\n\n    function getId() view external returns(bytes32) {\n\treturn contract_id;\n    }\n\n    function tokenTypeCode() external pure returns (bytes32){\n\treturn Util.DRAGON_CARD_TYPE_CODE;\n    }\n\n    function onListenAdded(bytes32 hname, address contractInstance, bool isNew) external onlyManager {\n\tif(hname == Util.STATS_DISTRIB_CONTRACT_ID){\n    \t    _linkStatsDistrib(contractInstance);\n    \t    return;\n\t}\n    }\n\n    function onListenRemoved(bytes32 hname) external onlyManager {\n\tif(hname == Util.STATS_DISTRIB_CONTRACT_ID){\n    \t    _linkStatsDistrib(address(0));\n    \t    return;\n\t}\n    }\n\n    function _linkStatsDistrib(address _statsDistrib) internal {\n\tstatsDistrib = _statsDistrib;\n\temit StatsDistribLink(statsDistrib);\n    }\n\n    function linkStatsDistrib(address _statsDistrib) public virtual onlyOwner {\n\t_linkStatsDistrib(_statsDistrib);\n    }\n\n    function deriveRarity(uint256 id) internal view returns (Util.CardRarity) {\n\tuint256 rvalue = uint256(keccak256(abi.encode(id,RARITY_STR)));\n\treturn Util.CardRarity(Util.getRandomItem(rvalue, StatsDistrib(statsDistrib).getDragonCardRarities(), StatsDistrib(statsDistrib).dragonCardRarityPopulationSize()));\n    }\n\n    function deriveType(uint256 id) internal view returns (Util.CardType) {\n\tuint256 rvalue = uint256(keccak256(abi.encode(id,TYPE_STR)));\n\treturn Util.CardType(Util.getRandomItem(rvalue, StatsDistrib(statsDistrib).getDragonCardTypes(), StatsDistrib(statsDistrib).dragonCardTypePopulationSize()));\n    }\n\n    function deriveCharacter(uint256 id, Util.CardRarity rarity, Util.CardType c_type) public view returns (uint256) {\n\tuint8 offset;\n\tif(c_type == Util.CardType.Fire)     offset = 0;\n\tif(c_type == Util.CardType.Ice)      offset = 13;\n\tif(c_type == Util.CardType.Plant)    offset = 26;\n\tif(c_type == Util.CardType.Electric) offset = 39;\n\tif(c_type == Util.CardType.Water)    offset = 52;\n\n\tif(rarity == Util.CardRarity.Ultra_Rare)\n\t    return offset;\n\tif(rarity == Util.CardRarity.Super_Rare)\n\t    return offset+1;\n\n\tuint256 rvalue = uint256(keccak256(abi.encode(id,CHARACTER_STR)));\n\n\tif(rarity == Util.CardRarity.Rare)\n\t    return offset+2+Util.getRandomItem(rvalue, RARE_CHARACTER_DISTRIB, RARE_CHARACTER_DISTRIB_SIZE);\n\n\tif(rarity == Util.CardRarity.Uncommon)\n\t    return offset+5+Util.getRandomItem(rvalue, UNCOMMON_CHARACTER_DISTRIB, UNCOMMON_CHARACTER_DISTRIB_SIZE);\n\n\tif(rarity == Util.CardRarity.Common)\n\t    return offset+8+Util.getRandomItem(rvalue, COMMON_CHARACTER_DISTRIB, COMMON_CHARACTER_DISTRIB_SIZE);\n\n\trevert(\"DragonStats: Failed to derive the character\");\n    }\n\n    function deriveCharacterName(uint256 character) public view returns (string memory) {\n\treturn CHARACTER_NAMES[character];\n    }\n\n    /**\n     * @notice Derive an integer stat from the card's ID by the stats' name\n     *\n     * @param id An id generated by an RNG\n     * @param name The stats' name\n     * @return The stats' value\n    **/\n    function getStatInt(bytes32 nft_type, uint256 id, string calldata name) external view returns (uint256){\n\trequire(nft_type == Util.DRAGON_CARD_TYPE_CODE, \"NFT must be of Dragon Card type\");\n\tbytes32 h_name = keccak256(abi.encodePacked(name));\n\tif(h_name == H_RARITY_STR)\n\t    return uint256(deriveRarity(id));\n\tif(h_name == H_TYPE_STR)\n\t    return uint256(deriveType(id));\n\tif(h_name == H_CHARACTER_STR){\n\t    revert(\"DragonStats: call deriveCharacter explicitly\");\n/*\t    Util.CardRarity rarity = deriveRarity(id);\n\t    Util.CardType   type   = deriveType(id);\n\t    uint256 character = deriveCharacter(id,rarity,type);\n\t    require(character <= 64, \"DragonStats: chartacter number out of bounds (64)\");\n\t    return character;*/\n\t}\n\tif((h_name == H_HEALTH_STR)||(h_name == H_ATTACK_STR)||(h_name == H_DEFENSE_STR))\n\t    return Util.MAX_UINT;\n\trevert(\"Unsupported stat\");\n    }\n\n    /**\n     * @notice Derive a string stat from the card's ID by the stats' name\n     *\n     * @param id An id generated by an RNG\n     * @param name The stats' name\n     * @return The stats' value\n    **/\n    function getStatString(bytes32 nft_type, uint256 id, string calldata name) external view returns (string calldata){\n\trequire(nft_type == Util.DRAGON_CARD_TYPE_CODE, \"NFT must be of Dragon Card type\");\n\tbytes32 h_name = keccak256(abi.encodePacked(name));\n\tif(h_name == H_CHARACTER_NAME_STR){\n\t    revert(\"DragonStats: call deriveCharacterName explicitly\");\n\t}\n\t\n\trevert(\"Unsupported stat\");\n    }\n\n    /**\n     * @notice Derive a 32 byte array stat from the card's ID by the stats' name\n     *\n     * @param id An id generated by an RNG\n     * @param name The stats' name\n     * @return The stats' value\n    **/\n    function getStatByte32(bytes32 nft_type, uint256 id, string calldata name) external view returns (bytes32){\n\trequire(nft_type == Util.DRAGON_CARD_TYPE_CODE, \"NFT must be of Dragon Card type\");\n\trevert(\"Unsupported stat\");\n    }\n\n    /**\n     * @notice Derive a boolean stat from the card's ID by the stats' name\n     *\n     * @param id An id generated by an RNG\n     * @param name The stats' name\n     * @return The stats' value\n    **/\n    function getStatBool(bytes32 nft_type, uint256 id, string calldata name) external view returns (bool){\n\trequire(nft_type == Util.DRAGON_CARD_TYPE_CODE, \"NFT must be of Dragon Card type\");\n\tbytes32 h_name = keccak256(abi.encodePacked(name));\n\tif(h_name == H_RARITY_OVERRIDE_STR)\n\t    return false;\n\tif(h_name == H_CARD_CLAIMED_STR)\n\t    return false;\n\trevert(\"Unsupported stat\");\n    }\n\n    /**\n     * @notice Defines a set of stats that can be derived\n     *\n     * @return An enumerable set (actually, an array) of stats that can be derived by the interface implementation\n    **/\n    function stats(bytes32 nft_type) external pure returns (Util.Stat[] memory) {\n\trequire(nft_type == Util.DRAGON_CARD_TYPE_CODE, \"NFT must be of Dragon Card type\");\n\tUtil.Stat[] memory stats_list = new Util.Stat[](9);\n\tstats_list[0] = Util.Stat(RARITY_STR, Util.StatType.Integer, false);\n\tstats_list[1] = Util.Stat(HEALTH_STR, Util.StatType.Integer, true);\n\tstats_list[2] = Util.Stat(TYPE_STR, Util.StatType.Integer, false);\n\tstats_list[3] = Util.Stat(ATTACK_STR, Util.StatType.Integer, true);\n\tstats_list[4] = Util.Stat(DEFENSE_STR, Util.StatType.Integer, true);\n\tstats_list[5] = Util.Stat(RARITY_OVERRIDE_STR, Util.StatType.Boolean, true);\n\tstats_list[6] = Util.Stat(CHARACTER_STR, Util.StatType.Integer, false);\n\tstats_list[7] = Util.Stat(CHARACTER_NAME_STR, Util.StatType.String, false);\n\tstats_list[8] = Util.Stat(CARD_CLAIMED_STR, Util.StatType.Boolean, true);\n\treturn stats_list;\n    }\n\n    event StatsDistribLink(address _statsDistrib);\n}\n",
  "sourcePath": "/home/vrogojin/Projects/FireZard/nft/contracts/DragonStats.sol",
  "compiler": {
    "name": "solc",
    "version": "0.8.9+commit.e5eed63a.Emscripten.clang"
  },
  "schemaVersion": "3.4.3",
  "updatedAt": "2022-02-10T15:16:10.731Z",
  "networkType": "ethereum",
  "devdoc": {
    "kind": "dev",
    "methods": {
      "getRoleAdmin(bytes32)": {
        "details": "Returns the admin role that controls `role`. See {grantRole} and {revokeRole}. To change a role's admin, use {_setRoleAdmin}."
      },
      "getRoleMember(bytes32,uint256)": {
        "details": "Returns one of the accounts that have `role`. `index` must be a value between 0 and {getRoleMemberCount}, non-inclusive. Role bearers are not sorted in any particular way, and their ordering may change at any point. WARNING: When using {getRoleMember} and {getRoleMemberCount}, make sure you perform all queries on the same block. See the following https://forum.openzeppelin.com/t/iterating-over-elements-on-enumerableset-in-openzeppelin-contracts/2296[forum post] for more information."
      },
      "getRoleMemberCount(bytes32)": {
        "details": "Returns the number of accounts that have `role`. Can be used together with {getRoleMember} to enumerate all bearers of a role."
      },
      "getStatBool(bytes32,uint256,string)": {
        "params": {
          "id": "An id generated by an RNG",
          "name": "The stats' name"
        },
        "returns": {
          "_0": "The stats' value*"
        }
      },
      "getStatByte32(bytes32,uint256,string)": {
        "params": {
          "id": "An id generated by an RNG",
          "name": "The stats' name"
        },
        "returns": {
          "_0": "The stats' value*"
        }
      },
      "getStatInt(bytes32,uint256,string)": {
        "params": {
          "id": "An id generated by an RNG",
          "name": "The stats' name"
        },
        "returns": {
          "_0": "The stats' value*"
        }
      },
      "getStatString(bytes32,uint256,string)": {
        "params": {
          "id": "An id generated by an RNG",
          "name": "The stats' name"
        },
        "returns": {
          "_0": "The stats' value*"
        }
      },
      "grantRole(bytes32,address)": {
        "details": "Grants `role` to `account`. If `account` had not been already granted `role`, emits a {RoleGranted} event. Requirements: - the caller must have ``role``'s admin role."
      },
      "hasRole(bytes32,address)": {
        "details": "Returns `true` if `account` has been granted `role`."
      },
      "owner()": {
        "details": "Returns the address of the current owner."
      },
      "renounceOwnership()": {
        "details": "Leaves the contract without owner. It will not be possible to call `onlyOwner` functions anymore. Can only be called by the current owner. NOTE: Renouncing ownership will leave the contract without an owner, thereby removing any functionality that is only available to the owner."
      },
      "renounceRole(bytes32,address)": {
        "details": "Revokes `role` from the calling account. Roles are often managed via {grantRole} and {revokeRole}: this function's purpose is to provide a mechanism for accounts to lose their privileges if they are compromised (such as when a trusted device is misplaced). If the calling account had been revoked `role`, emits a {RoleRevoked} event. Requirements: - the caller must be `account`."
      },
      "revokeRole(bytes32,address)": {
        "details": "Revokes `role` from `account`. If `account` had been granted `role`, emits a {RoleRevoked} event. Requirements: - the caller must have ``role``'s admin role."
      },
      "stats(bytes32)": {
        "returns": {
          "_0": "An enumerable set (actually, an array) of stats that can be derived by the interface implementation*"
        }
      },
      "supportsInterface(bytes4)": {
        "details": "See {IERC165-supportsInterface}."
      },
      "tokenTypeCode()": {
        "returns": {
          "_0": "Token type code*"
        }
      },
      "transferOwnership(address)": {
        "details": "Transfers ownership of the contract to a new account (`newOwner`). Can only be called by the current owner."
      }
    },
    "version": 1
  },
  "userdoc": {
    "kind": "user",
    "methods": {
      "getStatBool(bytes32,uint256,string)": {
        "notice": "Derive a boolean stat from the card's ID by the stats' name"
      },
      "getStatByte32(bytes32,uint256,string)": {
        "notice": "Derive a 32 byte array stat from the card's ID by the stats' name"
      },
      "getStatInt(bytes32,uint256,string)": {
        "notice": "Derive an integer stat from the card's ID by the stats' name"
      },
      "getStatString(bytes32,uint256,string)": {
        "notice": "Derive a string stat from the card's ID by the stats' name"
      },
      "stats(bytes32)": {
        "notice": "Defines a set of stats that can be derived"
      },
      "tokenTypeCode()": {
        "notice": "Token type code"
      }
    },
    "version": 1
  }
}