{
  "contractName": "ListenerMock2",
  "abi": [
    {
      "anonymous": false,
      "inputs": [
        {
          "indexed": false,
          "internalType": "address",
          "name": "_manager",
          "type": "address"
        }
      ],
      "name": "ContractAdded",
      "type": "event"
    },
    {
      "anonymous": false,
      "inputs": [
        {
          "indexed": false,
          "internalType": "address",
          "name": "newManager",
          "type": "address"
        }
      ],
      "name": "ContractManagerSwitch",
      "type": "event"
    },
    {
      "anonymous": false,
      "inputs": [
        {
          "indexed": false,
          "internalType": "address",
          "name": "newOwner",
          "type": "address"
        }
      ],
      "name": "ContractOwnershipUpdate",
      "type": "event"
    },
    {
      "anonymous": false,
      "inputs": [],
      "name": "ContractRemoved",
      "type": "event"
    },
    {
      "anonymous": false,
      "inputs": [
        {
          "indexed": false,
          "internalType": "address",
          "name": "contractInstance",
          "type": "address"
        }
      ],
      "name": "ContractReplaced",
      "type": "event"
    },
    {
      "anonymous": false,
      "inputs": [
        {
          "indexed": false,
          "internalType": "address",
          "name": "oldInstance",
          "type": "address"
        },
        {
          "indexed": false,
          "internalType": "address",
          "name": "_manager",
          "type": "address"
        }
      ],
      "name": "ContractUpdated",
      "type": "event"
    },
    {
      "anonymous": false,
      "inputs": [
        {
          "indexed": true,
          "internalType": "address",
          "name": "previousOwner",
          "type": "address"
        },
        {
          "indexed": true,
          "internalType": "address",
          "name": "newOwner",
          "type": "address"
        }
      ],
      "name": "OwnershipTransferred",
      "type": "event"
    },
    {
      "anonymous": false,
      "inputs": [
        {
          "indexed": true,
          "internalType": "bytes32",
          "name": "role",
          "type": "bytes32"
        },
        {
          "indexed": true,
          "internalType": "bytes32",
          "name": "previousAdminRole",
          "type": "bytes32"
        },
        {
          "indexed": true,
          "internalType": "bytes32",
          "name": "newAdminRole",
          "type": "bytes32"
        }
      ],
      "name": "RoleAdminChanged",
      "type": "event"
    },
    {
      "anonymous": false,
      "inputs": [
        {
          "indexed": true,
          "internalType": "bytes32",
          "name": "role",
          "type": "bytes32"
        },
        {
          "indexed": true,
          "internalType": "address",
          "name": "account",
          "type": "address"
        },
        {
          "indexed": true,
          "internalType": "address",
          "name": "sender",
          "type": "address"
        }
      ],
      "name": "RoleGranted",
      "type": "event"
    },
    {
      "anonymous": false,
      "inputs": [
        {
          "indexed": true,
          "internalType": "bytes32",
          "name": "role",
          "type": "bytes32"
        },
        {
          "indexed": true,
          "internalType": "address",
          "name": "account",
          "type": "address"
        },
        {
          "indexed": true,
          "internalType": "address",
          "name": "sender",
          "type": "address"
        }
      ],
      "name": "RoleRevoked",
      "type": "event"
    },
    {
      "inputs": [],
      "name": "DEFAULT_ADMIN_ROLE",
      "outputs": [
        {
          "internalType": "bytes32",
          "name": "",
          "type": "bytes32"
        }
      ],
      "stateMutability": "view",
      "type": "function"
    },
    {
      "inputs": [],
      "name": "MANAGER_ROLE",
      "outputs": [
        {
          "internalType": "bytes32",
          "name": "",
          "type": "bytes32"
        }
      ],
      "stateMutability": "view",
      "type": "function"
    },
    {
      "inputs": [],
      "name": "contract_id",
      "outputs": [
        {
          "internalType": "bytes32",
          "name": "",
          "type": "bytes32"
        }
      ],
      "stateMutability": "view",
      "type": "function"
    },
    {
      "inputs": [],
      "name": "contract_name",
      "outputs": [
        {
          "internalType": "string",
          "name": "",
          "type": "string"
        }
      ],
      "stateMutability": "view",
      "type": "function"
    },
    {
      "inputs": [
        {
          "internalType": "bytes32",
          "name": "role",
          "type": "bytes32"
        }
      ],
      "name": "getRoleAdmin",
      "outputs": [
        {
          "internalType": "bytes32",
          "name": "",
          "type": "bytes32"
        }
      ],
      "stateMutability": "view",
      "type": "function"
    },
    {
      "inputs": [
        {
          "internalType": "bytes32",
          "name": "role",
          "type": "bytes32"
        },
        {
          "internalType": "uint256",
          "name": "index",
          "type": "uint256"
        }
      ],
      "name": "getRoleMember",
      "outputs": [
        {
          "internalType": "address",
          "name": "",
          "type": "address"
        }
      ],
      "stateMutability": "view",
      "type": "function"
    },
    {
      "inputs": [
        {
          "internalType": "bytes32",
          "name": "role",
          "type": "bytes32"
        }
      ],
      "name": "getRoleMemberCount",
      "outputs": [
        {
          "internalType": "uint256",
          "name": "",
          "type": "uint256"
        }
      ],
      "stateMutability": "view",
      "type": "function"
    },
    {
      "inputs": [
        {
          "internalType": "bytes32",
          "name": "role",
          "type": "bytes32"
        },
        {
          "internalType": "address",
          "name": "account",
          "type": "address"
        }
      ],
      "name": "grantRole",
      "outputs": [],
      "stateMutability": "nonpayable",
      "type": "function"
    },
    {
      "inputs": [
        {
          "internalType": "bytes32",
          "name": "role",
          "type": "bytes32"
        },
        {
          "internalType": "address",
          "name": "account",
          "type": "address"
        }
      ],
      "name": "hasRole",
      "outputs": [
        {
          "internalType": "bool",
          "name": "",
          "type": "bool"
        }
      ],
      "stateMutability": "view",
      "type": "function"
    },
    {
      "inputs": [],
      "name": "manager",
      "outputs": [
        {
          "internalType": "address",
          "name": "",
          "type": "address"
        }
      ],
      "stateMutability": "view",
      "type": "function"
    },
    {
      "inputs": [],
      "name": "onRemoved",
      "outputs": [],
      "stateMutability": "nonpayable",
      "type": "function"
    },
    {
      "inputs": [
        {
          "internalType": "address",
          "name": "newInstance",
          "type": "address"
        }
      ],
      "name": "onReplaced",
      "outputs": [],
      "stateMutability": "nonpayable",
      "type": "function"
    },
    {
      "inputs": [],
      "name": "owner",
      "outputs": [
        {
          "internalType": "address",
          "name": "",
          "type": "address"
        }
      ],
      "stateMutability": "view",
      "type": "function"
    },
    {
      "inputs": [],
      "name": "renounceOwnership",
      "outputs": [],
      "stateMutability": "nonpayable",
      "type": "function"
    },
    {
      "inputs": [
        {
          "internalType": "bytes32",
          "name": "role",
          "type": "bytes32"
        },
        {
          "internalType": "address",
          "name": "account",
          "type": "address"
        }
      ],
      "name": "renounceRole",
      "outputs": [],
      "stateMutability": "nonpayable",
      "type": "function"
    },
    {
      "inputs": [
        {
          "internalType": "bytes32",
          "name": "role",
          "type": "bytes32"
        },
        {
          "internalType": "address",
          "name": "account",
          "type": "address"
        }
      ],
      "name": "revokeRole",
      "outputs": [],
      "stateMutability": "nonpayable",
      "type": "function"
    },
    {
      "inputs": [
        {
          "internalType": "bytes4",
          "name": "interfaceId",
          "type": "bytes4"
        }
      ],
      "name": "supportsInterface",
      "outputs": [
        {
          "internalType": "bool",
          "name": "",
          "type": "bool"
        }
      ],
      "stateMutability": "view",
      "type": "function"
    },
    {
      "inputs": [
        {
          "internalType": "address",
          "name": "newManager",
          "type": "address"
        }
      ],
      "name": "switchManager",
      "outputs": [],
      "stateMutability": "nonpayable",
      "type": "function"
    },
    {
      "inputs": [
        {
          "internalType": "address",
          "name": "newOwner",
          "type": "address"
        }
      ],
      "name": "transferOwnership",
      "outputs": [],
      "stateMutability": "nonpayable",
      "type": "function"
    },
    {
      "inputs": [
        {
          "internalType": "address",
          "name": "newOwner",
          "type": "address"
        }
      ],
      "name": "updateOwnership",
      "outputs": [],
      "stateMutability": "nonpayable",
      "type": "function"
    },
    {
      "inputs": [],
      "name": "value",
      "outputs": [
        {
          "internalType": "uint256",
          "name": "",
          "type": "uint256"
        }
      ],
      "stateMutability": "view",
      "type": "function"
    },
    {
      "inputs": [],
      "name": "getName",
      "outputs": [
        {
          "internalType": "string",
          "name": "",
          "type": "string"
        }
      ],
      "stateMutability": "pure",
      "type": "function"
    },
    {
      "inputs": [],
      "name": "getId",
      "outputs": [
        {
          "internalType": "bytes32",
          "name": "",
          "type": "bytes32"
        }
      ],
      "stateMutability": "pure",
      "type": "function"
    },
    {
      "inputs": [
        {
          "internalType": "bytes32",
          "name": "hname",
          "type": "bytes32"
        },
        {
          "internalType": "address",
          "name": "contractInstance",
          "type": "address"
        },
        {
          "internalType": "bool",
          "name": "isNew",
          "type": "bool"
        }
      ],
      "name": "onListenAdded",
      "outputs": [],
      "stateMutability": "nonpayable",
      "type": "function"
    },
    {
      "inputs": [
        {
          "internalType": "bytes32",
          "name": "hname",
          "type": "bytes32"
        }
      ],
      "name": "onListenRemoved",
      "outputs": [],
      "stateMutability": "nonpayable",
      "type": "function"
    },
    {
      "inputs": [
        {
          "internalType": "address",
          "name": "oldInstance",
          "type": "address"
        },
        {
          "internalType": "address",
          "name": "_manager",
          "type": "address"
        }
      ],
      "name": "onUpdate",
      "outputs": [],
      "stateMutability": "nonpayable",
      "type": "function"
    },
    {
      "inputs": [
        {
          "internalType": "address",
          "name": "_manager",
          "type": "address"
        }
      ],
      "name": "onAdd",
      "outputs": [],
      "stateMutability": "nonpayable",
      "type": "function"
    },
    {
      "inputs": [],
      "name": "getValue",
      "outputs": [
        {
          "internalType": "uint256",
          "name": "",
          "type": "uint256"
        }
      ],
      "stateMutability": "view",
      "type": "function"
    }
  ],
  "bytecode": "0x60806040523480156200001157600080fd5b506200001d3362000030565b6200002a60003362000080565b620001be565b600080546001600160a01b038381166001600160a01b0319831681178455604051919092169283917f8be0079c531659141344cd1fd0a4f28419497f9722a3daafe3b4186f6b6457e09190a35050565b620000978282620000c360201b620007ff1760201c565b6000828152600260209081526040909120620000be9183906200086a6200014c821b17901c565b505050565b60008281526001602090815260408083206001600160a01b038516845290915290205460ff16620001485760008281526001602081815260408084206001600160a01b0386168086529252808420805460ff19169093179092559051339285917f2f8788117e7eff1d82e926ec794901d17c78024a50270940304540a733656f0d9190a45b5050565b600062000163836001600160a01b0384166200016c565b90505b92915050565b6000818152600183016020526040812054620001b55750815460018181018455600084815260208082209093018490558454848252828601909352604090209190915562000166565b50600062000166565b61145580620001ce6000396000f3fe608060405234801561001057600080fd5b50600436106101c45760003560e01c80636b2bf27f116100f9578063c69c957911610097578063d547741f11610071578063d547741f146103aa578063d9479692146103bd578063ec87621c146103e9578063f2fde38b146103fe57600080fd5b8063c69c957914610373578063ca15c87314610386578063d4697a471461039957600080fd5b80638da5cb5b116100d35780638da5cb5b146103345780639010d07c1461034557806391d1485414610358578063a217fddf1461036b57600080fd5b80636b2bf27f14610306578063715018a6146103195780638840891e1461032157600080fd5b80632f2ff15d116101665780633fa4f245116101405780633fa4f245146102b7578063481c6a75146102c05780635d1ca631146102eb5780635df11291146102f357600080fd5b80632f2ff15d1461028957806336568abe1461029c5780633ad32d16146102af57600080fd5b806317d7de7c116101a257806317d7de7c146102195780631a6f04f31461024b5780632096525514610253578063248a9ca31461026557600080fd5b806301ffc9a7146101c95780630447a2cd146101f157806316f28d2414610206575b600080fd5b6101dc6101d73660046110a1565b610411565b60405190151581526020015b60405180910390f35b6102046101ff3660046110e7565b61043c565b005b61020461021436600461111a565b505050565b60408051808201909152600d81526c2634b9ba32b732b926b7b1b59960991b60208201525b6040516101e8919061118f565b6102046104c9565b6004545b6040519081526020016101e8565b6102576102733660046111c2565b6000908152600160208190526040909120015490565b6102046102973660046111db565b6104d3565b6102046102aa3660046111db565b6104fa565b61025761057d565b61025760045481565b6003546102d3906001600160a01b031681565b6040516001600160a01b0390911681526020016101e8565b6102576105cc565b6102046103013660046111fe565b61061f565b6102046103143660046111fe565b610628565b610204610631565b61020461032f3660046111fe565b610695565b6000546001600160a01b03166102d3565b6102d3610353366004611219565b6106a6565b6101dc6103663660046111db565b6106c5565b610257600081565b6102046103813660046111fe565b6106f0565b6102576103943660046111c2565b6106f9565b6102046103a73660046111c2565b50565b6102046103b83660046111db565b610710565b61023e6040518060400160405280600d81526020016c2634b9ba32b732b926b7b1b59960991b81525081565b61025760008051602061140083398151915281565b61020461040c3660046111fe565b610737565b60006001600160e01b0319821663ee7ed59960e01b148061043657506104368261087f565b92915050565b61044682826108a4565b816001600160a01b031663209652556040518163ffffffff1660e01b815260040160206040518083038186803b15801561047f57600080fd5b505afa158015610493573d6000803e3d6000fd5b505050506040513d601f19601f820116820180604052508101906104b7919061123b565b6104c290600361126a565b6004555050565b6104d1610937565b565b600082815260016020819052604090912001546104f081336109a6565b6102148383610a0a565b6001600160a01b038116331461056f5760405162461bcd60e51b815260206004820152602f60248201527f416363657373436f6e74726f6c3a2063616e206f6e6c792072656e6f756e636560448201526e103937b632b9903337b91039b2b63360891b60648201526084015b60405180910390fd5b6105798282610a2c565b5050565b6040518060400160405280600d81526020016c2634b9ba32b732b926b7b1b59960991b8152506040516020016105b39190611282565b6040516020818303038152906040528051906020012081565b60006040518060400160405280600d81526020016c2634b9ba32b732b926b7b1b59960991b8152506040516020016106049190611282565b60405160208183030381529060405280519060200120905090565b6103a781610a4e565b6103a781610b0d565b6000546001600160a01b0316331461068b5760405162461bcd60e51b815260206004820181905260248201527f4f776e61626c653a2063616c6c6572206973206e6f7420746865206f776e65726044820152606401610566565b6104d16000610b83565b61069e81610bd3565b506001600455565b60008281526002602052604081206106be9083610c55565b9392505050565b60009182526001602090815260408084206001600160a01b0393909316845291905290205460ff1690565b6103a781610c61565b600081815260026020526040812061043690610cde565b6000828152600160208190526040909120015461072d81336109a6565b6102148383610a2c565b6000546001600160a01b031633146107915760405162461bcd60e51b815260206004820181905260248201527f4f776e61626c653a2063616c6c6572206973206e6f7420746865206f776e65726044820152606401610566565b6001600160a01b0381166107f65760405162461bcd60e51b815260206004820152602660248201527f4f776e61626c653a206e6577206f776e657220697320746865207a65726f206160448201526564647265737360d01b6064820152608401610566565b6103a781610b83565b61080982826106c5565b6105795760008281526001602081815260408084206001600160a01b0386168086529252808420805460ff19169093179092559051339285917f2f8788117e7eff1d82e926ec794901d17c78024a50270940304540a733656f0d9190a45050565b60006106be836001600160a01b038416610ce8565b60006001600160e01b03198216635a05180f60e01b1480610436575061043682610d37565b6108bc600080516020611400833981519152336106c5565b6108d85760405162461bcd60e51b81526004016105669061129e565b600380546001600160a01b0319166001600160a01b0383811691821790925560408051928516835260208301919091527ff6515f2a6d531f16723c1e578303b7d74152bf8c0fa3bee828700a3d4706da8d910160405180910390a15050565b61094f600080516020611400833981519152336106c5565b61096b5760405162461bcd60e51b81526004016105669061129e565b600380546001600160a01b03191690556040517f9a9a74cf290a994f69a718e8557deb1dd65135268f40e660cecddf675f5dd51490600090a1565b6109b082826106c5565b610579576109c8816001600160a01b03166014610d6c565b6109d3836020610d6c565b6040516020016109e49291906112fb565b60408051601f198184030181529082905262461bcd60e51b82526105669160040161118f565b610a1482826107ff565b6000828152600260205260409020610214908261086a565b610a368282610f08565b60008281526002602052604090206102149082610f6f565b610a66600080516020611400833981519152336106c5565b610a825760405162461bcd60e51b81526004016105669061129e565b600380546001600160a01b0319166001600160a01b038316179055610ab5600080516020611400833981519152826104d3565b610acd60008051602061140083398151915233610710565b6040516001600160a01b03821681527f8eb47098f9568be754f51d21a870c8091ee0242cf97418db00927326d0e6ffcf906020015b60405180910390a150565b610b25600080516020611400833981519152336106c5565b610b415760405162461bcd60e51b81526004016105669061129e565b610b4a81610737565b6040516001600160a01b03821681527ff2addf7f813887cf0fdd82b58fcc379ab2301e95c90b41a8cf2e5401914689c990602001610b02565b600080546001600160a01b038381166001600160a01b0319831681178455604051919092169283917f8be0079c531659141344cd1fd0a4f28419497f9722a3daafe3b4186f6b6457e09190a35050565b610beb600080516020611400833981519152336106c5565b610c075760405162461bcd60e51b81526004016105669061129e565b600380546001600160a01b0319166001600160a01b0383169081179091556040519081527f89c66952b48f3e96bf1d8ba1b63189520fd988a6979b8b740bd5c5d8dc53e20590602001610b02565b60006106be8383610f84565b610c79600080516020611400833981519152336106c5565b610c955760405162461bcd60e51b81526004016105669061129e565b600380546001600160a01b03191690556040516001600160a01b03821681527f85a56ff958486f55dd742819603a46ba6233d3b24e6715f9cd5fd2ef6425d68090602001610b02565b6000610436825490565b6000818152600183016020526040812054610d2f57508154600181810184556000848152602080822090930184905584548482528286019093526040902091909155610436565b506000610436565b60006001600160e01b03198216637965db0b60e01b148061043657506301ffc9a760e01b6001600160e01b0319831614610436565b60606000610d7b836002611370565b610d8690600261126a565b67ffffffffffffffff811115610d9e57610d9e61138f565b6040519080825280601f01601f191660200182016040528015610dc8576020820181803683370190505b509050600360fc1b81600081518110610de357610de36113a5565b60200101906001600160f81b031916908160001a905350600f60fb1b81600181518110610e1257610e126113a5565b60200101906001600160f81b031916908160001a9053506000610e36846002611370565b610e4190600161126a565b90505b6001811115610eb9576f181899199a1a9b1b9c1cb0b131b232b360811b85600f1660108110610e7557610e756113a5565b1a60f81b828281518110610e8b57610e8b6113a5565b60200101906001600160f81b031916908160001a90535060049490941c93610eb2816113bb565b9050610e44565b5083156106be5760405162461bcd60e51b815260206004820181905260248201527f537472696e67733a20686578206c656e67746820696e73756666696369656e746044820152606401610566565b610f1282826106c5565b156105795760008281526001602090815260408083206001600160a01b0385168085529252808320805460ff1916905551339285917ff6391f5c32d9c69d2a47ea670b442974b53935d1edc7fd64eb21e047a839171b9190a45050565b60006106be836001600160a01b038416610fae565b6000826000018281548110610f9b57610f9b6113a5565b9060005260206000200154905092915050565b60008181526001830160205260408120548015611097576000610fd26001836113d2565b8554909150600090610fe6906001906113d2565b905081811461104b576000866000018281548110611006576110066113a5565b9060005260206000200154905080876000018481548110611029576110296113a5565b6000918252602080832090910192909255918252600188019052604090208390555b855486908061105c5761105c6113e9565b600190038181906000526020600020016000905590558560010160008681526020019081526020016000206000905560019350505050610436565b6000915050610436565b6000602082840312156110b357600080fd5b81356001600160e01b0319811681146106be57600080fd5b80356001600160a01b03811681146110e257600080fd5b919050565b600080604083850312156110fa57600080fd5b611103836110cb565b9150611111602084016110cb565b90509250929050565b60008060006060848603121561112f57600080fd5b8335925061113f602085016110cb565b91506040840135801515811461115457600080fd5b809150509250925092565b60005b8381101561117a578181015183820152602001611162565b83811115611189576000848401525b50505050565b60208152600082518060208401526111ae81604085016020870161115f565b601f01601f19169190910160400192915050565b6000602082840312156111d457600080fd5b5035919050565b600080604083850312156111ee57600080fd5b82359150611111602084016110cb565b60006020828403121561121057600080fd5b6106be826110cb565b6000806040838503121561122c57600080fd5b50508035926020909101359150565b60006020828403121561124d57600080fd5b5051919050565b634e487b7160e01b600052601160045260246000fd5b6000821982111561127d5761127d611254565b500190565b6000825161129481846020870161115f565b9190910192915050565b6020808252603b908201527f43726f7373436f6e74726163744d616e4c697374656e65723a2074686520636160408201527f6c6c6572206d7573742068617665204d414e414745525f524f4c450000000000606082015260800190565b7f416363657373436f6e74726f6c3a206163636f756e742000000000000000000081526000835161133381601785016020880161115f565b7001034b99036b4b9b9b4b733903937b6329607d1b601791840191820152835161136481602884016020880161115f565b01602801949350505050565b600081600019048311821515161561138a5761138a611254565b500290565b634e487b7160e01b600052604160045260246000fd5b634e487b7160e01b600052603260045260246000fd5b6000816113ca576113ca611254565b506000190190565b6000828210156113e4576113e4611254565b500390565b634e487b7160e01b600052603160045260246000fdfe241ecf16d79d0f8dbfb92cbc07fe17840425976cf0667f022fe9877caa831b08a2646970667358221220330beee01806da3e4af225225e7be2a75dc6df987790b9b728746cf2922ddcfe64736f6c63430008090033",
  "immutableReferences": {},
  "source": "\npragma solidity ^0.8;\n\nimport \"../CrossContractManListener.sol\";\n\ncontract ListenerMock2 is CrossContractManListener {\n    string  public constant contract_name = 'ListenerMock2';\n    bytes32 public constant contract_id = keccak256(abi.encodePacked(contract_name));\n\n    uint256 public value;\n\n    function getName() pure external returns(string memory) {\n\treturn contract_name;\n    }\n\n    function getId() pure external returns(bytes32) {\n\treturn contract_id;\n    }\n\n    function onListenAdded(bytes32 hname, address contractInstance, bool isNew) external override {\n//\tsuper._onListenAdded(hname, contractInstance, isNew);\n    }\n\n    function onListenRemoved(bytes32 hname) external override {\n//\tsuper._onListenRemoved(hname);\n    }\n\n    function onUpdate(address oldInstance, address _manager) external override {\n\tsuper._onUpdate(oldInstance, _manager);\n\tvalue = ListenerMock2(oldInstance).getValue()+3;\n    }\n\n    function onAdd(address _manager) external override {\n\tsuper._onAdd(_manager);\n\tvalue = 1;\n    }\n\n    function getValue() public view returns(uint256){\n\treturn value;\n    }\n\n}",
  "sourcePath": "/home/vrogojin/Projects/FireZard/nft/contracts/mocks/ListenerMock2.sol",
  "compiler": {
    "name": "solc",
    "version": "0.8.9+commit.e5eed63a.Emscripten.clang"
  },
  "schemaVersion": "3.4.3",
  "updatedAt": "2022-02-10T13:47:31.454Z",
  "devdoc": {
    "kind": "dev",
    "methods": {
      "getRoleAdmin(bytes32)": {
        "details": "Returns the admin role that controls `role`. See {grantRole} and {revokeRole}. To change a role's admin, use {_setRoleAdmin}."
      },
      "getRoleMember(bytes32,uint256)": {
        "details": "Returns one of the accounts that have `role`. `index` must be a value between 0 and {getRoleMemberCount}, non-inclusive. Role bearers are not sorted in any particular way, and their ordering may change at any point. WARNING: When using {getRoleMember} and {getRoleMemberCount}, make sure you perform all queries on the same block. See the following https://forum.openzeppelin.com/t/iterating-over-elements-on-enumerableset-in-openzeppelin-contracts/2296[forum post] for more information."
      },
      "getRoleMemberCount(bytes32)": {
        "details": "Returns the number of accounts that have `role`. Can be used together with {getRoleMember} to enumerate all bearers of a role."
      },
      "grantRole(bytes32,address)": {
        "details": "Grants `role` to `account`. If `account` had not been already granted `role`, emits a {RoleGranted} event. Requirements: - the caller must have ``role``'s admin role."
      },
      "hasRole(bytes32,address)": {
        "details": "Returns `true` if `account` has been granted `role`."
      },
      "owner()": {
        "details": "Returns the address of the current owner."
      },
      "renounceOwnership()": {
        "details": "Leaves the contract without owner. It will not be possible to call `onlyOwner` functions anymore. Can only be called by the current owner. NOTE: Renouncing ownership will leave the contract without an owner, thereby removing any functionality that is only available to the owner."
      },
      "renounceRole(bytes32,address)": {
        "details": "Revokes `role` from the calling account. Roles are often managed via {grantRole} and {revokeRole}: this function's purpose is to provide a mechanism for accounts to lose their privileges if they are compromised (such as when a trusted device is misplaced). If the calling account had been revoked `role`, emits a {RoleRevoked} event. Requirements: - the caller must be `account`."
      },
      "revokeRole(bytes32,address)": {
        "details": "Revokes `role` from `account`. If `account` had been granted `role`, emits a {RoleRevoked} event. Requirements: - the caller must have ``role``'s admin role."
      },
      "supportsInterface(bytes4)": {
        "details": "See {IERC165-supportsInterface}."
      },
      "transferOwnership(address)": {
        "details": "Transfers ownership of the contract to a new account (`newOwner`). Can only be called by the current owner."
      }
    },
    "version": 1
  },
  "userdoc": {
    "kind": "user",
    "methods": {},
    "version": 1
  }
}