{
  "contractName": "ListenerMock1",
  "abi": [
    {
      "anonymous": false,
      "inputs": [
        {
          "indexed": false,
          "internalType": "address",
          "name": "_manager",
          "type": "address"
        }
      ],
      "name": "ContractAdded",
      "type": "event"
    },
    {
      "anonymous": false,
      "inputs": [
        {
          "indexed": false,
          "internalType": "address",
          "name": "newManager",
          "type": "address"
        }
      ],
      "name": "ContractManagerSwitch",
      "type": "event"
    },
    {
      "anonymous": false,
      "inputs": [
        {
          "indexed": false,
          "internalType": "address",
          "name": "newOwner",
          "type": "address"
        }
      ],
      "name": "ContractOwnershipUpdate",
      "type": "event"
    },
    {
      "anonymous": false,
      "inputs": [],
      "name": "ContractRemoved",
      "type": "event"
    },
    {
      "anonymous": false,
      "inputs": [
        {
          "indexed": false,
          "internalType": "address",
          "name": "contractInstance",
          "type": "address"
        }
      ],
      "name": "ContractReplaced",
      "type": "event"
    },
    {
      "anonymous": false,
      "inputs": [
        {
          "indexed": false,
          "internalType": "address",
          "name": "oldInstance",
          "type": "address"
        },
        {
          "indexed": false,
          "internalType": "address",
          "name": "_manager",
          "type": "address"
        }
      ],
      "name": "ContractUpdated",
      "type": "event"
    },
    {
      "anonymous": false,
      "inputs": [
        {
          "indexed": true,
          "internalType": "address",
          "name": "previousOwner",
          "type": "address"
        },
        {
          "indexed": true,
          "internalType": "address",
          "name": "newOwner",
          "type": "address"
        }
      ],
      "name": "OwnershipTransferred",
      "type": "event"
    },
    {
      "anonymous": false,
      "inputs": [
        {
          "indexed": true,
          "internalType": "bytes32",
          "name": "role",
          "type": "bytes32"
        },
        {
          "indexed": true,
          "internalType": "bytes32",
          "name": "previousAdminRole",
          "type": "bytes32"
        },
        {
          "indexed": true,
          "internalType": "bytes32",
          "name": "newAdminRole",
          "type": "bytes32"
        }
      ],
      "name": "RoleAdminChanged",
      "type": "event"
    },
    {
      "anonymous": false,
      "inputs": [
        {
          "indexed": true,
          "internalType": "bytes32",
          "name": "role",
          "type": "bytes32"
        },
        {
          "indexed": true,
          "internalType": "address",
          "name": "account",
          "type": "address"
        },
        {
          "indexed": true,
          "internalType": "address",
          "name": "sender",
          "type": "address"
        }
      ],
      "name": "RoleGranted",
      "type": "event"
    },
    {
      "anonymous": false,
      "inputs": [
        {
          "indexed": true,
          "internalType": "bytes32",
          "name": "role",
          "type": "bytes32"
        },
        {
          "indexed": true,
          "internalType": "address",
          "name": "account",
          "type": "address"
        },
        {
          "indexed": true,
          "internalType": "address",
          "name": "sender",
          "type": "address"
        }
      ],
      "name": "RoleRevoked",
      "type": "event"
    },
    {
      "inputs": [],
      "name": "DEFAULT_ADMIN_ROLE",
      "outputs": [
        {
          "internalType": "bytes32",
          "name": "",
          "type": "bytes32"
        }
      ],
      "stateMutability": "view",
      "type": "function"
    },
    {
      "inputs": [],
      "name": "MANAGER_ROLE",
      "outputs": [
        {
          "internalType": "bytes32",
          "name": "",
          "type": "bytes32"
        }
      ],
      "stateMutability": "view",
      "type": "function"
    },
    {
      "inputs": [],
      "name": "contract_id",
      "outputs": [
        {
          "internalType": "bytes32",
          "name": "",
          "type": "bytes32"
        }
      ],
      "stateMutability": "view",
      "type": "function"
    },
    {
      "inputs": [],
      "name": "contract_name",
      "outputs": [
        {
          "internalType": "string",
          "name": "",
          "type": "string"
        }
      ],
      "stateMutability": "view",
      "type": "function"
    },
    {
      "inputs": [
        {
          "internalType": "bytes32",
          "name": "role",
          "type": "bytes32"
        }
      ],
      "name": "getRoleAdmin",
      "outputs": [
        {
          "internalType": "bytes32",
          "name": "",
          "type": "bytes32"
        }
      ],
      "stateMutability": "view",
      "type": "function"
    },
    {
      "inputs": [
        {
          "internalType": "bytes32",
          "name": "role",
          "type": "bytes32"
        },
        {
          "internalType": "uint256",
          "name": "index",
          "type": "uint256"
        }
      ],
      "name": "getRoleMember",
      "outputs": [
        {
          "internalType": "address",
          "name": "",
          "type": "address"
        }
      ],
      "stateMutability": "view",
      "type": "function"
    },
    {
      "inputs": [
        {
          "internalType": "bytes32",
          "name": "role",
          "type": "bytes32"
        }
      ],
      "name": "getRoleMemberCount",
      "outputs": [
        {
          "internalType": "uint256",
          "name": "",
          "type": "uint256"
        }
      ],
      "stateMutability": "view",
      "type": "function"
    },
    {
      "inputs": [
        {
          "internalType": "bytes32",
          "name": "role",
          "type": "bytes32"
        },
        {
          "internalType": "address",
          "name": "account",
          "type": "address"
        }
      ],
      "name": "grantRole",
      "outputs": [],
      "stateMutability": "nonpayable",
      "type": "function"
    },
    {
      "inputs": [
        {
          "internalType": "bytes32",
          "name": "role",
          "type": "bytes32"
        },
        {
          "internalType": "address",
          "name": "account",
          "type": "address"
        }
      ],
      "name": "hasRole",
      "outputs": [
        {
          "internalType": "bool",
          "name": "",
          "type": "bool"
        }
      ],
      "stateMutability": "view",
      "type": "function"
    },
    {
      "inputs": [],
      "name": "manager",
      "outputs": [
        {
          "internalType": "address",
          "name": "",
          "type": "address"
        }
      ],
      "stateMutability": "view",
      "type": "function"
    },
    {
      "inputs": [],
      "name": "mock2",
      "outputs": [
        {
          "internalType": "address",
          "name": "",
          "type": "address"
        }
      ],
      "stateMutability": "view",
      "type": "function"
    },
    {
      "inputs": [
        {
          "internalType": "address",
          "name": "_manager",
          "type": "address"
        }
      ],
      "name": "onAdd",
      "outputs": [],
      "stateMutability": "nonpayable",
      "type": "function"
    },
    {
      "inputs": [],
      "name": "onRemoved",
      "outputs": [],
      "stateMutability": "nonpayable",
      "type": "function"
    },
    {
      "inputs": [
        {
          "internalType": "address",
          "name": "newInstance",
          "type": "address"
        }
      ],
      "name": "onReplaced",
      "outputs": [],
      "stateMutability": "nonpayable",
      "type": "function"
    },
    {
      "inputs": [
        {
          "internalType": "address",
          "name": "oldInstance",
          "type": "address"
        },
        {
          "internalType": "address",
          "name": "_manager",
          "type": "address"
        }
      ],
      "name": "onUpdate",
      "outputs": [],
      "stateMutability": "nonpayable",
      "type": "function"
    },
    {
      "inputs": [],
      "name": "owner",
      "outputs": [
        {
          "internalType": "address",
          "name": "",
          "type": "address"
        }
      ],
      "stateMutability": "view",
      "type": "function"
    },
    {
      "inputs": [],
      "name": "renounceOwnership",
      "outputs": [],
      "stateMutability": "nonpayable",
      "type": "function"
    },
    {
      "inputs": [
        {
          "internalType": "bytes32",
          "name": "role",
          "type": "bytes32"
        },
        {
          "internalType": "address",
          "name": "account",
          "type": "address"
        }
      ],
      "name": "renounceRole",
      "outputs": [],
      "stateMutability": "nonpayable",
      "type": "function"
    },
    {
      "inputs": [
        {
          "internalType": "bytes32",
          "name": "role",
          "type": "bytes32"
        },
        {
          "internalType": "address",
          "name": "account",
          "type": "address"
        }
      ],
      "name": "revokeRole",
      "outputs": [],
      "stateMutability": "nonpayable",
      "type": "function"
    },
    {
      "inputs": [
        {
          "internalType": "bytes4",
          "name": "interfaceId",
          "type": "bytes4"
        }
      ],
      "name": "supportsInterface",
      "outputs": [
        {
          "internalType": "bool",
          "name": "",
          "type": "bool"
        }
      ],
      "stateMutability": "view",
      "type": "function"
    },
    {
      "inputs": [
        {
          "internalType": "address",
          "name": "newManager",
          "type": "address"
        }
      ],
      "name": "switchManager",
      "outputs": [],
      "stateMutability": "nonpayable",
      "type": "function"
    },
    {
      "inputs": [
        {
          "internalType": "address",
          "name": "newOwner",
          "type": "address"
        }
      ],
      "name": "transferOwnership",
      "outputs": [],
      "stateMutability": "nonpayable",
      "type": "function"
    },
    {
      "inputs": [
        {
          "internalType": "address",
          "name": "newOwner",
          "type": "address"
        }
      ],
      "name": "updateOwnership",
      "outputs": [],
      "stateMutability": "nonpayable",
      "type": "function"
    },
    {
      "inputs": [],
      "name": "getName",
      "outputs": [
        {
          "internalType": "string",
          "name": "",
          "type": "string"
        }
      ],
      "stateMutability": "pure",
      "type": "function"
    },
    {
      "inputs": [],
      "name": "getId",
      "outputs": [
        {
          "internalType": "bytes32",
          "name": "",
          "type": "bytes32"
        }
      ],
      "stateMutability": "pure",
      "type": "function"
    },
    {
      "inputs": [
        {
          "internalType": "bytes32",
          "name": "hname",
          "type": "bytes32"
        },
        {
          "internalType": "address",
          "name": "contractInstance",
          "type": "address"
        },
        {
          "internalType": "bool",
          "name": "isNew",
          "type": "bool"
        }
      ],
      "name": "onListenAdded",
      "outputs": [],
      "stateMutability": "nonpayable",
      "type": "function"
    },
    {
      "inputs": [
        {
          "internalType": "bytes32",
          "name": "hname",
          "type": "bytes32"
        }
      ],
      "name": "onListenRemoved",
      "outputs": [],
      "stateMutability": "nonpayable",
      "type": "function"
    },
    {
      "inputs": [],
      "name": "getValue",
      "outputs": [
        {
          "internalType": "uint256",
          "name": "",
          "type": "uint256"
        }
      ],
      "stateMutability": "view",
      "type": "function"
    }
  ],
  "bytecode": "0x60806040527f68ffd5828f6e8512d8c01bfb87b312eb23676c95c99356bc8923ca508a8fda786004553480156200003557600080fd5b50620000413362000054565b6200004e600033620000a4565b620001e2565b600080546001600160a01b038381166001600160a01b0319831681178455604051919092169283917f8be0079c531659141344cd1fd0a4f28419497f9722a3daafe3b4186f6b6457e09190a35050565b620000bb8282620000e760201b620008bd1760201c565b6000828152600260209081526040909120620000e29183906200092862000170821b17901c565b505050565b60008281526001602090815260408083206001600160a01b038516845290915290205460ff166200016c5760008281526001602081815260408084206001600160a01b0386168086529252808420805460ff19169093179092559051339285917f2f8788117e7eff1d82e926ec794901d17c78024a50270940304540a733656f0d9190a45b5050565b600062000187836001600160a01b03841662000190565b90505b92915050565b6000818152600183016020526040812054620001d9575081546001818101845560008481526020808220909301849055845484825282860190935260409020919091556200018a565b5060006200018a565b61151380620001f26000396000f3fe608060405234801561001057600080fd5b50600436106101c45760003560e01c80636b2bf27f116100f9578063c69c957911610097578063d547741f11610071578063d547741f146103ba578063d9479692146103cd578063ec87621c146103f9578063f2fde38b1461040e57600080fd5b8063c69c957914610381578063ca15c87314610394578063d4697a47146103a757600080fd5b80638da5cb5b116100d35780638da5cb5b146103425780639010d07c1461035357806391d1485414610366578063a217fddf1461037957600080fd5b80636b2bf27f14610314578063715018a6146103275780638840891e1461032f57600080fd5b8063248a9ca3116101665780633ad32d16116101405780633ad32d16146102de578063481c6a75146102e65780635d1ca631146102f95780635df112911461030157600080fd5b8063248a9ca3146102945780632f2ff15d146102b857806336568abe146102cb57600080fd5b806316f28d24116101a257806316f28d241461023157806317d7de7c146102445780631a6f04f314610276578063209652551461027e57600080fd5b806301ffc9a7146101c95780630447a2cd146101f157806305e2387f14610206575b600080fd5b6101dc6101d736600461115f565b610421565b60405190151581526020015b60405180910390f35b6102046101ff3660046111a5565b61044c565b005b600554610219906001600160a01b031681565b6040516001600160a01b0390911681526020016101e8565b61020461023f3660046111d8565b61045a565b60408051808201909152600d81526c4c697374656e65724d6f636b3160981b60208201525b6040516101e8919061124d565b6102046104c2565b6102866104cc565b6040519081526020016101e8565b6102866102a2366004611280565b6000908152600160208190526040909120015490565b6102046102c6366004611299565b61054e565b6102046102d9366004611299565b610575565b6102866105ef565b600354610219906001600160a01b031681565b61028661063e565b61020461030f3660046112bc565b610691565b6102046103223660046112bc565b61069d565b6102046106a6565b61020461033d3660046112bc565b61070a565b6000546001600160a01b0316610219565b6102196103613660046112d7565b610713565b6101dc610374366004611299565b610732565b610286600081565b61020461038f3660046112bc565b61075d565b6102866103a2366004611280565b610766565b6102046103b5366004611280565b61077d565b6102046103c8366004611299565b6107ce565b6102696040518060400160405280600d81526020016c4c697374656e65724d6f636b3160981b81525081565b6102866000805160206114be83398151915281565b61020461041c3660046112bc565b6107f5565b60006001600160e01b0319821663ee7ed59960e01b148061044657506104468261093d565b92915050565b6104568282610962565b5050565b6104726000805160206114be83398151915233610732565b6104975760405162461bcd60e51b815260040161048e906112f9565b60405180910390fd5b6004548314156104bd57600580546001600160a01b0319166001600160a01b0384161790555b505050565b6104ca6109f5565b565b60055460408051632096525560e01b815290516000926001600160a01b0316916320965255916004808301926020929190829003018186803b15801561051157600080fd5b505afa158015610525573d6000803e3d6000fd5b505050506040513d601f19601f820116820180604052508101906105499190611356565b905090565b6000828152600160208190526040909120015461056b8133610a64565b6104bd8383610ac8565b6001600160a01b03811633146105e55760405162461bcd60e51b815260206004820152602f60248201527f416363657373436f6e74726f6c3a2063616e206f6e6c792072656e6f756e636560448201526e103937b632b9903337b91039b2b63360891b606482015260840161048e565b6104568282610aea565b6040518060400160405280600d81526020016c4c697374656e65724d6f636b3160981b815250604051602001610625919061136f565b6040516020818303038152906040528051906020012081565b60006040518060400160405280600d81526020016c4c697374656e65724d6f636b3160981b815250604051602001610676919061136f565b60405160208183030381529060405280519060200120905090565b61069a81610b0c565b50565b61069a81610bcb565b6000546001600160a01b031633146107005760405162461bcd60e51b815260206004820181905260248201527f4f776e61626c653a2063616c6c6572206973206e6f7420746865206f776e6572604482015260640161048e565b6104ca6000610c41565b61069a81610c91565b600082815260026020526040812061072b9083610d13565b9392505050565b60009182526001602090815260408084206001600160a01b0393909316845291905290205460ff1690565b61069a81610d1f565b600081815260026020526040812061044690610d9c565b6107956000805160206114be83398151915233610732565b6107b15760405162461bcd60e51b815260040161048e906112f9565b60045481141561069a57600580546001600160a01b031916905550565b600082815260016020819052604090912001546107eb8133610a64565b6104bd8383610aea565b6000546001600160a01b0316331461084f5760405162461bcd60e51b815260206004820181905260248201527f4f776e61626c653a2063616c6c6572206973206e6f7420746865206f776e6572604482015260640161048e565b6001600160a01b0381166108b45760405162461bcd60e51b815260206004820152602660248201527f4f776e61626c653a206e6577206f776e657220697320746865207a65726f206160448201526564647265737360d01b606482015260840161048e565b61069a81610c41565b6108c78282610732565b6104565760008281526001602081815260408084206001600160a01b0386168086529252808420805460ff19169093179092559051339285917f2f8788117e7eff1d82e926ec794901d17c78024a50270940304540a733656f0d9190a45050565b600061072b836001600160a01b038416610da6565b60006001600160e01b03198216635a05180f60e01b1480610446575061044682610df5565b61097a6000805160206114be83398151915233610732565b6109965760405162461bcd60e51b815260040161048e906112f9565b600380546001600160a01b0319166001600160a01b0383811691821790925560408051928516835260208301919091527ff6515f2a6d531f16723c1e578303b7d74152bf8c0fa3bee828700a3d4706da8d910160405180910390a15050565b610a0d6000805160206114be83398151915233610732565b610a295760405162461bcd60e51b815260040161048e906112f9565b600380546001600160a01b03191690556040517f9a9a74cf290a994f69a718e8557deb1dd65135268f40e660cecddf675f5dd51490600090a1565b610a6e8282610732565b61045657610a86816001600160a01b03166014610e2a565b610a91836020610e2a565b604051602001610aa292919061138b565b60408051601f198184030181529082905262461bcd60e51b825261048e9160040161124d565b610ad282826108bd565b60008281526002602052604090206104bd9082610928565b610af48282610fc6565b60008281526002602052604090206104bd908261102d565b610b246000805160206114be83398151915233610732565b610b405760405162461bcd60e51b815260040161048e906112f9565b600380546001600160a01b0319166001600160a01b038316179055610b736000805160206114be8339815191528261054e565b610b8b6000805160206114be833981519152336107ce565b6040516001600160a01b03821681527f8eb47098f9568be754f51d21a870c8091ee0242cf97418db00927326d0e6ffcf906020015b60405180910390a150565b610be36000805160206114be83398151915233610732565b610bff5760405162461bcd60e51b815260040161048e906112f9565b610c08816107f5565b6040516001600160a01b03821681527ff2addf7f813887cf0fdd82b58fcc379ab2301e95c90b41a8cf2e5401914689c990602001610bc0565b600080546001600160a01b038381166001600160a01b0319831681178455604051919092169283917f8be0079c531659141344cd1fd0a4f28419497f9722a3daafe3b4186f6b6457e09190a35050565b610ca96000805160206114be83398151915233610732565b610cc55760405162461bcd60e51b815260040161048e906112f9565b600380546001600160a01b0319166001600160a01b0383169081179091556040519081527f89c66952b48f3e96bf1d8ba1b63189520fd988a6979b8b740bd5c5d8dc53e20590602001610bc0565b600061072b8383611042565b610d376000805160206114be83398151915233610732565b610d535760405162461bcd60e51b815260040161048e906112f9565b600380546001600160a01b03191690556040516001600160a01b03821681527f85a56ff958486f55dd742819603a46ba6233d3b24e6715f9cd5fd2ef6425d68090602001610bc0565b6000610446825490565b6000818152600183016020526040812054610ded57508154600181810184556000848152602080822090930184905584548482528286019093526040902091909155610446565b506000610446565b60006001600160e01b03198216637965db0b60e01b148061044657506301ffc9a760e01b6001600160e01b0319831614610446565b60606000610e39836002611416565b610e44906002611435565b67ffffffffffffffff811115610e5c57610e5c61144d565b6040519080825280601f01601f191660200182016040528015610e86576020820181803683370190505b509050600360fc1b81600081518110610ea157610ea1611463565b60200101906001600160f81b031916908160001a905350600f60fb1b81600181518110610ed057610ed0611463565b60200101906001600160f81b031916908160001a9053506000610ef4846002611416565b610eff906001611435565b90505b6001811115610f77576f181899199a1a9b1b9c1cb0b131b232b360811b85600f1660108110610f3357610f33611463565b1a60f81b828281518110610f4957610f49611463565b60200101906001600160f81b031916908160001a90535060049490941c93610f7081611479565b9050610f02565b50831561072b5760405162461bcd60e51b815260206004820181905260248201527f537472696e67733a20686578206c656e67746820696e73756666696369656e74604482015260640161048e565b610fd08282610732565b156104565760008281526001602090815260408083206001600160a01b0385168085529252808320805460ff1916905551339285917ff6391f5c32d9c69d2a47ea670b442974b53935d1edc7fd64eb21e047a839171b9190a45050565b600061072b836001600160a01b03841661106c565b600082600001828154811061105957611059611463565b9060005260206000200154905092915050565b60008181526001830160205260408120548015611155576000611090600183611490565b85549091506000906110a490600190611490565b90508181146111095760008660000182815481106110c4576110c4611463565b90600052602060002001549050808760000184815481106110e7576110e7611463565b6000918252602080832090910192909255918252600188019052604090208390555b855486908061111a5761111a6114a7565b600190038181906000526020600020016000905590558560010160008681526020019081526020016000206000905560019350505050610446565b6000915050610446565b60006020828403121561117157600080fd5b81356001600160e01b03198116811461072b57600080fd5b80356001600160a01b03811681146111a057600080fd5b919050565b600080604083850312156111b857600080fd5b6111c183611189565b91506111cf60208401611189565b90509250929050565b6000806000606084860312156111ed57600080fd5b833592506111fd60208501611189565b91506040840135801515811461121257600080fd5b809150509250925092565b60005b83811015611238578181015183820152602001611220565b83811115611247576000848401525b50505050565b602081526000825180602084015261126c81604085016020870161121d565b601f01601f19169190910160400192915050565b60006020828403121561129257600080fd5b5035919050565b600080604083850312156112ac57600080fd5b823591506111cf60208401611189565b6000602082840312156112ce57600080fd5b61072b82611189565b600080604083850312156112ea57600080fd5b50508035926020909101359150565b6020808252603b908201527f43726f7373436f6e74726163744d616e4c697374656e65723a2074686520636160408201527f6c6c6572206d7573742068617665204d414e414745525f524f4c450000000000606082015260800190565b60006020828403121561136857600080fd5b5051919050565b6000825161138181846020870161121d565b9190910192915050565b7f416363657373436f6e74726f6c3a206163636f756e74200000000000000000008152600083516113c381601785016020880161121d565b7001034b99036b4b9b9b4b733903937b6329607d1b60179184019182015283516113f481602884016020880161121d565b01602801949350505050565b634e487b7160e01b600052601160045260246000fd5b600081600019048311821515161561143057611430611400565b500290565b6000821982111561144857611448611400565b500190565b634e487b7160e01b600052604160045260246000fd5b634e487b7160e01b600052603260045260246000fd5b60008161148857611488611400565b506000190190565b6000828210156114a2576114a2611400565b500390565b634e487b7160e01b600052603160045260246000fdfe241ecf16d79d0f8dbfb92cbc07fe17840425976cf0667f022fe9877caa831b08a2646970667358221220934f0e29908fee288e13a69e6a3632d9859c151d540c02052bcec695ddfbdba964736f6c63430008090033",
  "immutableReferences": {},
  "source": "\npragma solidity ^0.8;\n\nimport \"../CrossContractManListener.sol\";\nimport \"./ListenerMock2.sol\";\n\ncontract ListenerMock1 is CrossContractManListener {\n    string  public constant contract_name = 'ListenerMock1';\n    bytes32 public constant contract_id = keccak256(abi.encodePacked(contract_name));\n    bytes32 h_mock2 = keccak256('ListenerMock2');\n\n    address public mock2;\n\n    function getName() pure external returns(string memory) {\n\treturn contract_name;\n    }\n\n    function getId() pure external returns(bytes32) {\n\treturn contract_id;\n    }\n\n    function onListenAdded(bytes32 hname, address contractInstance, bool isNew) external onlyManager {\n//\tsuper._onListenAdded(hname, contractInstance, isNew);\n\tif(hname == h_mock2)\n\t    mock2 = contractInstance;\n    }\n\n    function onListenRemoved(bytes32 hname) external onlyManager {\n//\tsuper._onListenRemoved(hname);\n\tif(hname == h_mock2)\n\t    mock2 = address(0);\n    }\n\n    function getValue() public view returns(uint256) {\n\treturn ListenerMock2(mock2).getValue();\n    }\n\n}",
  "sourcePath": "/home/vrogojin/Projects/FireZard/nft/contracts/mocks/ListenerMock1.sol",
  "compiler": {
    "name": "solc",
    "version": "0.8.9+commit.e5eed63a.Emscripten.clang"
  },
  "schemaVersion": "3.4.3",
  "updatedAt": "2022-02-10T13:47:31.446Z",
  "devdoc": {
    "kind": "dev",
    "methods": {
      "getRoleAdmin(bytes32)": {
        "details": "Returns the admin role that controls `role`. See {grantRole} and {revokeRole}. To change a role's admin, use {_setRoleAdmin}."
      },
      "getRoleMember(bytes32,uint256)": {
        "details": "Returns one of the accounts that have `role`. `index` must be a value between 0 and {getRoleMemberCount}, non-inclusive. Role bearers are not sorted in any particular way, and their ordering may change at any point. WARNING: When using {getRoleMember} and {getRoleMemberCount}, make sure you perform all queries on the same block. See the following https://forum.openzeppelin.com/t/iterating-over-elements-on-enumerableset-in-openzeppelin-contracts/2296[forum post] for more information."
      },
      "getRoleMemberCount(bytes32)": {
        "details": "Returns the number of accounts that have `role`. Can be used together with {getRoleMember} to enumerate all bearers of a role."
      },
      "grantRole(bytes32,address)": {
        "details": "Grants `role` to `account`. If `account` had not been already granted `role`, emits a {RoleGranted} event. Requirements: - the caller must have ``role``'s admin role."
      },
      "hasRole(bytes32,address)": {
        "details": "Returns `true` if `account` has been granted `role`."
      },
      "owner()": {
        "details": "Returns the address of the current owner."
      },
      "renounceOwnership()": {
        "details": "Leaves the contract without owner. It will not be possible to call `onlyOwner` functions anymore. Can only be called by the current owner. NOTE: Renouncing ownership will leave the contract without an owner, thereby removing any functionality that is only available to the owner."
      },
      "renounceRole(bytes32,address)": {
        "details": "Revokes `role` from the calling account. Roles are often managed via {grantRole} and {revokeRole}: this function's purpose is to provide a mechanism for accounts to lose their privileges if they are compromised (such as when a trusted device is misplaced). If the calling account had been revoked `role`, emits a {RoleRevoked} event. Requirements: - the caller must be `account`."
      },
      "revokeRole(bytes32,address)": {
        "details": "Revokes `role` from `account`. If `account` had been granted `role`, emits a {RoleRevoked} event. Requirements: - the caller must have ``role``'s admin role."
      },
      "supportsInterface(bytes4)": {
        "details": "See {IERC165-supportsInterface}."
      },
      "transferOwnership(address)": {
        "details": "Transfers ownership of the contract to a new account (`newOwner`). Can only be called by the current owner."
      }
    },
    "version": 1
  },
  "userdoc": {
    "kind": "user",
    "methods": {},
    "version": 1
  }
}