{
  "contractName": "RNG",
  "abi": [
    {
      "inputs": [
        {
          "internalType": "bool",
          "name": "_test_mode",
          "type": "bool"
        }
      ],
      "stateMutability": "nonpayable",
      "type": "constructor"
    },
    {
      "anonymous": false,
      "inputs": [
        {
          "indexed": false,
          "internalType": "bytes32",
          "name": "commitment",
          "type": "bytes32"
        }
      ],
      "name": "Commit",
      "type": "event"
    },
    {
      "anonymous": false,
      "inputs": [
        {
          "indexed": false,
          "internalType": "uint256",
          "name": "cap",
          "type": "uint256"
        }
      ],
      "name": "ConfirmationCap",
      "type": "event"
    },
    {
      "anonymous": false,
      "inputs": [
        {
          "indexed": false,
          "internalType": "address",
          "name": "_manager",
          "type": "address"
        }
      ],
      "name": "ContractAdded",
      "type": "event"
    },
    {
      "anonymous": false,
      "inputs": [
        {
          "indexed": false,
          "internalType": "address",
          "name": "newManager",
          "type": "address"
        }
      ],
      "name": "ContractManagerSwitch",
      "type": "event"
    },
    {
      "anonymous": false,
      "inputs": [
        {
          "indexed": false,
          "internalType": "address",
          "name": "newOwner",
          "type": "address"
        }
      ],
      "name": "ContractOwnershipUpdate",
      "type": "event"
    },
    {
      "anonymous": false,
      "inputs": [],
      "name": "ContractRemoved",
      "type": "event"
    },
    {
      "anonymous": false,
      "inputs": [
        {
          "indexed": false,
          "internalType": "address",
          "name": "contractInstance",
          "type": "address"
        }
      ],
      "name": "ContractReplaced",
      "type": "event"
    },
    {
      "anonymous": false,
      "inputs": [
        {
          "indexed": false,
          "internalType": "address",
          "name": "oldInstance",
          "type": "address"
        },
        {
          "indexed": false,
          "internalType": "address",
          "name": "_manager",
          "type": "address"
        }
      ],
      "name": "ContractUpdated",
      "type": "event"
    },
    {
      "anonymous": false,
      "inputs": [
        {
          "indexed": false,
          "internalType": "bytes32",
          "name": "commitment",
          "type": "bytes32"
        }
      ],
      "name": "EntropyLock",
      "type": "event"
    },
    {
      "anonymous": false,
      "inputs": [
        {
          "indexed": true,
          "internalType": "address",
          "name": "previousOwner",
          "type": "address"
        },
        {
          "indexed": true,
          "internalType": "address",
          "name": "newOwner",
          "type": "address"
        }
      ],
      "name": "OwnershipTransferred",
      "type": "event"
    },
    {
      "anonymous": false,
      "inputs": [
        {
          "indexed": false,
          "internalType": "bytes32",
          "name": "commitment",
          "type": "bytes32"
        }
      ],
      "name": "ResetCommitment",
      "type": "event"
    },
    {
      "anonymous": false,
      "inputs": [
        {
          "indexed": true,
          "internalType": "bytes32",
          "name": "role",
          "type": "bytes32"
        },
        {
          "indexed": true,
          "internalType": "bytes32",
          "name": "previousAdminRole",
          "type": "bytes32"
        },
        {
          "indexed": true,
          "internalType": "bytes32",
          "name": "newAdminRole",
          "type": "bytes32"
        }
      ],
      "name": "RoleAdminChanged",
      "type": "event"
    },
    {
      "anonymous": false,
      "inputs": [
        {
          "indexed": true,
          "internalType": "bytes32",
          "name": "role",
          "type": "bytes32"
        },
        {
          "indexed": true,
          "internalType": "address",
          "name": "account",
          "type": "address"
        },
        {
          "indexed": true,
          "internalType": "address",
          "name": "sender",
          "type": "address"
        }
      ],
      "name": "RoleGranted",
      "type": "event"
    },
    {
      "anonymous": false,
      "inputs": [
        {
          "indexed": true,
          "internalType": "bytes32",
          "name": "role",
          "type": "bytes32"
        },
        {
          "indexed": true,
          "internalType": "address",
          "name": "account",
          "type": "address"
        },
        {
          "indexed": true,
          "internalType": "address",
          "name": "sender",
          "type": "address"
        }
      ],
      "name": "RoleRevoked",
      "type": "event"
    },
    {
      "inputs": [],
      "name": "DEFAULT_ADMIN_ROLE",
      "outputs": [
        {
          "internalType": "bytes32",
          "name": "",
          "type": "bytes32"
        }
      ],
      "stateMutability": "view",
      "type": "function",
      "constant": true
    },
    {
      "inputs": [],
      "name": "MANAGER_ROLE",
      "outputs": [
        {
          "internalType": "bytes32",
          "name": "",
          "type": "bytes32"
        }
      ],
      "stateMutability": "view",
      "type": "function",
      "constant": true
    },
    {
      "inputs": [],
      "name": "commitment_confirmation_cap",
      "outputs": [
        {
          "internalType": "uint256",
          "name": "",
          "type": "uint256"
        }
      ],
      "stateMutability": "view",
      "type": "function",
      "constant": true
    },
    {
      "inputs": [],
      "name": "contract_id",
      "outputs": [
        {
          "internalType": "bytes32",
          "name": "",
          "type": "bytes32"
        }
      ],
      "stateMutability": "view",
      "type": "function",
      "constant": true
    },
    {
      "inputs": [],
      "name": "contract_name",
      "outputs": [
        {
          "internalType": "string",
          "name": "",
          "type": "string"
        }
      ],
      "stateMutability": "view",
      "type": "function",
      "constant": true
    },
    {
      "inputs": [
        {
          "internalType": "bytes32",
          "name": "role",
          "type": "bytes32"
        }
      ],
      "name": "getRoleAdmin",
      "outputs": [
        {
          "internalType": "bytes32",
          "name": "",
          "type": "bytes32"
        }
      ],
      "stateMutability": "view",
      "type": "function",
      "constant": true
    },
    {
      "inputs": [
        {
          "internalType": "bytes32",
          "name": "role",
          "type": "bytes32"
        },
        {
          "internalType": "uint256",
          "name": "index",
          "type": "uint256"
        }
      ],
      "name": "getRoleMember",
      "outputs": [
        {
          "internalType": "address",
          "name": "",
          "type": "address"
        }
      ],
      "stateMutability": "view",
      "type": "function",
      "constant": true
    },
    {
      "inputs": [
        {
          "internalType": "bytes32",
          "name": "role",
          "type": "bytes32"
        }
      ],
      "name": "getRoleMemberCount",
      "outputs": [
        {
          "internalType": "uint256",
          "name": "",
          "type": "uint256"
        }
      ],
      "stateMutability": "view",
      "type": "function",
      "constant": true
    },
    {
      "inputs": [
        {
          "internalType": "bytes32",
          "name": "role",
          "type": "bytes32"
        },
        {
          "internalType": "address",
          "name": "account",
          "type": "address"
        }
      ],
      "name": "grantRole",
      "outputs": [],
      "stateMutability": "nonpayable",
      "type": "function"
    },
    {
      "inputs": [
        {
          "internalType": "bytes32",
          "name": "role",
          "type": "bytes32"
        },
        {
          "internalType": "address",
          "name": "account",
          "type": "address"
        }
      ],
      "name": "hasRole",
      "outputs": [
        {
          "internalType": "bool",
          "name": "",
          "type": "bool"
        }
      ],
      "stateMutability": "view",
      "type": "function",
      "constant": true
    },
    {
      "inputs": [],
      "name": "latest_block",
      "outputs": [
        {
          "internalType": "uint256",
          "name": "",
          "type": "uint256"
        }
      ],
      "stateMutability": "view",
      "type": "function",
      "constant": true
    },
    {
      "inputs": [],
      "name": "manager",
      "outputs": [
        {
          "internalType": "address",
          "name": "",
          "type": "address"
        }
      ],
      "stateMutability": "view",
      "type": "function",
      "constant": true
    },
    {
      "inputs": [
        {
          "internalType": "address",
          "name": "_manager",
          "type": "address"
        }
      ],
      "name": "onAdd",
      "outputs": [],
      "stateMutability": "nonpayable",
      "type": "function"
    },
    {
      "inputs": [],
      "name": "onRemoved",
      "outputs": [],
      "stateMutability": "nonpayable",
      "type": "function"
    },
    {
      "inputs": [
        {
          "internalType": "address",
          "name": "newInstance",
          "type": "address"
        }
      ],
      "name": "onReplaced",
      "outputs": [],
      "stateMutability": "nonpayable",
      "type": "function"
    },
    {
      "inputs": [],
      "name": "owner",
      "outputs": [
        {
          "internalType": "address",
          "name": "",
          "type": "address"
        }
      ],
      "stateMutability": "view",
      "type": "function",
      "constant": true
    },
    {
      "inputs": [],
      "name": "renounceOwnership",
      "outputs": [],
      "stateMutability": "nonpayable",
      "type": "function"
    },
    {
      "inputs": [
        {
          "internalType": "bytes32",
          "name": "role",
          "type": "bytes32"
        },
        {
          "internalType": "address",
          "name": "account",
          "type": "address"
        }
      ],
      "name": "renounceRole",
      "outputs": [],
      "stateMutability": "nonpayable",
      "type": "function"
    },
    {
      "inputs": [
        {
          "internalType": "bytes32",
          "name": "role",
          "type": "bytes32"
        },
        {
          "internalType": "address",
          "name": "account",
          "type": "address"
        }
      ],
      "name": "revokeRole",
      "outputs": [],
      "stateMutability": "nonpayable",
      "type": "function"
    },
    {
      "inputs": [
        {
          "internalType": "bytes4",
          "name": "interfaceId",
          "type": "bytes4"
        }
      ],
      "name": "supportsInterface",
      "outputs": [
        {
          "internalType": "bool",
          "name": "",
          "type": "bool"
        }
      ],
      "stateMutability": "view",
      "type": "function",
      "constant": true
    },
    {
      "inputs": [
        {
          "internalType": "address",
          "name": "newManager",
          "type": "address"
        }
      ],
      "name": "switchManager",
      "outputs": [],
      "stateMutability": "nonpayable",
      "type": "function"
    },
    {
      "inputs": [],
      "name": "test_mode",
      "outputs": [
        {
          "internalType": "bool",
          "name": "",
          "type": "bool"
        }
      ],
      "stateMutability": "view",
      "type": "function",
      "constant": true
    },
    {
      "inputs": [
        {
          "internalType": "address",
          "name": "newOwner",
          "type": "address"
        }
      ],
      "name": "transferOwnership",
      "outputs": [],
      "stateMutability": "nonpayable",
      "type": "function"
    },
    {
      "inputs": [
        {
          "internalType": "address",
          "name": "newOwner",
          "type": "address"
        }
      ],
      "name": "updateOwnership",
      "outputs": [],
      "stateMutability": "nonpayable",
      "type": "function"
    },
    {
      "inputs": [],
      "name": "getName",
      "outputs": [
        {
          "internalType": "string",
          "name": "",
          "type": "string"
        }
      ],
      "stateMutability": "view",
      "type": "function",
      "constant": true
    },
    {
      "inputs": [],
      "name": "getId",
      "outputs": [
        {
          "internalType": "bytes32",
          "name": "",
          "type": "bytes32"
        }
      ],
      "stateMutability": "view",
      "type": "function",
      "constant": true
    },
    {
      "inputs": [
        {
          "internalType": "bytes32",
          "name": "hname",
          "type": "bytes32"
        },
        {
          "internalType": "address",
          "name": "contractInstance",
          "type": "address"
        },
        {
          "internalType": "bool",
          "name": "isNew",
          "type": "bool"
        }
      ],
      "name": "onListenAdded",
      "outputs": [],
      "stateMutability": "nonpayable",
      "type": "function"
    },
    {
      "inputs": [
        {
          "internalType": "bytes32",
          "name": "hname",
          "type": "bytes32"
        }
      ],
      "name": "onListenRemoved",
      "outputs": [],
      "stateMutability": "nonpayable",
      "type": "function"
    },
    {
      "inputs": [
        {
          "internalType": "address",
          "name": "oldInstance",
          "type": "address"
        },
        {
          "internalType": "address",
          "name": "_manager",
          "type": "address"
        }
      ],
      "name": "onUpdate",
      "outputs": [],
      "stateMutability": "nonpayable",
      "type": "function"
    },
    {
      "inputs": [],
      "name": "updateBlockHashes",
      "outputs": [],
      "stateMutability": "nonpayable",
      "type": "function"
    },
    {
      "inputs": [
        {
          "internalType": "uint256",
          "name": "cap",
          "type": "uint256"
        }
      ],
      "name": "setCommitmentConfirmationCap",
      "outputs": [],
      "stateMutability": "nonpayable",
      "type": "function"
    },
    {
      "inputs": [
        {
          "internalType": "bytes32",
          "name": "commitment",
          "type": "bytes32"
        }
      ],
      "name": "commit",
      "outputs": [],
      "stateMutability": "nonpayable",
      "type": "function"
    },
    {
      "inputs": [
        {
          "internalType": "bytes32",
          "name": "commitment",
          "type": "bytes32"
        }
      ],
      "name": "resetCommitment",
      "outputs": [],
      "stateMutability": "nonpayable",
      "type": "function"
    },
    {
      "inputs": [
        {
          "internalType": "bytes32",
          "name": "entropy",
          "type": "bytes32"
        }
      ],
      "name": "lock",
      "outputs": [],
      "stateMutability": "nonpayable",
      "type": "function"
    },
    {
      "inputs": [
        {
          "internalType": "bytes32",
          "name": "commitment",
          "type": "bytes32"
        }
      ],
      "name": "read",
      "outputs": [
        {
          "internalType": "uint256",
          "name": "",
          "type": "uint256"
        }
      ],
      "stateMutability": "view",
      "type": "function",
      "constant": true
    },
    {
      "inputs": [],
      "name": "getBlockConfirmationCap",
      "outputs": [
        {
          "internalType": "uint256",
          "name": "",
          "type": "uint256"
        }
      ],
      "stateMutability": "view",
      "type": "function",
      "constant": true
    }
  ],
  "bytecode": "0x60c06040526003608081905262524e4760e81b60a090815262000026916004919062000260565b5060405180604001604052806003815260200162524e4760e81b81525060405160200162000055919062000306565b6040516020818303038152906040528051906020012060055560016006553480156200008057600080fd5b5060405162001e6838038062001e68833981016040819052620000a39162000344565b620000ae33620000d2565b620000bb60003362000122565b6007805460ff1916911515919091179055620003ac565b600080546001600160a01b038381166001600160a01b0319831681178455604051919092169283917f8be0079c531659141344cd1fd0a4f28419497f9722a3daafe3b4186f6b6457e09190a35050565b6200013982826200016560201b62000c971760201c565b60008281526002602090815260409091206200016091839062000d02620001ee821b17901c565b505050565b60008281526001602090815260408083206001600160a01b038516845290915290205460ff16620001ea5760008281526001602081815260408084206001600160a01b0386168086529252808420805460ff19169093179092559051339285917f2f8788117e7eff1d82e926ec794901d17c78024a50270940304540a733656f0d9190a45b5050565b600062000205836001600160a01b0384166200020e565b90505b92915050565b6000818152600183016020526040812054620002575750815460018181018455600084815260208082209093018490558454848252828601909352604090209190915562000208565b50600062000208565b8280546200026e906200036f565b90600052602060002090601f016020900481019282620002925760008555620002dd565b82601f10620002ad57805160ff1916838001178555620002dd565b82800160010185558215620002dd579182015b82811115620002dd578251825591602001919060010190620002c0565b50620002eb929150620002ef565b5090565b5b80821115620002eb5760008155600101620002f0565b6000825160005b818110156200032957602081860181015185830152016200030d565b8181111562000339576000828501525b509190910192915050565b6000602082840312156200035757600080fd5b815180151581146200036857600080fd5b9392505050565b600181811c908216806200038457607f821691505b60208210811415620003a657634e487b7160e01b600052602260045260246000fd5b50919050565b611aac80620003bc6000396000f3fe608060405234801561001057600080fd5b506004361061021c5760003560e01c8063758c3d5b11610125578063c69c9579116100ad578063d94796921161007c578063d947969214610461578063ec87621c14610469578063f14fcbc81461047e578063f2fde38b14610491578063fb570bc8146104a457600080fd5b8063c69c957914610417578063ca15c8731461042a578063d4697a471461043d578063d547741f1461044e57600080fd5b80639010d07c116100f45780639010d07c146103d357806391d14854146103e6578063927e8c42146103f9578063a217fddf14610402578063c2000d591461040a57600080fd5b8063758c3d5b146103945780637e9c8aaa146103a75780638840891e146103af5780638da5cb5b146103c257600080fd5b80632f2ff15d116101a85780635d1ca631116101775780635d1ca6311461033e5780635df112911461034657806361da1439146103595780636b2bf27f14610379578063715018a61461038c57600080fd5b80632f2ff15d146102e457806336568abe146102f75780633ad32d161461030a578063481c6a751461031357600080fd5b806317d7de7c116101ef57806317d7de7c1461028457806319ebbd40146102995780631a6f04f3146102a157806321a984d2146102a9578063248a9ca3146102c057600080fd5b806301670ba91461022157806301ffc9a7146102365780630447a2cd1461025e57806316f28d2414610271575b600080fd5b61023461022f366004611689565b6104b7565b005b6102496102443660046116a2565b61067c565b60405190151581526020015b60405180910390f35b61023461026c3660046116e8565b6106a7565b61023461027f36600461171b565b505050565b61028c61072e565b6040516102559190611790565b6102346107c0565b61023461081c565b6102b2600b5481565b604051908152602001610255565b6102b26102ce366004611689565b6000908152600160208190526040909120015490565b6102346102f23660046117c3565b610826565b6102346103053660046117c3565b61084d565b6102b260055481565b600354610326906001600160a01b031681565b6040516001600160a01b039091168152602001610255565b6005546102b2565b6102346103543660046117e6565b6108c7565b6102b2610367366004611689565b60009081526009602052604090205490565b6102346103873660046117e6565b6108d0565b6102346108d9565b6102346103a2366004611689565b61090d565b6006546102b2565b6102346103bd3660046117e6565b610940565b6000546001600160a01b0316610326565b6103266103e1366004611801565b610949565b6102496103f43660046117c3565b610968565b6102b260065481565b6102b2600081565b6007546102499060ff1681565b6102346104253660046117e6565b610993565b6102b2610438366004611689565b61099c565b61023461044b366004611689565b50565b61023461045c3660046117c3565b6109b3565b61028c6109da565b6102b2600080516020611a5783398151915281565b61023461048c366004611689565b610a68565b61023461049f3660046117e6565b610b2b565b6102346104b2366004611689565b610bc3565b6040516272278d60e51b81526004810182905260009073__Util__________________________________90630e44f1a09060240160206040518083038186803b15801561050457600080fd5b505af4158015610518573d6000803e3d6000fd5b505050506040513d601f19601f8201168201806040525081019061053c9190611823565b600081815260096020526040902054909150156105b75760405162461bcd60e51b815260206004820152602e60248201527f54686520656e74726f70792073686f756c64206e6f742068617665206265656e60448201526d206c6f636b6564206265666f726560901b60648201526084015b60405180910390fd5b600081815260086020526040902054806106285760405162461bcd60e51b815260206004820152602c60248201527f54686520656e74726f7079206d7573742068617665206265656e20636f6d6d6960448201526b3a3a32b21032b0b93634b2b960a11b60648201526084016105ae565b6106328184610d17565b60008381526009602090815260409182902092909255518381527ffcd44fe2414c570f1af4666197b149197ea4a4e0074e764e7e2e2772e3661a1d910160405180910390a1505050565b60006001600160e01b0319821663ee7ed59960e01b14806106a157506106a182610e09565b92915050565b6106b18282610e2e565b61072a826001600160a01b031663927e8c426040518163ffffffff1660e01b815260040160206040518083038186803b1580156106ed57600080fd5b505afa158015610701573d6000803e3d6000fd5b505050506040513d601f19601f820116820180604052508101906107259190611823565b610ec1565b5050565b60606004805461073d9061183c565b80601f01602080910402602001604051908101604052809291908181526020018280546107699061183c565b80156107b65780601f1061078b576101008083540402835291602001916107b6565b820191906000526020600020905b81548152906001019060200180831161079957829003601f168201915b5050505050905090565b60ff600b54436107d0919061188d565b11156107e5576107e160ff4361188d565b600b555b600b545b43811015610815576000818152600a60205260409020814090558061080d816118a4565b9150506107e9565b5043600b55565b610824610ef6565b565b600082815260016020819052604090912001546108438133610f65565b61027f8383610fc9565b6001600160a01b03811633146108bd5760405162461bcd60e51b815260206004820152602f60248201527f416363657373436f6e74726f6c3a2063616e206f6e6c792072656e6f756e636560448201526e103937b632b9903337b91039b2b63360891b60648201526084016105ae565b61072a8282610feb565b61044b8161100d565b61044b816110c5565b6000546001600160a01b031633146109035760405162461bcd60e51b81526004016105ae906118bf565b610824600061113b565b6000546001600160a01b031633146109375760405162461bcd60e51b81526004016105ae906118bf565b61044b81610ec1565b61044b8161118b565b6000828152600260205260408120610961908361120d565b9392505050565b60009182526001602090815260408084206001600160a01b0393909316845291905290205460ff1690565b61044b81611219565b60008181526002602052604081206106a190611296565b600082815260016020819052604090912001546109d08133610f65565b61027f8383610feb565b600480546109e79061183c565b80601f0160208091040260200160405190810160405280929190818152602001828054610a139061183c565b8015610a605780601f10610a3557610100808354040283529160200191610a60565b820191906000526020600020905b815481529060010190602001808311610a4357829003601f168201915b505050505081565b60008181526008602052604090205415610add5760405162461bcd60e51b815260206004820152603060248201527f54686520656e74726f70792073686f756c64206e6f742068617665206265656e60448201526f20636f6d6d69746564206265666f726560801b60648201526084016105ae565b60008181526008602052604090819020439055517f9e8a51bb6b34b9d5d18c14fd753ee3bf44e2256512665a4577281ffcc91943ff90610b209083815260200190565b60405180910390a150565b6000546001600160a01b03163314610b555760405162461bcd60e51b81526004016105ae906118bf565b6001600160a01b038116610bba5760405162461bcd60e51b815260206004820152602660248201527f4f776e61626c653a206e6577206f776e657220697320746865207a65726f206160448201526564647265737360d01b60648201526084016105ae565b61044b8161113b565b6000546001600160a01b03163314610bed5760405162461bcd60e51b81526004016105ae906118bf565b60075460ff16610c4b5760405162461bcd60e51b815260206004820152602360248201527f54686973206d6574686f6420776f726b7320696e2074657374206d6f6465206f6044820152626e6c7960e81b60648201526084016105ae565b6000818152600860209081526040808320839055600982528083209290925590518281527fac68f90975f9410b216667788d897499268d6d22966a128552c0f7efc72fc3329101610b20565b610ca18282610968565b61072a5760008281526001602081815260408084206001600160a01b0386168086529252808420805460ff19169093179092559051339285917f2f8788117e7eff1d82e926ec794901d17c78024a50270940304540a733656f0d9190a45050565b6000610961836001600160a01b0384166112a0565b600654600090610d27844361188d565b11610dc05760405162461bcd60e51b815260206004820152605c60248201527f54686520656e74726f7079206d7573742068617665206265656e20636f6d6d6960448201527f74746564206174206c656173742074686520636f6d6d69746d656e745f636f6e60648201527f6669726d6174696f6e5f63617020626c6f636b73206561726c69657200000000608482015260a4016105ae565b610dd660065484610dd191906118f4565b6112ef565b604080516020810192909252810183905260600160408051601f1981840301815291905280516020909101209392505050565b60006001600160e01b03198216635a05180f60e01b14806106a157506106a18261131f565b610e46600080516020611a5783398151915233610968565b610e625760405162461bcd60e51b81526004016105ae9061190c565b600380546001600160a01b0319166001600160a01b0383811691821790925560408051928516835260208301919091527ff6515f2a6d531f16723c1e578303b7d74152bf8c0fa3bee828700a3d4706da8d910160405180910390a15050565b60068190556040518181527fb6d78f6de320575c58204be457b06337e60feb5ad743168491402255688638c390602001610b20565b610f0e600080516020611a5783398151915233610968565b610f2a5760405162461bcd60e51b81526004016105ae9061190c565b600380546001600160a01b03191690556040517f9a9a74cf290a994f69a718e8557deb1dd65135268f40e660cecddf675f5dd51490600090a1565b610f6f8282610968565b61072a57610f87816001600160a01b03166014611354565b610f92836020611354565b604051602001610fa3929190611969565b60408051601f198184030181529082905262461bcd60e51b82526105ae91600401611790565b610fd38282610c97565b600082815260026020526040902061027f9082610d02565b610ff582826114f0565b600082815260026020526040902061027f9082611557565b611025600080516020611a5783398151915233610968565b6110415760405162461bcd60e51b81526004016105ae9061190c565b600380546001600160a01b0319166001600160a01b038316179055611074600080516020611a5783398151915282610826565b61108c600080516020611a57833981519152336109b3565b6040516001600160a01b03821681527f8eb47098f9568be754f51d21a870c8091ee0242cf97418db00927326d0e6ffcf90602001610b20565b6110dd600080516020611a5783398151915233610968565b6110f95760405162461bcd60e51b81526004016105ae9061190c565b61110281610b2b565b6040516001600160a01b03821681527ff2addf7f813887cf0fdd82b58fcc379ab2301e95c90b41a8cf2e5401914689c990602001610b20565b600080546001600160a01b038381166001600160a01b0319831681178455604051919092169283917f8be0079c531659141344cd1fd0a4f28419497f9722a3daafe3b4186f6b6457e09190a35050565b6111a3600080516020611a5783398151915233610968565b6111bf5760405162461bcd60e51b81526004016105ae9061190c565b600380546001600160a01b0319166001600160a01b0383169081179091556040519081527f89c66952b48f3e96bf1d8ba1b63189520fd988a6979b8b740bd5c5d8dc53e20590602001610b20565b6000610961838361156c565b611231600080516020611a5783398151915233610968565b61124d5760405162461bcd60e51b81526004016105ae9061190c565b600380546001600160a01b03191690556040516001600160a01b03821681527f85a56ff958486f55dd742819603a46ba6233d3b24e6715f9cd5fd2ef6425d68090602001610b20565b60006106a1825490565b60008181526001830160205260408120546112e7575081546001818101845560008481526020808220909301849055845484825282860190935260409020919091556106a1565b5060006106a1565b60008060ff6112fe844361188d565b111561131957506000828152600a60205260409020546106a1565b50504090565b60006001600160e01b03198216637965db0b60e01b14806106a157506301ffc9a760e01b6001600160e01b03198316146106a1565b606060006113638360026119de565b61136e9060026118f4565b67ffffffffffffffff811115611386576113866119fd565b6040519080825280601f01601f1916602001820160405280156113b0576020820181803683370190505b509050600360fc1b816000815181106113cb576113cb611a13565b60200101906001600160f81b031916908160001a905350600f60fb1b816001815181106113fa576113fa611a13565b60200101906001600160f81b031916908160001a905350600061141e8460026119de565b6114299060016118f4565b90505b60018111156114a1576f181899199a1a9b1b9c1cb0b131b232b360811b85600f166010811061145d5761145d611a13565b1a60f81b82828151811061147357611473611a13565b60200101906001600160f81b031916908160001a90535060049490941c9361149a81611a29565b905061142c565b5083156109615760405162461bcd60e51b815260206004820181905260248201527f537472696e67733a20686578206c656e67746820696e73756666696369656e7460448201526064016105ae565b6114fa8282610968565b1561072a5760008281526001602090815260408083206001600160a01b0385168085529252808320805460ff1916905551339285917ff6391f5c32d9c69d2a47ea670b442974b53935d1edc7fd64eb21e047a839171b9190a45050565b6000610961836001600160a01b038416611596565b600082600001828154811061158357611583611a13565b9060005260206000200154905092915050565b6000818152600183016020526040812054801561167f5760006115ba60018361188d565b85549091506000906115ce9060019061188d565b90508181146116335760008660000182815481106115ee576115ee611a13565b906000526020600020015490508087600001848154811061161157611611611a13565b6000918252602080832090910192909255918252600188019052604090208390555b855486908061164457611644611a40565b6001900381819060005260206000200160009055905585600101600086815260200190815260200160002060009055600193505050506106a1565b60009150506106a1565b60006020828403121561169b57600080fd5b5035919050565b6000602082840312156116b457600080fd5b81356001600160e01b03198116811461096157600080fd5b80356001600160a01b03811681146116e357600080fd5b919050565b600080604083850312156116fb57600080fd5b611704836116cc565b9150611712602084016116cc565b90509250929050565b60008060006060848603121561173057600080fd5b83359250611740602085016116cc565b91506040840135801515811461175557600080fd5b809150509250925092565b60005b8381101561177b578181015183820152602001611763565b8381111561178a576000848401525b50505050565b60208152600082518060208401526117af816040850160208701611760565b601f01601f19169190910160400192915050565b600080604083850312156117d657600080fd5b82359150611712602084016116cc565b6000602082840312156117f857600080fd5b610961826116cc565b6000806040838503121561181457600080fd5b50508035926020909101359150565b60006020828403121561183557600080fd5b5051919050565b600181811c9082168061185057607f821691505b6020821081141561187157634e487b7160e01b600052602260045260246000fd5b50919050565b634e487b7160e01b600052601160045260246000fd5b60008282101561189f5761189f611877565b500390565b60006000198214156118b8576118b8611877565b5060010190565b6020808252818101527f4f776e61626c653a2063616c6c6572206973206e6f7420746865206f776e6572604082015260600190565b6000821982111561190757611907611877565b500190565b6020808252603b908201527f43726f7373436f6e74726163744d616e4c697374656e65723a2074686520636160408201527f6c6c6572206d7573742068617665204d414e414745525f524f4c450000000000606082015260800190565b7f416363657373436f6e74726f6c3a206163636f756e74200000000000000000008152600083516119a1816017850160208801611760565b7001034b99036b4b9b9b4b733903937b6329607d1b60179184019182015283516119d2816028840160208801611760565b01602801949350505050565b60008160001904831182151516156119f8576119f8611877565b500290565b634e487b7160e01b600052604160045260246000fd5b634e487b7160e01b600052603260045260246000fd5b600081611a3857611a38611877565b506000190190565b634e487b7160e01b600052603160045260246000fdfe241ecf16d79d0f8dbfb92cbc07fe17840425976cf0667f022fe9877caa831b08a2646970667358221220ac1692d291ec7aab023c0eb60a5717300d69a48afb25921851be0dc6d4cb6d1c64736f6c63430008090033",
  "immutableReferences": {},
  "source": "// SPDX-License-Identifier: MIT\npragma solidity ^0.8.0;\n\nimport \"@openzeppelin/contracts/access/Ownable.sol\";\n\nimport \"./CrossContractManListener.sol\";\nimport \"./Util.sol\";\nimport \"./IRNG.sol\";\n\ncontract RNG is CrossContractManListener, IRNG {\n    string  public contract_name = Util.RNG_CONTRACT_NAME;\n    bytes32 public contract_id = Util.RNG_CONTRACT_ID;\n\n    uint256 public commitment_confirmation_cap = 1;\n    bool public test_mode;\n\n    mapping(bytes32 => uint256) commitments;\n    mapping(bytes32 => uint256) rvalues;\n\n    mapping(uint256 => bytes32) block_hashes;\n    uint256 public\tlatest_block;\n\n    constructor(bool _test_mode){\n\ttest_mode = _test_mode;\n    }\n\n    function getName() view external returns(string memory) {\n\treturn contract_name;\n    }\n\n    function getId() view external returns(bytes32) {\n\treturn contract_id;\n    }\n\n    function onListenAdded(bytes32 hname, address contractInstance, bool isNew) external {}\n\n    function onListenRemoved(bytes32 hname) external {}\n\n    function onUpdate(address oldInstance, address _manager) external override {\n\tsuper._onUpdate(oldInstance, _manager);\n\t_setCommitmentConfirmationCap(RNG(oldInstance).commitment_confirmation_cap());\n    }\n\n    function updateBlockHashes() external virtual {\n\tif((block.number - latest_block) > 255)\n\t    latest_block = block.number - 255;\n\tfor(uint i=latest_block;i<block.number;i++)\n\t    block_hashes[i] = blockhash(i);\n\tlatest_block = block.number;\n    }\n\n    function _setCommitmentConfirmationCap(uint256 cap) internal {\n\tcommitment_confirmation_cap = cap;\n\n\temit ConfirmationCap(cap);\n    }\n\n    function setCommitmentConfirmationCap(uint256 cap) external onlyOwner {\n\t_setCommitmentConfirmationCap(cap);\n    }\n\n    function commit(bytes32 commitment) external {\n\trequire((commitments[commitment] == 0),\"The entropy should not have been commited before\");\n\tcommitments[commitment] = block.number;\n\n\temit Commit(commitment);\n    }\n\n    function resetCommitment(bytes32 commitment) external onlyOwner {\n\trequire(test_mode, \"This method works in test mode only\");\n\tcommitments[commitment] = 0;\n\trvalues[commitment] = 0;\n\n\temit ResetCommitment(commitment);\n    }\n\n    function _getHash(uint256 _block_num) internal view returns (bytes32) {\n\tbytes32 _block_hash;\n\tif(block.number - _block_num > 255)\n\t    _block_hash = block_hashes[_block_num];\n\telse\n\t    _block_hash = blockhash(_block_num);\n\treturn _block_hash;\n    }\n\n    function _getRandomValue(uint256 block_num, bytes32 user_entropy) internal view returns (uint256) {\n\trequire((block.number - block_num  > commitment_confirmation_cap),\"The entropy must have been committed at least the commitment_confirmation_cap blocks earlier\");\n\treturn uint256(keccak256(abi.encodePacked(_getHash(block_num+commitment_confirmation_cap), user_entropy)));\n    }\n\n    function lock(bytes32 entropy) external{\n\tbytes32 commitment = Util.deriveCommitment(entropy);\n\trequire(rvalues[commitment] == 0, \"The entropy should not have been locked before\");\n\tuint256 block_num = commitments[commitment];\n\trequire(block_num > 0, \"The entropy must have been committed earlier\");\n\trvalues[commitment] = _getRandomValue(block_num,entropy);\n\n\temit EntropyLock(commitment);\n    }\n\n    function read(bytes32 commitment) external view returns (uint256){\n\treturn rvalues[commitment];\n    }\n\n    function getBlockConfirmationCap() external view returns (uint256){\n\treturn commitment_confirmation_cap;\n    }\n\n    event ConfirmationCap(uint256 cap);\n    event ResetCommitment(bytes32 commitment);\n    event EntropyLock(bytes32 commitment);\n    event Commit(bytes32 commitment);\n}\n",
  "sourcePath": "/home/vrogojin/Projects/FireZard/nft/contracts/RNG.sol",
  "compiler": {
    "name": "solc",
    "version": "0.8.9+commit.e5eed63a.Emscripten.clang"
  },
  "schemaVersion": "3.4.3",
  "updatedAt": "2022-02-10T15:12:10.514Z",
  "networkType": "ethereum",
  "devdoc": {
    "kind": "dev",
    "methods": {
      "commit(bytes32)": {
        "params": {
          "commitment": "Commitment for the client's entropy. For instrance, this can be hash of the entropy.*"
        }
      },
      "getRoleAdmin(bytes32)": {
        "details": "Returns the admin role that controls `role`. See {grantRole} and {revokeRole}. To change a role's admin, use {_setRoleAdmin}."
      },
      "getRoleMember(bytes32,uint256)": {
        "details": "Returns one of the accounts that have `role`. `index` must be a value between 0 and {getRoleMemberCount}, non-inclusive. Role bearers are not sorted in any particular way, and their ordering may change at any point. WARNING: When using {getRoleMember} and {getRoleMemberCount}, make sure you perform all queries on the same block. See the following https://forum.openzeppelin.com/t/iterating-over-elements-on-enumerableset-in-openzeppelin-contracts/2296[forum post] for more information."
      },
      "getRoleMemberCount(bytes32)": {
        "details": "Returns the number of accounts that have `role`. Can be used together with {getRoleMember} to enumerate all bearers of a role."
      },
      "grantRole(bytes32,address)": {
        "details": "Grants `role` to `account`. If `account` had not been already granted `role`, emits a {RoleGranted} event. Requirements: - the caller must have ``role``'s admin role."
      },
      "hasRole(bytes32,address)": {
        "details": "Returns `true` if `account` has been granted `role`."
      },
      "lock(bytes32)": {
        "params": {
          "entropy": "Client's entropy*"
        }
      },
      "owner()": {
        "details": "Returns the address of the current owner."
      },
      "read(bytes32)": {
        "params": {
          "commitment": "The commitment identifying the resulting randomly generated number*"
        }
      },
      "renounceOwnership()": {
        "details": "Leaves the contract without owner. It will not be possible to call `onlyOwner` functions anymore. Can only be called by the current owner. NOTE: Renouncing ownership will leave the contract without an owner, thereby removing any functionality that is only available to the owner."
      },
      "renounceRole(bytes32,address)": {
        "details": "Revokes `role` from the calling account. Roles are often managed via {grantRole} and {revokeRole}: this function's purpose is to provide a mechanism for accounts to lose their privileges if they are compromised (such as when a trusted device is misplaced). If the calling account had been revoked `role`, emits a {RoleRevoked} event. Requirements: - the caller must be `account`."
      },
      "revokeRole(bytes32,address)": {
        "details": "Revokes `role` from `account`. If `account` had been granted `role`, emits a {RoleRevoked} event. Requirements: - the caller must have ``role``'s admin role."
      },
      "supportsInterface(bytes4)": {
        "details": "See {IERC165-supportsInterface}."
      },
      "transferOwnership(address)": {
        "details": "Transfers ownership of the contract to a new account (`newOwner`). Can only be called by the current owner."
      }
    },
    "version": 1
  },
  "userdoc": {
    "kind": "user",
    "methods": {
      "commit(bytes32)": {
        "notice": "Commit a hidden entropy generated by a client."
      },
      "lock(bytes32)": {
        "notice": "Lock client's entropy. Mix client's entropy with the entropy of a block that was mined before  the method call, but after the block with the client's entropy commitment.  Note, that no miner knows client's entropy when it is commited to the blockchain and cannot manipulate the hash of the block where client's entropy is mixed with the blockchain entropy, since client's entropy is actually revealed after the lock block is mined. On the other hand, the client cannot predict the blockchain entropy either, when the  client's and blockchain's entropies get mixed."
      },
      "read(bytes32)": {
        "notice": "Read the (pseudo-)random number derived from the client's and blockchain entropies. The number is uniquely defined by the client's entropy commitment."
      }
    },
    "version": 1
  }
}