{
  "contractName": "StatsView",
  "abi": [
    {
      "anonymous": false,
      "inputs": [
        {
          "indexed": false,
          "internalType": "address",
          "name": "_manager",
          "type": "address"
        }
      ],
      "name": "ContractAdded",
      "type": "event"
    },
    {
      "anonymous": false,
      "inputs": [
        {
          "indexed": false,
          "internalType": "address",
          "name": "newManager",
          "type": "address"
        }
      ],
      "name": "ContractManagerSwitch",
      "type": "event"
    },
    {
      "anonymous": false,
      "inputs": [
        {
          "indexed": false,
          "internalType": "address",
          "name": "newOwner",
          "type": "address"
        }
      ],
      "name": "ContractOwnershipUpdate",
      "type": "event"
    },
    {
      "anonymous": false,
      "inputs": [],
      "name": "ContractRemoved",
      "type": "event"
    },
    {
      "anonymous": false,
      "inputs": [
        {
          "indexed": false,
          "internalType": "address",
          "name": "contractInstance",
          "type": "address"
        }
      ],
      "name": "ContractReplaced",
      "type": "event"
    },
    {
      "anonymous": false,
      "inputs": [
        {
          "indexed": false,
          "internalType": "address",
          "name": "oldInstance",
          "type": "address"
        },
        {
          "indexed": false,
          "internalType": "address",
          "name": "_manager",
          "type": "address"
        }
      ],
      "name": "ContractUpdated",
      "type": "event"
    },
    {
      "anonymous": false,
      "inputs": [
        {
          "indexed": false,
          "internalType": "address",
          "name": "nft_addr",
          "type": "address"
        }
      ],
      "name": "NFTLink",
      "type": "event"
    },
    {
      "anonymous": false,
      "inputs": [
        {
          "indexed": true,
          "internalType": "address",
          "name": "previousOwner",
          "type": "address"
        },
        {
          "indexed": true,
          "internalType": "address",
          "name": "newOwner",
          "type": "address"
        }
      ],
      "name": "OwnershipTransferred",
      "type": "event"
    },
    {
      "anonymous": false,
      "inputs": [
        {
          "indexed": true,
          "internalType": "bytes32",
          "name": "role",
          "type": "bytes32"
        },
        {
          "indexed": true,
          "internalType": "bytes32",
          "name": "previousAdminRole",
          "type": "bytes32"
        },
        {
          "indexed": true,
          "internalType": "bytes32",
          "name": "newAdminRole",
          "type": "bytes32"
        }
      ],
      "name": "RoleAdminChanged",
      "type": "event"
    },
    {
      "anonymous": false,
      "inputs": [
        {
          "indexed": true,
          "internalType": "bytes32",
          "name": "role",
          "type": "bytes32"
        },
        {
          "indexed": true,
          "internalType": "address",
          "name": "account",
          "type": "address"
        },
        {
          "indexed": true,
          "internalType": "address",
          "name": "sender",
          "type": "address"
        }
      ],
      "name": "RoleGranted",
      "type": "event"
    },
    {
      "anonymous": false,
      "inputs": [
        {
          "indexed": true,
          "internalType": "bytes32",
          "name": "role",
          "type": "bytes32"
        },
        {
          "indexed": true,
          "internalType": "address",
          "name": "account",
          "type": "address"
        },
        {
          "indexed": true,
          "internalType": "address",
          "name": "sender",
          "type": "address"
        }
      ],
      "name": "RoleRevoked",
      "type": "event"
    },
    {
      "anonymous": false,
      "inputs": [
        {
          "indexed": false,
          "internalType": "address",
          "name": "stats_lib_addr",
          "type": "address"
        },
        {
          "indexed": false,
          "internalType": "bytes32",
          "name": "nft_type",
          "type": "bytes32"
        }
      ],
      "name": "StatsLibLink",
      "type": "event"
    },
    {
      "anonymous": false,
      "inputs": [
        {
          "indexed": false,
          "internalType": "address",
          "name": "tag_addr",
          "type": "address"
        }
      ],
      "name": "TAGLink",
      "type": "event"
    },
    {
      "inputs": [],
      "name": "DEFAULT_ADMIN_ROLE",
      "outputs": [
        {
          "internalType": "bytes32",
          "name": "",
          "type": "bytes32"
        }
      ],
      "stateMutability": "view",
      "type": "function",
      "constant": true
    },
    {
      "inputs": [],
      "name": "MANAGER_ROLE",
      "outputs": [
        {
          "internalType": "bytes32",
          "name": "",
          "type": "bytes32"
        }
      ],
      "stateMutability": "view",
      "type": "function",
      "constant": true
    },
    {
      "inputs": [],
      "name": "TAG_addr",
      "outputs": [
        {
          "internalType": "address",
          "name": "",
          "type": "address"
        }
      ],
      "stateMutability": "view",
      "type": "function",
      "constant": true
    },
    {
      "inputs": [],
      "name": "contract_id",
      "outputs": [
        {
          "internalType": "bytes32",
          "name": "",
          "type": "bytes32"
        }
      ],
      "stateMutability": "view",
      "type": "function",
      "constant": true
    },
    {
      "inputs": [],
      "name": "contract_name",
      "outputs": [
        {
          "internalType": "string",
          "name": "",
          "type": "string"
        }
      ],
      "stateMutability": "view",
      "type": "function",
      "constant": true
    },
    {
      "inputs": [
        {
          "internalType": "bytes32",
          "name": "role",
          "type": "bytes32"
        }
      ],
      "name": "getRoleAdmin",
      "outputs": [
        {
          "internalType": "bytes32",
          "name": "",
          "type": "bytes32"
        }
      ],
      "stateMutability": "view",
      "type": "function",
      "constant": true
    },
    {
      "inputs": [
        {
          "internalType": "bytes32",
          "name": "role",
          "type": "bytes32"
        },
        {
          "internalType": "uint256",
          "name": "index",
          "type": "uint256"
        }
      ],
      "name": "getRoleMember",
      "outputs": [
        {
          "internalType": "address",
          "name": "",
          "type": "address"
        }
      ],
      "stateMutability": "view",
      "type": "function",
      "constant": true
    },
    {
      "inputs": [
        {
          "internalType": "bytes32",
          "name": "role",
          "type": "bytes32"
        }
      ],
      "name": "getRoleMemberCount",
      "outputs": [
        {
          "internalType": "uint256",
          "name": "",
          "type": "uint256"
        }
      ],
      "stateMutability": "view",
      "type": "function",
      "constant": true
    },
    {
      "inputs": [
        {
          "internalType": "bytes32",
          "name": "role",
          "type": "bytes32"
        },
        {
          "internalType": "address",
          "name": "account",
          "type": "address"
        }
      ],
      "name": "grantRole",
      "outputs": [],
      "stateMutability": "nonpayable",
      "type": "function"
    },
    {
      "inputs": [
        {
          "internalType": "bytes32",
          "name": "role",
          "type": "bytes32"
        },
        {
          "internalType": "address",
          "name": "account",
          "type": "address"
        }
      ],
      "name": "hasRole",
      "outputs": [
        {
          "internalType": "bool",
          "name": "",
          "type": "bool"
        }
      ],
      "stateMutability": "view",
      "type": "function",
      "constant": true
    },
    {
      "inputs": [],
      "name": "manager",
      "outputs": [
        {
          "internalType": "address",
          "name": "",
          "type": "address"
        }
      ],
      "stateMutability": "view",
      "type": "function",
      "constant": true
    },
    {
      "inputs": [
        {
          "internalType": "address",
          "name": "_manager",
          "type": "address"
        }
      ],
      "name": "onAdd",
      "outputs": [],
      "stateMutability": "nonpayable",
      "type": "function"
    },
    {
      "inputs": [],
      "name": "onRemoved",
      "outputs": [],
      "stateMutability": "nonpayable",
      "type": "function"
    },
    {
      "inputs": [
        {
          "internalType": "address",
          "name": "newInstance",
          "type": "address"
        }
      ],
      "name": "onReplaced",
      "outputs": [],
      "stateMutability": "nonpayable",
      "type": "function"
    },
    {
      "inputs": [
        {
          "internalType": "address",
          "name": "oldInstance",
          "type": "address"
        },
        {
          "internalType": "address",
          "name": "_manager",
          "type": "address"
        }
      ],
      "name": "onUpdate",
      "outputs": [],
      "stateMutability": "nonpayable",
      "type": "function"
    },
    {
      "inputs": [],
      "name": "owner",
      "outputs": [
        {
          "internalType": "address",
          "name": "",
          "type": "address"
        }
      ],
      "stateMutability": "view",
      "type": "function",
      "constant": true
    },
    {
      "inputs": [],
      "name": "renounceOwnership",
      "outputs": [],
      "stateMutability": "nonpayable",
      "type": "function"
    },
    {
      "inputs": [
        {
          "internalType": "bytes32",
          "name": "role",
          "type": "bytes32"
        },
        {
          "internalType": "address",
          "name": "account",
          "type": "address"
        }
      ],
      "name": "renounceRole",
      "outputs": [],
      "stateMutability": "nonpayable",
      "type": "function"
    },
    {
      "inputs": [
        {
          "internalType": "bytes32",
          "name": "role",
          "type": "bytes32"
        },
        {
          "internalType": "address",
          "name": "account",
          "type": "address"
        }
      ],
      "name": "revokeRole",
      "outputs": [],
      "stateMutability": "nonpayable",
      "type": "function"
    },
    {
      "inputs": [
        {
          "internalType": "bytes32",
          "name": "",
          "type": "bytes32"
        }
      ],
      "name": "stats_lib_addr",
      "outputs": [
        {
          "internalType": "address",
          "name": "",
          "type": "address"
        }
      ],
      "stateMutability": "view",
      "type": "function",
      "constant": true
    },
    {
      "inputs": [
        {
          "internalType": "bytes4",
          "name": "interfaceId",
          "type": "bytes4"
        }
      ],
      "name": "supportsInterface",
      "outputs": [
        {
          "internalType": "bool",
          "name": "",
          "type": "bool"
        }
      ],
      "stateMutability": "view",
      "type": "function",
      "constant": true
    },
    {
      "inputs": [
        {
          "internalType": "address",
          "name": "newManager",
          "type": "address"
        }
      ],
      "name": "switchManager",
      "outputs": [],
      "stateMutability": "nonpayable",
      "type": "function"
    },
    {
      "inputs": [
        {
          "internalType": "address",
          "name": "newOwner",
          "type": "address"
        }
      ],
      "name": "transferOwnership",
      "outputs": [],
      "stateMutability": "nonpayable",
      "type": "function"
    },
    {
      "inputs": [
        {
          "internalType": "address",
          "name": "newOwner",
          "type": "address"
        }
      ],
      "name": "updateOwnership",
      "outputs": [],
      "stateMutability": "nonpayable",
      "type": "function"
    },
    {
      "inputs": [],
      "name": "getName",
      "outputs": [
        {
          "internalType": "string",
          "name": "",
          "type": "string"
        }
      ],
      "stateMutability": "view",
      "type": "function",
      "constant": true
    },
    {
      "inputs": [],
      "name": "getId",
      "outputs": [
        {
          "internalType": "bytes32",
          "name": "",
          "type": "bytes32"
        }
      ],
      "stateMutability": "view",
      "type": "function",
      "constant": true
    },
    {
      "inputs": [
        {
          "internalType": "bytes32",
          "name": "hname",
          "type": "bytes32"
        },
        {
          "internalType": "address",
          "name": "contractInstance",
          "type": "address"
        },
        {
          "internalType": "bool",
          "name": "isNew",
          "type": "bool"
        }
      ],
      "name": "onListenAdded",
      "outputs": [],
      "stateMutability": "nonpayable",
      "type": "function"
    },
    {
      "inputs": [
        {
          "internalType": "bytes32",
          "name": "hname",
          "type": "bytes32"
        }
      ],
      "name": "onListenRemoved",
      "outputs": [],
      "stateMutability": "nonpayable",
      "type": "function"
    },
    {
      "inputs": [
        {
          "internalType": "address",
          "name": "tag_storage",
          "type": "address"
        }
      ],
      "name": "linkTAG",
      "outputs": [],
      "stateMutability": "nonpayable",
      "type": "function"
    },
    {
      "inputs": [
        {
          "internalType": "address",
          "name": "stats_lib",
          "type": "address"
        }
      ],
      "name": "_linkStatsLib",
      "outputs": [],
      "stateMutability": "nonpayable",
      "type": "function"
    },
    {
      "inputs": [
        {
          "internalType": "address",
          "name": "stats_lib",
          "type": "address"
        }
      ],
      "name": "linkStatsLib",
      "outputs": [],
      "stateMutability": "nonpayable",
      "type": "function"
    },
    {
      "inputs": [
        {
          "internalType": "bytes32",
          "name": "nft_type",
          "type": "bytes32"
        }
      ],
      "name": "stats",
      "outputs": [
        {
          "components": [
            {
              "internalType": "string",
              "name": "name",
              "type": "string"
            },
            {
              "internalType": "enum Util.StatType",
              "name": "statType",
              "type": "uint8"
            },
            {
              "internalType": "bool",
              "name": "is_mutable",
              "type": "bool"
            }
          ],
          "internalType": "struct Util.Stat[]",
          "name": "",
          "type": "tuple[]"
        }
      ],
      "stateMutability": "view",
      "type": "function",
      "constant": true
    },
    {
      "inputs": [
        {
          "internalType": "bytes32",
          "name": "nft_type",
          "type": "bytes32"
        },
        {
          "internalType": "uint256",
          "name": "id",
          "type": "uint256"
        },
        {
          "internalType": "string",
          "name": "name",
          "type": "string"
        }
      ],
      "name": "getStat",
      "outputs": [
        {
          "components": [
            {
              "internalType": "enum Util.StatType",
              "name": "statType",
              "type": "uint8"
            },
            {
              "internalType": "uint256",
              "name": "int_val",
              "type": "uint256"
            },
            {
              "internalType": "string",
              "name": "str_val",
              "type": "string"
            },
            {
              "internalType": "bytes32",
              "name": "bta_val",
              "type": "bytes32"
            },
            {
              "internalType": "bool",
              "name": "bool_val",
              "type": "bool"
            }
          ],
          "internalType": "struct Util.StatValue",
          "name": "",
          "type": "tuple"
        }
      ],
      "stateMutability": "view",
      "type": "function",
      "constant": true
    }
  ],
  "bytecode": "0x60c0604052600960808190526853746174735669657760b81b60a09081526200002c916004919062000234565b506040518060400160405280600981526020016853746174735669657760b81b815250604051602001620000619190620002da565b604051602081830303815290604052805190602001206005553480156200008757600080fd5b506200009333620000a6565b620000a0600033620000f6565b62000355565b600080546001600160a01b038381166001600160a01b0319831681178455604051919092169283917f8be0079c531659141344cd1fd0a4f28419497f9722a3daafe3b4186f6b6457e09190a35050565b6200010d82826200013960201b62001bbb1760201c565b60008281526002602090815260409091206200013491839062001c26620001c2821b17901c565b505050565b60008281526001602090815260408083206001600160a01b038516845290915290205460ff16620001be5760008281526001602081815260408084206001600160a01b0386168086529252808420805460ff19169093179092559051339285917f2f8788117e7eff1d82e926ec794901d17c78024a50270940304540a733656f0d9190a45b5050565b6000620001d9836001600160a01b038416620001e2565b90505b92915050565b60008181526001830160205260408120546200022b57508154600181810184556000848152602080822090930184905584548482528286019093526040902091909155620001dc565b506000620001dc565b828054620002429062000318565b90600052602060002090601f016020900481019282620002665760008555620002b1565b82601f106200028157805160ff1916838001178555620002b1565b82800160010185558215620002b1579182015b82811115620002b157825182559160200191906001019062000294565b50620002bf929150620002c3565b5090565b5b80821115620002bf5760008155600101620002c4565b6000825160005b81811015620002fd5760208186018101518583015201620002e1565b818111156200030d576000828501525b509190910192915050565b600181811c908216806200032d57607f821691505b602082108114156200034f57634e487b7160e01b600052602260045260246000fd5b50919050565b612d4b80620003656000396000f3fe608060405234801561001057600080fd5b50600436106101fb5760003560e01c80638840891e1161011a578063ae97568c116100ad578063d4697a471161007c578063d4697a471461045c578063d547741f1461046f578063d947969214610482578063ec87621c1461048a578063f2fde38b1461049f57600080fd5b8063ae97568c146103ed578063b1d89c0f1461040d578063c69c957914610436578063ca15c8731461044957600080fd5b806391d14854116100e957806391d14854146103ac5780639b26a3a8146103bf578063a217fddf146103d2578063a83993b7146103da57600080fd5b80638840891e1461036257806388971bf5146103755780638da5cb5b146103885780639010d07c1461039957600080fd5b80633ad32d16116101925780636025e1f1116101615780636025e1f1146103145780636b2bf27f14610327578063715018a61461033a578063846235731461034257600080fd5b80633ad32d16146102c5578063481c6a75146102ce5780635d1ca631146102f95780635df112911461030157600080fd5b80631a6f04f3116101ce5780631a6f04f314610265578063248a9ca31461026d5780632f2ff15d1461029f57806336568abe146102b257600080fd5b806301ffc9a7146102005780630447a2cd1461022857806316f28d241461023d57806317d7de7c14610250575b600080fd5b61021361020e3660046124a4565b6104b2565b60405190151581526020015b60405180910390f35b61023b6102363660046124ea565b6104dd565b005b61023b61024b36600461252b565b6104eb565b6102586105f2565b60405161021f91906125c3565b61023b610684565b61029161027b3660046125d6565b6000908152600160208190526040909120015490565b60405190815260200161021f565b61023b6102ad3660046125ef565b61068e565b61023b6102c03660046125ef565b6106b5565b61029160055481565b6003546102e1906001600160a01b031681565b6040516001600160a01b03909116815260200161021f565b600554610291565b61023b61030f366004612612565b61072f565b61023b610322366004612612565b61073b565b61023b610335366004612612565b61076e565b61023b610777565b61035561035036600461262d565b6107ab565b60405161021f91906126e5565b61023b610370366004612612565b6117cb565b61023b610383366004612612565b6117d4565b6000546001600160a01b03166102e1565b6102e16103a736600461273e565b611807565b6102136103ba3660046125ef565b611826565b61023b6103cd366004612612565b611851565b610291600081565b6006546102e1906001600160a01b031681565b6104006103fb3660046125d6565b61195a565b60405161021f9190612760565b6102e161041b3660046125d6565b6007602052600090815260409020546001600160a01b031681565b61023b610444366004612612565b6119e8565b6102916104573660046125d6565b6119f1565b61023b61046a3660046125d6565b611a08565b61023b61047d3660046125ef565b611a6e565b610258611a95565b610291600080516020612cf683398151915281565b61023b6104ad366004612612565b611b23565b60006001600160e01b0319821663ee7ed59960e01b14806104d757506104d782611c3b565b92915050565b6104e78282611c60565b5050565b610503600080516020612cf683398151915233611826565b6105285760405162461bcd60e51b815260040161051f906127ec565b60405180910390fd5b7fdfa926e49ecb76ef0407533073c674d3e6a6fb4a00d7941099f34757f314c42e83141561055e5761055982611cec565b505050565b6040516301ffc9a760e01b8152632977bbdf60e11b60048201526001600160a01b038316906301ffc9a79060240160206040518083038186803b1580156105a457600080fd5b505afa9250505080156105d4575060408051601f3d908101601f191682019092526105d191810190612849565b60015b6105dd57505050565b80156105ec576105ec83611851565b50505050565b60606004805461060190612866565b80601f016020809104026020016040519081016040528092919081815260200182805461062d90612866565b801561067a5780601f1061064f5761010080835404028352916020019161067a565b820191906000526020600020905b81548152906001019060200180831161065d57829003601f168201915b5050505050905090565b61068c611d41565b565b600082815260016020819052604090912001546106ab8133611db0565b6105598383611e14565b6001600160a01b03811633146107255760405162461bcd60e51b815260206004820152602f60248201527f416363657373436f6e74726f6c3a2063616e206f6e6c792072656e6f756e636560448201526e103937b632b9903337b91039b2b63360891b606482015260840161051f565b6104e78282611e36565b61073881611e58565b50565b6000546001600160a01b031633146107655760405162461bcd60e51b815260040161051f906128a1565b61073881611cec565b61073881611f10565b6000546001600160a01b031633146107a15760405162461bcd60e51b815260040161051f906128a1565b61068c6000611f86565b6107de6040805160a081019091528060008152600060208201819052606060408301819052820181905260809091015290565b600083836040516020016107f39291906128d6565b60408051808303601f19018152908290528051602090910120632ba5d5a360e21b8252600482018890529150600090309063ae97568c9060240160006040518083038186803b15801561084557600080fd5b505afa158015610859573d6000803e3d6000fd5b505050506040513d6000823e601f3d908101601f1916820160405261088191908101906129ba565b905060005b815181101561176f5760008282815181106108a3576108a3612ade565b6020026020010151600001516040516020016108bf9190612af4565b6040516020818303038152906040528051906020012090508084146108e4575061175d565b8282815181106108f6576108f6612ade565b6020026020010151604001511561127a5760405163dfbd4a0560e01b815260009073__Util__________________________________9063dfbd4a0590610945908c908c908c90600401612b39565b60206040518083038186803b15801561095d57600080fd5b505af4158015610971573d6000803e3d6000fd5b505050506040513d601f19601f820116820180604052508101906109959190612b5c565b905060008484815181106109ab576109ab612ade565b60200260200101516020015160038111156109c8576109c86126ad565b1415610bc957600654604051639007127b60e01b8152600481018390526001600160a01b0390911690639007127b9060240160206040518083038186803b158015610a1257600080fd5b505afa925050508015610a42575060408051601f3d908101601f19168201909252610a3f91810190612b5c565b60015b610b51576040518060a00160405280858581518110610a6357610a63612ade565b6020026020010151602001516003811115610a8057610a806126ad565b815260008c81526007602090815260409182902054915163180226a160e11b81529201916001600160a01b03909116906330044d4290610aca908f908f908f908f90600401612b75565b60206040518083038186803b158015610ae257600080fd5b505afa158015610af6573d6000803e3d6000fd5b505050506040513d601f19601f82011682018060405250810190610b1a9190612b5c565b81526020016040518060200160405280600081525081526020016000801916815260200160001515815250955050505050506117c3565b6040518060a00160405280868681518110610b6e57610b6e612ade565b6020026020010151602001516003811115610b8b57610b8b6126ad565b8152602001828152602001604051806020016040528060008152508152602001600080191681526020016000151581525096505050505050506117c3565b6001848481518110610bdd57610bdd612ade565b6020026020010151602001516003811115610bfa57610bfa6126ad565b1415610de25760065460405163288268a760e21b8152600481018390526001600160a01b039091169063a209a29c9060240160006040518083038186803b158015610c4457600080fd5b505afa925050508015610c7957506040513d6000823e601f3d908101601f19168201604052610c769190810190612b9f565b60015b610d78576040518060a00160405280858581518110610c9a57610c9a612ade565b6020026020010151602001516003811115610cb757610cb76126ad565b8152600060208083018290528d825260079052604090819020548151635f560e8360e01b815291909201916001600160a01b031690635f560e8390610d06908f908f908f908f90600401612b75565b60006040518083038186803b158015610d1e57600080fd5b505afa158015610d32573d6000803e3d6000fd5b505050506040513d6000823e601f3d908101601f19168201604052610d5a9190810190612b9f565b815260006020820181905260409091015295506117c3945050505050565b6040518060a00160405280868681518110610d9557610d95612ade565b6020026020010151602001516003811115610db257610db26126ad565b815260200160008152602001828152602001600080191681526020016000151581525096505050505050506117c3565b6002848481518110610df657610df6612ade565b6020026020010151602001516003811115610e1357610e136126ad565b141561100857600654604051630690c87560e31b8152600481018390526001600160a01b039091169063348643a89060240160206040518083038186803b158015610e5d57600080fd5b505afa925050508015610e8d575060408051601f3d908101601f19168201909252610e8a91810190612b5c565b60015b610f93576040518060a00160405280858581518110610eae57610eae612ade565b6020026020010151602001516003811115610ecb57610ecb6126ad565b815260006020808301829052604080518083018252838152818501528e83526007909152908190205490516341489ec160e11b81526060909201916001600160a01b03909116906382913d8290610f2c908f908f908f908f90600401612b75565b60206040518083038186803b158015610f4457600080fd5b505afa158015610f58573d6000803e3d6000fd5b505050506040513d601f19601f82011682018060405250810190610f7c9190612b5c565b8152600060209091015295506117c3945050505050565b6040518060a00160405280868681518110610fb057610fb0612ade565b6020026020010151602001516003811115610fcd57610fcd6126ad565b8152602001600081526020016040518060200160405280600081525081526020018281526020016000151581525096505050505050506117c3565b600384848151811061101c5761101c612ade565b6020026020010151602001516003811115611039576110396126ad565b141561123257600654604051630bf3ee9160e11b8152600481018390526001600160a01b03909116906317e7dd229060240160206040518083038186803b15801561108357600080fd5b505afa9250505080156110b3575060408051601f3d908101601f191682019092526110b091810190612849565b60015b6111ba576040518060a001604052808585815181106110d4576110d4612ade565b60200260200101516020015160038111156110f1576110f16126ad565b81526000602080830182905260408051808301825283815281850152606084018390528e8352600790915290819020549051630450a52d60e41b81526080909201916001600160a01b039091169063450a52d090611159908f908f908f908f90600401612b75565b60206040518083038186803b15801561117157600080fd5b505afa158015611185573d6000803e3d6000fd5b505050506040513d601f19601f820116820180604052508101906111a99190612849565b1515815250955050505050506117c3565b6040518060a001604052808686815181106111d7576111d7612ade565b60200260200101516020015160038111156111f4576111f46126ad565b8152602001600081526020016040518060200160405280600081525081526020016000801916815260200182151581525096505050505050506117c3565b60405162461bcd60e51b815260206004820152601960248201527f556e6b6e6f776e206d757461626c652073746174207479706500000000000000604482015260640161051f565b600083838151811061128e5761128e612ade565b60200260200101516020015160038111156112ab576112ab6126ad565b14156113bb576040518060a001604052808484815181106112ce576112ce612ade565b60200260200101516020015160038111156112eb576112eb6126ad565b815260008b81526007602090815260409182902054915163180226a160e11b81529201916001600160a01b03909116906330044d4290611335908e908e908e908e90600401612b75565b60206040518083038186803b15801561134d57600080fd5b505afa158015611361573d6000803e3d6000fd5b505050506040513d601f19601f820116820180604052508101906113859190612b5c565b815260200160405180602001604052806000815250815260200160008019168152602001600015158152509450505050506117c3565b60018383815181106113cf576113cf612ade565b60200260200101516020015160038111156113ec576113ec6126ad565b14156114ec576040518060a0016040528084848151811061140f5761140f612ade565b602002602001015160200151600381111561142c5761142c6126ad565b8152600060208083018290528c825260079052604090819020548151635f560e8360e01b815291909201916001600160a01b031690635f560e839061147b908e908e908e908e90600401612b75565b60006040518083038186803b15801561149357600080fd5b505afa1580156114a7573d6000803e3d6000fd5b505050506040513d6000823e601f3d908101601f191682016040526114cf9190810190612b9f565b815260006020820181905260409091015294506117c39350505050565b600283838151811061150057611500612ade565b602002602001015160200151600381111561151d5761151d6126ad565b1415611624576040518060a0016040528084848151811061154057611540612ade565b602002602001015160200151600381111561155d5761155d6126ad565b815260006020808301829052604080518083018252838152818501528d83526007909152908190205490516341489ec160e11b81526060909201916001600160a01b03909116906382913d82906115be908e908e908e908e90600401612b75565b60206040518083038186803b1580156115d657600080fd5b505afa1580156115ea573d6000803e3d6000fd5b505050506040513d601f19601f8201168201806040525081019061160e9190612b5c565b8152600060209091015294506117c39350505050565b600383838151811061163857611638612ade565b6020026020010151602001516003811115611655576116556126ad565b1415611232576040518060a0016040528084848151811061167857611678612ade565b6020026020010151602001516003811115611695576116956126ad565b81526000602080830182905260408051808301825283815281850152606084018390528d8352600790915290819020549051630450a52d60e41b81526080909201916001600160a01b039091169063450a52d0906116fd908e908e908e908e90600401612b75565b60206040518083038186803b15801561171557600080fd5b505afa158015611729573d6000803e3d6000fd5b505050506040513d601f19601f8201168201806040525081019061174d9190612849565b15158152509450505050506117c3565b8061176781612bea565b915050610886565b5060405162461bcd60e51b815260206004820152602260248201527f5374617473566965773a2052657175657374656420746167206e6f7420666f756044820152611b9960f21b606482015260840161051f565b949350505050565b61073881611fd6565b6000546001600160a01b031633146117fe5760405162461bcd60e51b815260040161051f906128a1565b61073881611851565b600082815260026020526040812061181f9083612058565b9392505050565b60009182526001602090815260408084206001600160a01b0393909316845291905290205460ff1690565b6000546001600160a01b0316331461187b5760405162461bcd60e51b815260040161051f906128a1565b6000816001600160a01b03166354b10da16040518163ffffffff1660e01b815260040160206040518083038186803b1580156118b657600080fd5b505afa1580156118ca573d6000803e3d6000fd5b505050506040513d601f19601f820116820180604052508101906118ee9190612b5c565b60008181526007602090815260409182902080546001600160a01b0319166001600160a01b03871690811790915582519081529081018390529192507f84802f68700c5b5387a2cc14f6eefd506bb66c7cadc7df8ecce702fe7b7b343391015b60405180910390a15050565b60008181526007602052604090819020549051632ba5d5a360e21b8152600481018390526060916001600160a01b03169063ae97568c9060240160006040518083038186803b1580156119ac57600080fd5b505afa1580156119c0573d6000803e3d6000fd5b505050506040513d6000823e601f3d908101601f191682016040526104d791908101906129ba565b61073881612064565b60008181526002602052604081206104d7906120e1565b611a20600080516020612cf683398151915233611826565b611a3c5760405162461bcd60e51b815260040161051f906127ec565b7fdfa926e49ecb76ef0407533073c674d3e6a6fb4a00d7941099f34757f314c42e811415610738576107386000611cec565b60008281526001602081905260409091200154611a8b8133611db0565b6105598383611e36565b60048054611aa290612866565b80601f0160208091040260200160405190810160405280929190818152602001828054611ace90612866565b8015611b1b5780601f10611af057610100808354040283529160200191611b1b565b820191906000526020600020905b815481529060010190602001808311611afe57829003601f168201915b505050505081565b6000546001600160a01b03163314611b4d5760405162461bcd60e51b815260040161051f906128a1565b6001600160a01b038116611bb25760405162461bcd60e51b815260206004820152602660248201527f4f776e61626c653a206e6577206f776e657220697320746865207a65726f206160448201526564647265737360d01b606482015260840161051f565b61073881611f86565b611bc58282611826565b6104e75760008281526001602081815260408084206001600160a01b0386168086529252808420805460ff19169093179092559051339285917f2f8788117e7eff1d82e926ec794901d17c78024a50270940304540a733656f0d9190a45050565b600061181f836001600160a01b0384166120eb565b60006001600160e01b03198216635a05180f60e01b14806104d757506104d78261213a565b611c78600080516020612cf683398151915233611826565b611c945760405162461bcd60e51b815260040161051f906127ec565b600380546001600160a01b0319166001600160a01b0383811691821790925560408051928516835260208301919091527ff6515f2a6d531f16723c1e578303b7d74152bf8c0fa3bee828700a3d4706da8d910161194e565b600680546001600160a01b0319166001600160a01b0383169081179091556040519081527fd6bd8455a554480b643ff6104fea79e1a7c1b27d210a7e7911a3b6a3c64b7079906020015b60405180910390a150565b611d59600080516020612cf683398151915233611826565b611d755760405162461bcd60e51b815260040161051f906127ec565b600380546001600160a01b03191690556040517f9a9a74cf290a994f69a718e8557deb1dd65135268f40e660cecddf675f5dd51490600090a1565b611dba8282611826565b6104e757611dd2816001600160a01b0316601461216f565b611ddd83602061216f565b604051602001611dee929190612c05565b60408051601f198184030181529082905262461bcd60e51b825261051f916004016125c3565b611e1e8282611bbb565b60008281526002602052604090206105599082611c26565b611e40828261230b565b60008281526002602052604090206105599082612372565b611e70600080516020612cf683398151915233611826565b611e8c5760405162461bcd60e51b815260040161051f906127ec565b600380546001600160a01b0319166001600160a01b038316179055611ebf600080516020612cf68339815191528261068e565b611ed7600080516020612cf683398151915233611a6e565b6040516001600160a01b03821681527f8eb47098f9568be754f51d21a870c8091ee0242cf97418db00927326d0e6ffcf90602001611d36565b611f28600080516020612cf683398151915233611826565b611f445760405162461bcd60e51b815260040161051f906127ec565b611f4d81611b23565b6040516001600160a01b03821681527ff2addf7f813887cf0fdd82b58fcc379ab2301e95c90b41a8cf2e5401914689c990602001611d36565b600080546001600160a01b038381166001600160a01b0319831681178455604051919092169283917f8be0079c531659141344cd1fd0a4f28419497f9722a3daafe3b4186f6b6457e09190a35050565b611fee600080516020612cf683398151915233611826565b61200a5760405162461bcd60e51b815260040161051f906127ec565b600380546001600160a01b0319166001600160a01b0383169081179091556040519081527f89c66952b48f3e96bf1d8ba1b63189520fd988a6979b8b740bd5c5d8dc53e20590602001611d36565b600061181f8383612387565b61207c600080516020612cf683398151915233611826565b6120985760405162461bcd60e51b815260040161051f906127ec565b600380546001600160a01b03191690556040516001600160a01b03821681527f85a56ff958486f55dd742819603a46ba6233d3b24e6715f9cd5fd2ef6425d68090602001611d36565b60006104d7825490565b6000818152600183016020526040812054612132575081546001818101845560008481526020808220909301849055845484825282860190935260409020919091556104d7565b5060006104d7565b60006001600160e01b03198216637965db0b60e01b14806104d757506301ffc9a760e01b6001600160e01b03198316146104d7565b6060600061217e836002612c7a565b612189906002612c99565b67ffffffffffffffff8111156121a1576121a16128e6565b6040519080825280601f01601f1916602001820160405280156121cb576020820181803683370190505b509050600360fc1b816000815181106121e6576121e6612ade565b60200101906001600160f81b031916908160001a905350600f60fb1b8160018151811061221557612215612ade565b60200101906001600160f81b031916908160001a9053506000612239846002612c7a565b612244906001612c99565b90505b60018111156122bc576f181899199a1a9b1b9c1cb0b131b232b360811b85600f166010811061227857612278612ade565b1a60f81b82828151811061228e5761228e612ade565b60200101906001600160f81b031916908160001a90535060049490941c936122b581612cb1565b9050612247565b50831561181f5760405162461bcd60e51b815260206004820181905260248201527f537472696e67733a20686578206c656e67746820696e73756666696369656e74604482015260640161051f565b6123158282611826565b156104e75760008281526001602090815260408083206001600160a01b0385168085529252808320805460ff1916905551339285917ff6391f5c32d9c69d2a47ea670b442974b53935d1edc7fd64eb21e047a839171b9190a45050565b600061181f836001600160a01b0384166123b1565b600082600001828154811061239e5761239e612ade565b9060005260206000200154905092915050565b6000818152600183016020526040812054801561249a5760006123d5600183612cc8565b85549091506000906123e990600190612cc8565b905081811461244e57600086600001828154811061240957612409612ade565b906000526020600020015490508087600001848154811061242c5761242c612ade565b6000918252602080832090910192909255918252600188019052604090208390555b855486908061245f5761245f612cdf565b6001900381819060005260206000200160009055905585600101600086815260200190815260200160002060009055600193505050506104d7565b60009150506104d7565b6000602082840312156124b657600080fd5b81356001600160e01b03198116811461181f57600080fd5b80356001600160a01b03811681146124e557600080fd5b919050565b600080604083850312156124fd57600080fd5b612506836124ce565b9150612514602084016124ce565b90509250929050565b801515811461073857600080fd5b60008060006060848603121561254057600080fd5b83359250612550602085016124ce565b915060408401356125608161251d565b809150509250925092565b60005b8381101561258657818101518382015260200161256e565b838111156105ec5750506000910152565b600081518084526125af81602086016020860161256b565b601f01601f19169290920160200192915050565b60208152600061181f6020830184612597565b6000602082840312156125e857600080fd5b5035919050565b6000806040838503121561260257600080fd5b82359150612514602084016124ce565b60006020828403121561262457600080fd5b61181f826124ce565b6000806000806060858703121561264357600080fd5b8435935060208501359250604085013567ffffffffffffffff8082111561266957600080fd5b818701915087601f83011261267d57600080fd5b81358181111561268c57600080fd5b88602082850101111561269e57600080fd5b95989497505060200194505050565b634e487b7160e01b600052602160045260246000fd5b600481106126e157634e487b7160e01b600052602160045260246000fd5b9052565b602081526126f76020820183516126c3565b602082015160408201526000604083015160a0606084015261271c60c0840182612597565b9050606084015160808401526080840151151560a08401528091505092915050565b6000806040838503121561275157600080fd5b50508035926020909101359150565b60006020808301818452808551808352604092508286019150828160051b87010184880160005b838110156127de57603f198984030185528151606081518186526127ad82870182612597565b915050888201516127c08a8701826126c3565b50908701511515938701939093529386019390860190600101612787565b509098975050505050505050565b6020808252603b908201527f43726f7373436f6e74726163744d616e4c697374656e65723a2074686520636160408201527f6c6c6572206d7573742068617665204d414e414745525f524f4c450000000000606082015260800190565b60006020828403121561285b57600080fd5b815161181f8161251d565b600181811c9082168061287a57607f821691505b6020821081141561289b57634e487b7160e01b600052602260045260246000fd5b50919050565b6020808252818101527f4f776e61626c653a2063616c6c6572206973206e6f7420746865206f776e6572604082015260600190565b8183823760009101908152919050565b634e487b7160e01b600052604160045260246000fd5b6040516060810167ffffffffffffffff8111828210171561291f5761291f6128e6565b60405290565b604051601f8201601f1916810167ffffffffffffffff8111828210171561294e5761294e6128e6565b604052919050565b600082601f83011261296757600080fd5b815167ffffffffffffffff811115612981576129816128e6565b612994601f8201601f1916602001612925565b8181528460208386010111156129a957600080fd5b6117c382602083016020870161256b565b600060208083850312156129cd57600080fd5b825167ffffffffffffffff808211156129e557600080fd5b818501915085601f8301126129f957600080fd5b815181811115612a0b57612a0b6128e6565b8060051b612a1a858201612925565b9182528381018501918581019089841115612a3457600080fd5b86860192505b83831015612ad157825185811115612a525760008081fd5b86016060818c03601f1901811315612a6a5760008081fd5b612a726128fc565b8983015188811115612a845760008081fd5b612a928e8c83870101612956565b82525060408084015160048110612aa95760008081fd5b828c01529282015192612abb8461251d565b8101929092525082529186019190860190612a3a565b9998505050505050505050565b634e487b7160e01b600052603260045260246000fd5b60008251612b0681846020870161256b565b9190910192915050565b81835281816020850137506000828201602090810191909152601f909101601f19169091010190565b838152604060208201526000612b53604083018486612b10565b95945050505050565b600060208284031215612b6e57600080fd5b5051919050565b848152836020820152606060408201526000612b95606083018486612b10565b9695505050505050565b600060208284031215612bb157600080fd5b815167ffffffffffffffff811115612bc857600080fd5b6117c384828501612956565b634e487b7160e01b600052601160045260246000fd5b6000600019821415612bfe57612bfe612bd4565b5060010190565b7f416363657373436f6e74726f6c3a206163636f756e7420000000000000000000815260008351612c3d81601785016020880161256b565b7001034b99036b4b9b9b4b733903937b6329607d1b6017918401918201528351612c6e81602884016020880161256b565b01602801949350505050565b6000816000190483118215151615612c9457612c94612bd4565b500290565b60008219821115612cac57612cac612bd4565b500190565b600081612cc057612cc0612bd4565b506000190190565b600082821015612cda57612cda612bd4565b500390565b634e487b7160e01b600052603160045260246000fdfe241ecf16d79d0f8dbfb92cbc07fe17840425976cf0667f022fe9877caa831b08a26469706673582212202a7fe42426a676548fcb8a48aadf7ee5593c813aad2ea335f428767a3cb7bacf64736f6c63430008090033",
  "immutableReferences": {},
  "source": "// SPDX-License-Identifier: MIT\npragma solidity ^0.8;\n\nimport \"@openzeppelin/contracts/access/Ownable.sol\";\nimport \"./IStatsDerive.sol\";\nimport \"./TagStorage.sol\";\nimport \"./CrossContractManListener.sol\";\nimport {Util} from \"./Util.sol\";\n\ncontract StatsView is CrossContractManListener {\n    string  public contract_name = Util.STATS_VIEW_CONTRACT_NAME;\n    bytes32 public contract_id = Util.STATS_VIEW_CONTRACT_ID;\n\n    address public\tTAG_addr;\n//    address public\tNFT_addr;\n    mapping(bytes32 => address) public\tstats_lib_addr;\n\n/*    constructor(address tag_storage, address nft_container){\n\tTAG_addr = tag_storage;\n//\tNFT_addr = nft_container;\n    }*/\n\n    function getName() view external returns(string memory) {\n\treturn contract_name;\n    }\n\n    function getId() view external returns(bytes32) {\n\treturn contract_id;\n    }\n\n    function onListenAdded(bytes32 hname, address contractInstance, bool isNew) external onlyManager {\n\tif(hname == Util.TAG_STORAGE_CONTRACT_ID){\n\t    _linkTAG(contractInstance);\n\t    return;\n\t}\n\ttry IERC165(contractInstance).supportsInterface(type(IStatsDerive).interfaceId) returns(bool responce){\n\t    if(responce){\n\t\t_linkStatsLib(contractInstance);\n\t\treturn;\n\t    }\n\t}catch{}\n/*\tif(IERC165(contractInstance).supportsInterface(type(IStatsDerive).interfaceId)){\n\t    _linkStatsLib(contractInstance);\n\t    return;\n\t}*/\n    }\n\n    function onListenRemoved(bytes32 hname) external onlyManager {\n\tif(hname == Util.TAG_STORAGE_CONTRACT_ID){\n\t    _linkTAG(address(0));\n\t    return;\n\t}\n/*\tif((contractInstance).contract_id){\n\t    _linkStatsLib(address(0));\n\t    return;\n\t}*/\n    }\n\n\n    function _linkTAG(address tag_storage) internal {\n        TAG_addr = tag_storage;\n        emit TAGLink(tag_storage);\n    }\n\n/*    function _linkNFT(address nft_container) internal {\n        NFT_addr = nft_container;\n        emit NFTLink(nft_container);\n    }*/\n\n    /**\n     * @notice Sets link to Tag Storage smart contract\n    **/\n    function linkTAG(address tag_storage) public virtual onlyOwner {\n\t_linkTAG(tag_storage);\n    }\n\n    /**\n     * @notice Sets link to ERC1155 NFT smart contract\n    **/\n/*    function linkNFT(address nft_container) public virtual onlyOwner {\n\t_linkNFT(nft_container);\n    }*/\n\n\n    /**\n     * @notice Sets link to the Stats deriving library\n    **/\n    function _linkStatsLib(address stats_lib) public virtual onlyOwner {\n\tbytes32 nft_type = IStatsDerive(stats_lib).tokenTypeCode();\n        stats_lib_addr[nft_type] = stats_lib;\n        emit StatsLibLink(stats_lib, nft_type);\n    }\n\n    /**\n     * @notice Sets link to the Stats deriving library\n    **/\n    function linkStatsLib(address stats_lib) public virtual onlyOwner {\n\t_linkStatsLib(stats_lib);\n    }\n\n    /**\n     * @notice Defines a set of stats that can be derived\n     *\n     * @return An enumerable set (actually, an array) of stats that can be derived by the interface implementation\n    **/\n    function stats(bytes32 nft_type) external view returns (Util.Stat[] memory) {\n\treturn IStatsDerive(stats_lib_addr[nft_type]).stats(nft_type);\n\trevert('Unknown NFT type');\n    }\n\n     /**\n     * @notice Read an integer stat\n     *\n     * @param id An id generated by an RNG\n     * @param name The stats' name\n     * @return The stats' value\n    **/\n    function getStat(bytes32 nft_type, uint256 id, string calldata name) external view returns (Util.StatValue memory){\n\tbytes32 h_name = keccak256(abi.encodePacked(name));\n\n\tUtil.Stat[] memory _stats = this.stats(nft_type);\n\tfor(uint i=0; i<_stats.length; i++){\n\t    bytes32 h_stats_name = keccak256(abi.encodePacked(_stats[i].name));\n\t    if(h_name != h_stats_name)continue;\n\t    if(_stats[i].is_mutable){\n\t\tbytes32 key = Util.getTagKey(id,name);\n\t\tif(_stats[i].statType == Util.StatType.Integer){\n\t\t    try TagStorage(TAG_addr).getIntValue(key) returns(uint256 value){\n\t\t\treturn (Util.StatValue(_stats[i].statType, value, \"\", \"\", false));\n\t\t    }catch{\n//\t\t\treturn (Util.StatValue(_stats[i].statType, 0, \"\", \"\", false));\n\t\t\treturn (Util.StatValue(_stats[i].statType, IStatsDerive(stats_lib_addr[nft_type]).getStatInt(nft_type, id, name), \"\", \"\", false));\n\t\t    }\n\t\t}\n\t\telse if(_stats[i].statType == Util.StatType.String){\n\t\t    try TagStorage(TAG_addr).getStringValue(key) returns (string memory value){\n\t\t\treturn (Util.StatValue(_stats[i].statType, 0, value, \"\", false));\n\t\t    }catch{\n//\t\t\treturn (Util.StatValue(_stats[i].statType, 0, \"\", \"\", false));\n\t\t\treturn (Util.StatValue(_stats[i].statType, 0, IStatsDerive(stats_lib_addr[nft_type]).getStatString(nft_type, id, name), \"\", false));\n\t\t    }\n\t\t}\n\t\telse if(_stats[i].statType == Util.StatType.ByteArray){\n\t\t    try TagStorage(TAG_addr).getByte32Value(key) returns (bytes32 value){\n\t\t\treturn (Util.StatValue(_stats[i].statType, 0, \"\", value, false));\n\t\t    }catch{\n//\t\t\treturn (Util.StatValue(_stats[i].statType, 0, \"\", \"\", false));\n\t\t\treturn (Util.StatValue(_stats[i].statType, 0, \"\", IStatsDerive(stats_lib_addr[nft_type]).getStatByte32(nft_type, id, name), false));\n\t\t    }\n\t\t}\n\t\telse if(_stats[i].statType == Util.StatType.Boolean){\n\t\t    try TagStorage(TAG_addr).getBooleanValue(key) returns (bool value){\n\t\t\treturn (Util.StatValue(_stats[i].statType, 0, \"\", \"\", value));\n\t\t    }catch{\n//\t\t\treturn (Util.StatValue(_stats[i].statType, 0, \"\", \"\", false));\n\t\t\treturn (Util.StatValue(_stats[i].statType, 0, \"\", \"\", IStatsDerive(stats_lib_addr[nft_type]).getStatBool(nft_type, id, name)));\n\t\t    }\n\t\t}\n\t\trevert(\"Unknown mutable stat type\");\n\t    }else{\n\t\tif(_stats[i].statType == Util.StatType.Integer)\n\t\t    return (Util.StatValue(_stats[i].statType, IStatsDerive(stats_lib_addr[nft_type]).getStatInt(nft_type, id, name), \"\", \"\", false));\n\t\telse if(_stats[i].statType == Util.StatType.String)\n\t\t    return (Util.StatValue(_stats[i].statType, 0, IStatsDerive(stats_lib_addr[nft_type]).getStatString(nft_type, id, name), \"\", false));\n\t\telse if(_stats[i].statType == Util.StatType.ByteArray)\n\t\t    return (Util.StatValue(_stats[i].statType, 0, \"\", IStatsDerive(stats_lib_addr[nft_type]).getStatByte32(nft_type, id, name), false));\n\t\telse if(_stats[i].statType == Util.StatType.Boolean)\n\t\t    return (Util.StatValue(_stats[i].statType, 0, \"\", \"\", IStatsDerive(stats_lib_addr[nft_type]).getStatBool(nft_type, id, name)));\n\t\trevert(\"Unknown mutable stat type\");\n\t    }\n\t}\n\trevert(\"StatsView: Requested tag not found\");\n    }\n\n    event\tTAGLink(address tag_addr);\n    event\tNFTLink(address nft_addr);\n    event\tStatsLibLink(address stats_lib_addr, bytes32 nft_type);\n\n}\n",
  "sourcePath": "/home/vrogojin/Projects/FireZard/nft/contracts/StatsView.sol",
  "compiler": {
    "name": "solc",
    "version": "0.8.9+commit.e5eed63a.Emscripten.clang"
  },
  "schemaVersion": "3.4.3",
  "updatedAt": "2022-02-10T17:40:06.256Z",
  "networkType": "ethereum",
  "devdoc": {
    "kind": "dev",
    "methods": {
      "getRoleAdmin(bytes32)": {
        "details": "Returns the admin role that controls `role`. See {grantRole} and {revokeRole}. To change a role's admin, use {_setRoleAdmin}."
      },
      "getRoleMember(bytes32,uint256)": {
        "details": "Returns one of the accounts that have `role`. `index` must be a value between 0 and {getRoleMemberCount}, non-inclusive. Role bearers are not sorted in any particular way, and their ordering may change at any point. WARNING: When using {getRoleMember} and {getRoleMemberCount}, make sure you perform all queries on the same block. See the following https://forum.openzeppelin.com/t/iterating-over-elements-on-enumerableset-in-openzeppelin-contracts/2296[forum post] for more information."
      },
      "getRoleMemberCount(bytes32)": {
        "details": "Returns the number of accounts that have `role`. Can be used together with {getRoleMember} to enumerate all bearers of a role."
      },
      "getStat(bytes32,uint256,string)": {
        "params": {
          "id": "An id generated by an RNG",
          "name": "The stats' name"
        },
        "returns": {
          "_0": "The stats' value*"
        }
      },
      "grantRole(bytes32,address)": {
        "details": "Grants `role` to `account`. If `account` had not been already granted `role`, emits a {RoleGranted} event. Requirements: - the caller must have ``role``'s admin role."
      },
      "hasRole(bytes32,address)": {
        "details": "Returns `true` if `account` has been granted `role`."
      },
      "owner()": {
        "details": "Returns the address of the current owner."
      },
      "renounceOwnership()": {
        "details": "Leaves the contract without owner. It will not be possible to call `onlyOwner` functions anymore. Can only be called by the current owner. NOTE: Renouncing ownership will leave the contract without an owner, thereby removing any functionality that is only available to the owner."
      },
      "renounceRole(bytes32,address)": {
        "details": "Revokes `role` from the calling account. Roles are often managed via {grantRole} and {revokeRole}: this function's purpose is to provide a mechanism for accounts to lose their privileges if they are compromised (such as when a trusted device is misplaced). If the calling account had been revoked `role`, emits a {RoleRevoked} event. Requirements: - the caller must be `account`."
      },
      "revokeRole(bytes32,address)": {
        "details": "Revokes `role` from `account`. If `account` had been granted `role`, emits a {RoleRevoked} event. Requirements: - the caller must have ``role``'s admin role."
      },
      "stats(bytes32)": {
        "returns": {
          "_0": "An enumerable set (actually, an array) of stats that can be derived by the interface implementation*"
        }
      },
      "supportsInterface(bytes4)": {
        "details": "See {IERC165-supportsInterface}."
      },
      "transferOwnership(address)": {
        "details": "Transfers ownership of the contract to a new account (`newOwner`). Can only be called by the current owner."
      }
    },
    "version": 1
  },
  "userdoc": {
    "kind": "user",
    "methods": {
      "_linkStatsLib(address)": {
        "notice": "Sets link to the Stats deriving library*"
      },
      "getStat(bytes32,uint256,string)": {
        "notice": "Read an integer stat"
      },
      "linkStatsLib(address)": {
        "notice": "Sets link to the Stats deriving library*"
      },
      "linkTAG(address)": {
        "notice": "Sets link to Tag Storage smart contract*"
      },
      "stats(bytes32)": {
        "notice": "Defines a set of stats that can be derived"
      }
    },
    "version": 1
  }
}