{
  "contractName": "StatsDistrib",
  "abi": [
    {
      "inputs": [],
      "stateMutability": "nonpayable",
      "type": "constructor"
    },
    {
      "anonymous": false,
      "inputs": [
        {
          "indexed": false,
          "internalType": "address",
          "name": "_manager",
          "type": "address"
        }
      ],
      "name": "ContractAdded",
      "type": "event"
    },
    {
      "anonymous": false,
      "inputs": [
        {
          "indexed": false,
          "internalType": "address",
          "name": "newManager",
          "type": "address"
        }
      ],
      "name": "ContractManagerSwitch",
      "type": "event"
    },
    {
      "anonymous": false,
      "inputs": [
        {
          "indexed": false,
          "internalType": "address",
          "name": "newOwner",
          "type": "address"
        }
      ],
      "name": "ContractOwnershipUpdate",
      "type": "event"
    },
    {
      "anonymous": false,
      "inputs": [],
      "name": "ContractRemoved",
      "type": "event"
    },
    {
      "anonymous": false,
      "inputs": [
        {
          "indexed": false,
          "internalType": "address",
          "name": "contractInstance",
          "type": "address"
        }
      ],
      "name": "ContractReplaced",
      "type": "event"
    },
    {
      "anonymous": false,
      "inputs": [
        {
          "indexed": false,
          "internalType": "address",
          "name": "oldInstance",
          "type": "address"
        },
        {
          "indexed": false,
          "internalType": "address",
          "name": "_manager",
          "type": "address"
        }
      ],
      "name": "ContractUpdated",
      "type": "event"
    },
    {
      "anonymous": false,
      "inputs": [
        {
          "indexed": true,
          "internalType": "address",
          "name": "previousOwner",
          "type": "address"
        },
        {
          "indexed": true,
          "internalType": "address",
          "name": "newOwner",
          "type": "address"
        }
      ],
      "name": "OwnershipTransferred",
      "type": "event"
    },
    {
      "anonymous": false,
      "inputs": [
        {
          "indexed": true,
          "internalType": "bytes32",
          "name": "role",
          "type": "bytes32"
        },
        {
          "indexed": true,
          "internalType": "bytes32",
          "name": "previousAdminRole",
          "type": "bytes32"
        },
        {
          "indexed": true,
          "internalType": "bytes32",
          "name": "newAdminRole",
          "type": "bytes32"
        }
      ],
      "name": "RoleAdminChanged",
      "type": "event"
    },
    {
      "anonymous": false,
      "inputs": [
        {
          "indexed": true,
          "internalType": "bytes32",
          "name": "role",
          "type": "bytes32"
        },
        {
          "indexed": true,
          "internalType": "address",
          "name": "account",
          "type": "address"
        },
        {
          "indexed": true,
          "internalType": "address",
          "name": "sender",
          "type": "address"
        }
      ],
      "name": "RoleGranted",
      "type": "event"
    },
    {
      "anonymous": false,
      "inputs": [
        {
          "indexed": true,
          "internalType": "bytes32",
          "name": "role",
          "type": "bytes32"
        },
        {
          "indexed": true,
          "internalType": "address",
          "name": "account",
          "type": "address"
        },
        {
          "indexed": true,
          "internalType": "address",
          "name": "sender",
          "type": "address"
        }
      ],
      "name": "RoleRevoked",
      "type": "event"
    },
    {
      "inputs": [],
      "name": "DEFAULT_ADMIN_ROLE",
      "outputs": [
        {
          "internalType": "bytes32",
          "name": "",
          "type": "bytes32"
        }
      ],
      "stateMutability": "view",
      "type": "function",
      "constant": true
    },
    {
      "inputs": [],
      "name": "MANAGER_ROLE",
      "outputs": [
        {
          "internalType": "bytes32",
          "name": "",
          "type": "bytes32"
        }
      ],
      "stateMutability": "view",
      "type": "function",
      "constant": true
    },
    {
      "inputs": [],
      "name": "contract_id",
      "outputs": [
        {
          "internalType": "bytes32",
          "name": "",
          "type": "bytes32"
        }
      ],
      "stateMutability": "view",
      "type": "function",
      "constant": true
    },
    {
      "inputs": [],
      "name": "contract_name",
      "outputs": [
        {
          "internalType": "string",
          "name": "",
          "type": "string"
        }
      ],
      "stateMutability": "view",
      "type": "function",
      "constant": true
    },
    {
      "inputs": [
        {
          "internalType": "uint256",
          "name": "",
          "type": "uint256"
        }
      ],
      "name": "dragonCardRarity",
      "outputs": [
        {
          "internalType": "uint256",
          "name": "",
          "type": "uint256"
        }
      ],
      "stateMutability": "view",
      "type": "function",
      "constant": true
    },
    {
      "inputs": [],
      "name": "dragonCardRarityPopulationSize",
      "outputs": [
        {
          "internalType": "uint256",
          "name": "",
          "type": "uint256"
        }
      ],
      "stateMutability": "view",
      "type": "function",
      "constant": true
    },
    {
      "inputs": [
        {
          "internalType": "uint256",
          "name": "",
          "type": "uint256"
        }
      ],
      "name": "dragonCardType",
      "outputs": [
        {
          "internalType": "uint256",
          "name": "",
          "type": "uint256"
        }
      ],
      "stateMutability": "view",
      "type": "function",
      "constant": true
    },
    {
      "inputs": [],
      "name": "dragonCardTypePopulationSize",
      "outputs": [
        {
          "internalType": "uint256",
          "name": "",
          "type": "uint256"
        }
      ],
      "stateMutability": "view",
      "type": "function",
      "constant": true
    },
    {
      "inputs": [
        {
          "internalType": "bytes32",
          "name": "role",
          "type": "bytes32"
        }
      ],
      "name": "getRoleAdmin",
      "outputs": [
        {
          "internalType": "bytes32",
          "name": "",
          "type": "bytes32"
        }
      ],
      "stateMutability": "view",
      "type": "function",
      "constant": true
    },
    {
      "inputs": [
        {
          "internalType": "bytes32",
          "name": "role",
          "type": "bytes32"
        },
        {
          "internalType": "uint256",
          "name": "index",
          "type": "uint256"
        }
      ],
      "name": "getRoleMember",
      "outputs": [
        {
          "internalType": "address",
          "name": "",
          "type": "address"
        }
      ],
      "stateMutability": "view",
      "type": "function",
      "constant": true
    },
    {
      "inputs": [
        {
          "internalType": "bytes32",
          "name": "role",
          "type": "bytes32"
        }
      ],
      "name": "getRoleMemberCount",
      "outputs": [
        {
          "internalType": "uint256",
          "name": "",
          "type": "uint256"
        }
      ],
      "stateMutability": "view",
      "type": "function",
      "constant": true
    },
    {
      "inputs": [
        {
          "internalType": "bytes32",
          "name": "role",
          "type": "bytes32"
        },
        {
          "internalType": "address",
          "name": "account",
          "type": "address"
        }
      ],
      "name": "grantRole",
      "outputs": [],
      "stateMutability": "nonpayable",
      "type": "function"
    },
    {
      "inputs": [
        {
          "internalType": "bytes32",
          "name": "role",
          "type": "bytes32"
        },
        {
          "internalType": "address",
          "name": "account",
          "type": "address"
        }
      ],
      "name": "hasRole",
      "outputs": [
        {
          "internalType": "bool",
          "name": "",
          "type": "bool"
        }
      ],
      "stateMutability": "view",
      "type": "function",
      "constant": true
    },
    {
      "inputs": [],
      "name": "manager",
      "outputs": [
        {
          "internalType": "address",
          "name": "",
          "type": "address"
        }
      ],
      "stateMutability": "view",
      "type": "function",
      "constant": true
    },
    {
      "inputs": [
        {
          "internalType": "address",
          "name": "_manager",
          "type": "address"
        }
      ],
      "name": "onAdd",
      "outputs": [],
      "stateMutability": "nonpayable",
      "type": "function"
    },
    {
      "inputs": [],
      "name": "onRemoved",
      "outputs": [],
      "stateMutability": "nonpayable",
      "type": "function"
    },
    {
      "inputs": [
        {
          "internalType": "address",
          "name": "newInstance",
          "type": "address"
        }
      ],
      "name": "onReplaced",
      "outputs": [],
      "stateMutability": "nonpayable",
      "type": "function"
    },
    {
      "inputs": [],
      "name": "owner",
      "outputs": [
        {
          "internalType": "address",
          "name": "",
          "type": "address"
        }
      ],
      "stateMutability": "view",
      "type": "function",
      "constant": true
    },
    {
      "inputs": [],
      "name": "renounceOwnership",
      "outputs": [],
      "stateMutability": "nonpayable",
      "type": "function"
    },
    {
      "inputs": [
        {
          "internalType": "bytes32",
          "name": "role",
          "type": "bytes32"
        },
        {
          "internalType": "address",
          "name": "account",
          "type": "address"
        }
      ],
      "name": "renounceRole",
      "outputs": [],
      "stateMutability": "nonpayable",
      "type": "function"
    },
    {
      "inputs": [
        {
          "internalType": "bytes32",
          "name": "role",
          "type": "bytes32"
        },
        {
          "internalType": "address",
          "name": "account",
          "type": "address"
        }
      ],
      "name": "revokeRole",
      "outputs": [],
      "stateMutability": "nonpayable",
      "type": "function"
    },
    {
      "inputs": [
        {
          "internalType": "bytes4",
          "name": "interfaceId",
          "type": "bytes4"
        }
      ],
      "name": "supportsInterface",
      "outputs": [
        {
          "internalType": "bool",
          "name": "",
          "type": "bool"
        }
      ],
      "stateMutability": "view",
      "type": "function",
      "constant": true
    },
    {
      "inputs": [
        {
          "internalType": "address",
          "name": "newManager",
          "type": "address"
        }
      ],
      "name": "switchManager",
      "outputs": [],
      "stateMutability": "nonpayable",
      "type": "function"
    },
    {
      "inputs": [
        {
          "internalType": "address",
          "name": "newOwner",
          "type": "address"
        }
      ],
      "name": "transferOwnership",
      "outputs": [],
      "stateMutability": "nonpayable",
      "type": "function"
    },
    {
      "inputs": [
        {
          "internalType": "address",
          "name": "newOwner",
          "type": "address"
        }
      ],
      "name": "updateOwnership",
      "outputs": [],
      "stateMutability": "nonpayable",
      "type": "function"
    },
    {
      "inputs": [],
      "name": "getName",
      "outputs": [
        {
          "internalType": "string",
          "name": "",
          "type": "string"
        }
      ],
      "stateMutability": "view",
      "type": "function",
      "constant": true
    },
    {
      "inputs": [],
      "name": "getId",
      "outputs": [
        {
          "internalType": "bytes32",
          "name": "",
          "type": "bytes32"
        }
      ],
      "stateMutability": "view",
      "type": "function",
      "constant": true
    },
    {
      "inputs": [
        {
          "internalType": "bytes32",
          "name": "hname",
          "type": "bytes32"
        },
        {
          "internalType": "address",
          "name": "contractInstance",
          "type": "address"
        },
        {
          "internalType": "bool",
          "name": "isNew",
          "type": "bool"
        }
      ],
      "name": "onListenAdded",
      "outputs": [],
      "stateMutability": "nonpayable",
      "type": "function"
    },
    {
      "inputs": [
        {
          "internalType": "bytes32",
          "name": "hname",
          "type": "bytes32"
        }
      ],
      "name": "onListenRemoved",
      "outputs": [],
      "stateMutability": "nonpayable",
      "type": "function"
    },
    {
      "inputs": [
        {
          "internalType": "address",
          "name": "oldInstance",
          "type": "address"
        },
        {
          "internalType": "address",
          "name": "_manager",
          "type": "address"
        }
      ],
      "name": "onUpdate",
      "outputs": [],
      "stateMutability": "nonpayable",
      "type": "function"
    },
    {
      "inputs": [],
      "name": "getDragonCardRarities",
      "outputs": [
        {
          "internalType": "uint256[]",
          "name": "",
          "type": "uint256[]"
        }
      ],
      "stateMutability": "view",
      "type": "function",
      "constant": true
    },
    {
      "inputs": [],
      "name": "getDragonCardTypes",
      "outputs": [
        {
          "internalType": "uint256[]",
          "name": "",
          "type": "uint256[]"
        }
      ],
      "stateMutability": "view",
      "type": "function",
      "constant": true
    },
    {
      "inputs": [
        {
          "internalType": "uint8",
          "name": "index",
          "type": "uint8"
        },
        {
          "internalType": "uint256",
          "name": "position",
          "type": "uint256"
        }
      ],
      "name": "setRarityDistrib",
      "outputs": [],
      "stateMutability": "nonpayable",
      "type": "function"
    },
    {
      "inputs": [
        {
          "internalType": "uint256",
          "name": "size",
          "type": "uint256"
        }
      ],
      "name": "setRarityPopulationSize",
      "outputs": [],
      "stateMutability": "nonpayable",
      "type": "function"
    }
  ],
  "bytecode": "0x60c0604052600c60808190526b29ba30ba39a234b9ba3934b160a11b60a09081526200002f9160049190620003e0565b506040518060400160405280600c81526020016b29ba30ba39a234b9ba3934b160a11b815250604051602001620000679190620004c3565b604051602081830303815290604052805190602001206005553480156200008d57600080fd5b50620000993362000252565b620000a6600033620002a2565b60408051600480825260a08201909252906020820160808036833750508151620000d89260069250602001906200046f565b5060016006600081548110620000f257620000f262000501565b90600052602060002001819055506003600660018154811062000119576200011962000501565b90600052602060002001819055506006806002815481106200013f576200013f62000501565b90600052602060002001819055506014600660038154811062000166576200016662000501565b6000918252602090912001556102e260075560408051600480825260a082019092529081602001602082028036833750508151620001ac9260089250602001906200046f565b5060016008600081548110620001c657620001c662000501565b906000526020600020018190555060016008600181548110620001ed57620001ed62000501565b90600052602060002001819055506001600860028154811062000214576200021462000501565b9060005260206000200181905550600160086003815481106200023b576200023b62000501565b600091825260209091200155600560095562000554565b600080546001600160a01b038381166001600160a01b0319831681178455604051919092169283917f8be0079c531659141344cd1fd0a4f28419497f9722a3daafe3b4186f6b6457e09190a35050565b620002b98282620002e560201b62000c911760201c565b6000828152600260209081526040909120620002e091839062000cfc6200036e821b17901c565b505050565b60008281526001602090815260408083206001600160a01b038516845290915290205460ff166200036a5760008281526001602081815260408084206001600160a01b0386168086529252808420805460ff19169093179092559051339285917f2f8788117e7eff1d82e926ec794901d17c78024a50270940304540a733656f0d9190a45b5050565b600062000385836001600160a01b0384166200038e565b90505b92915050565b6000818152600183016020526040812054620003d75750815460018181018455600084815260208082209093018490558454848252828601909352604090209190915562000388565b50600062000388565b828054620003ee9062000517565b90600052602060002090601f0160209004810192826200041257600085556200045d565b82601f106200042d57805160ff19168380011785556200045d565b828001600101855582156200045d579182015b828111156200045d57825182559160200191906001019062000440565b506200046b929150620004ac565b5090565b8280548282559060005260206000209081019282156200045d57916020028201828111156200045d57825182559160200191906001019062000440565b5b808211156200046b5760008155600101620004ad565b6000825160005b81811015620004e65760208186018101518583015201620004ca565b81811115620004f6576000828501525b509190910192915050565b634e487b7160e01b600052603260045260246000fd5b600181811c908216806200052c57607f821691505b602082108114156200054e57634e487b7160e01b600052602260045260246000fd5b50919050565b611b0a80620005646000396000f3fe608060405234801561001057600080fd5b50600436106102055760003560e01c806375692a451161011a578063a9e790c8116100ad578063d547741f1161007c578063d547741f14610434578063d710216e14610447578063d947969214610450578063ec87621c14610458578063f2fde38b1461046d57600080fd5b8063a9e790c8146103f5578063c69c9579146103fd578063ca15c87314610410578063d4697a471461042357600080fd5b806391d14854116100e957806391d14854146103be57806397dfd7e8146103d15780639f1349ed146103e4578063a217fddf146103ed57600080fd5b806375692a45146103745780638840891e146103875780638da5cb5b1461039a5780639010d07c146103ab57600080fd5b80632f2ff15d1161019d5780635d1ca6311161016c5780635d1ca6311461032b5780635df112911461033357806362660f3b146103465780636b2bf27f14610359578063715018a61461036c57600080fd5b80632f2ff15d146102d157806336568abe146102e45780633ad32d16146102f7578063481c6a751461030057600080fd5b806317d7de7c116101d957806317d7de7c1461027b5780631a6f04f314610290578063221cf8f814610298578063248a9ca3146102ad57600080fd5b806238857b1461020a57806301ffc9a7146102305780630447a2cd1461025357806316f28d2414610268575b600080fd5b61021d610218366004611593565b610480565b6040519081526020015b60405180910390f35b61024361023e3660046115ac565b6104a1565b6040519015158152602001610227565b6102666102613660046115f2565b6104cc565b005b610266610276366004611625565b505050565b610283610808565b604051610227919061169a565b61026661089a565b6102a06108a4565b60405161022791906116cd565b61021d6102bb366004611593565b6000908152600160208190526040909120015490565b6102666102df366004611711565b6108fb565b6102666102f2366004611711565b610922565b61021d60055481565b600354610313906001600160a01b031681565b6040516001600160a01b039091168152602001610227565b60055461021d565b610266610341366004611734565b6109a5565b61026661035436600461174f565b6109ae565b610266610367366004611734565b6109ff565b610266610a08565b610266610382366004611593565b610a3c565b610266610395366004611734565b610a6b565b6000546001600160a01b0316610313565b6103136103b9366004611781565b610a74565b6102436103cc366004611711565b610a93565b61021d6103df366004611593565b610abe565b61021d60075481565b61021d600081565b6102a0610ace565b61026661040b366004611734565b610b24565b61021d61041e366004611593565b610b2d565b610266610431366004611593565b50565b610266610442366004611711565b610b44565b61021d60095481565b610283610b6b565b61021d600080516020611ab583398151915281565b61026661047b366004611734565b610bf9565b6006818154811061049057600080fd5b600091825260209091200154905081565b60006001600160e01b0319821663ee7ed59960e01b14806104c657506104c682610d11565b92915050565b6104d68282610d36565b6000826001600160a01b031663a9e790c86040518163ffffffff1660e01b815260040160006040518083038186803b15801561051157600080fd5b505afa158015610525573d6000803e3d6000fd5b505050506040513d6000823e601f3d908101601f1916820160405261054d91908101906117b9565b9050805167ffffffffffffffff811115610569576105696117a3565b604051908082528060200260200182016040528015610592578160200160208202803683370190505b5080516105a791600691602090910190611533565b5060005b81518160ff1610156105ef576105dd81838360ff16815181106105d0576105d0611877565b60200260200101516109ae565b806105e7816118a3565b9150506105ab565b50610664836001600160a01b0316639f1349ed6040518163ffffffff1660e01b815260040160206040518083038186803b15801561062c57600080fd5b505afa158015610640573d6000803e3d6000fd5b505050506040513d601f19601f8201168201806040525081019061038291906118c3565b6000836001600160a01b031663221cf8f86040518163ffffffff1660e01b815260040160006040518083038186803b15801561069f57600080fd5b505afa1580156106b3573d6000803e3d6000fd5b505050506040513d6000823e601f3d908101601f191682016040526106db91908101906117b9565b9050805167ffffffffffffffff8111156106f7576106f76117a3565b604051908082528060200260200182016040528015610720578160200160208202803683370190505b50805161073591600891602090910190611533565b5060005b815181101561078d5781818151811061075457610754611877565b60200260200101516008828154811061076f5761076f611877565b60009182526020909120015580610785816118dc565b915050610739565b50836001600160a01b0316639f1349ed6040518163ffffffff1660e01b815260040160206040518083038186803b1580156107c757600080fd5b505afa1580156107db573d6000803e3d6000fd5b505050506040513d601f19601f820116820180604052508101906107ff91906118c3565b60095550505050565b606060048054610817906118f7565b80601f0160208091040260200160405190810160405280929190818152602001828054610843906118f7565b80156108905780601f1061086557610100808354040283529160200191610890565b820191906000526020600020905b81548152906001019060200180831161087357829003601f168201915b5050505050905090565b6108a2610dc9565b565b6060600880548060200260200160405190810160405280929190818152602001828054801561089057602002820191906000526020600020905b8154815260200190600101908083116108de575050505050905090565b600082815260016020819052604090912001546109188133610e38565b6102768383610e9c565b6001600160a01b03811633146109975760405162461bcd60e51b815260206004820152602f60248201527f416363657373436f6e74726f6c3a2063616e206f6e6c792072656e6f756e636560448201526e103937b632b9903337b91039b2b63360891b60648201526084015b60405180910390fd5b6109a18282610ebe565b5050565b61043181610ee0565b6000546001600160a01b031633146109d85760405162461bcd60e51b815260040161098e90611932565b8060068360ff16815481106109ef576109ef611877565b6000918252602090912001555050565b61043181610f9f565b6000546001600160a01b03163314610a325760405162461bcd60e51b815260040161098e90611932565b6108a26000611015565b6000546001600160a01b03163314610a665760405162461bcd60e51b815260040161098e90611932565b600755565b61043181611065565b6000828152600260205260408120610a8c90836110e7565b9392505050565b60009182526001602090815260408084206001600160a01b0393909316845291905290205460ff1690565b6008818154811061049057600080fd5b6060600680548060200260200160405190810160405280929190818152602001828054801561089057602002820191906000526020600020908154815260200190600101908083116108de575050505050905090565b610431816110f3565b60008181526002602052604081206104c690611170565b60008281526001602081905260409091200154610b618133610e38565b6102768383610ebe565b60048054610b78906118f7565b80601f0160208091040260200160405190810160405280929190818152602001828054610ba4906118f7565b8015610bf15780601f10610bc657610100808354040283529160200191610bf1565b820191906000526020600020905b815481529060010190602001808311610bd457829003601f168201915b505050505081565b6000546001600160a01b03163314610c235760405162461bcd60e51b815260040161098e90611932565b6001600160a01b038116610c885760405162461bcd60e51b815260206004820152602660248201527f4f776e61626c653a206e6577206f776e657220697320746865207a65726f206160448201526564647265737360d01b606482015260840161098e565b61043181611015565b610c9b8282610a93565b6109a15760008281526001602081815260408084206001600160a01b0386168086529252808420805460ff19169093179092559051339285917f2f8788117e7eff1d82e926ec794901d17c78024a50270940304540a733656f0d9190a45050565b6000610a8c836001600160a01b03841661117a565b60006001600160e01b03198216635a05180f60e01b14806104c657506104c6826111c9565b610d4e600080516020611ab583398151915233610a93565b610d6a5760405162461bcd60e51b815260040161098e90611967565b600380546001600160a01b0319166001600160a01b0383811691821790925560408051928516835260208301919091527ff6515f2a6d531f16723c1e578303b7d74152bf8c0fa3bee828700a3d4706da8d910160405180910390a15050565b610de1600080516020611ab583398151915233610a93565b610dfd5760405162461bcd60e51b815260040161098e90611967565b600380546001600160a01b03191690556040517f9a9a74cf290a994f69a718e8557deb1dd65135268f40e660cecddf675f5dd51490600090a1565b610e428282610a93565b6109a157610e5a816001600160a01b031660146111fe565b610e658360206111fe565b604051602001610e769291906119c4565b60408051601f198184030181529082905262461bcd60e51b825261098e9160040161169a565b610ea68282610c91565b60008281526002602052604090206102769082610cfc565b610ec8828261139a565b60008281526002602052604090206102769082611401565b610ef8600080516020611ab583398151915233610a93565b610f145760405162461bcd60e51b815260040161098e90611967565b600380546001600160a01b0319166001600160a01b038316179055610f47600080516020611ab5833981519152826108fb565b610f5f600080516020611ab583398151915233610b44565b6040516001600160a01b03821681527f8eb47098f9568be754f51d21a870c8091ee0242cf97418db00927326d0e6ffcf906020015b60405180910390a150565b610fb7600080516020611ab583398151915233610a93565b610fd35760405162461bcd60e51b815260040161098e90611967565b610fdc81610bf9565b6040516001600160a01b03821681527ff2addf7f813887cf0fdd82b58fcc379ab2301e95c90b41a8cf2e5401914689c990602001610f94565b600080546001600160a01b038381166001600160a01b0319831681178455604051919092169283917f8be0079c531659141344cd1fd0a4f28419497f9722a3daafe3b4186f6b6457e09190a35050565b61107d600080516020611ab583398151915233610a93565b6110995760405162461bcd60e51b815260040161098e90611967565b600380546001600160a01b0319166001600160a01b0383169081179091556040519081527f89c66952b48f3e96bf1d8ba1b63189520fd988a6979b8b740bd5c5d8dc53e20590602001610f94565b6000610a8c8383611416565b61110b600080516020611ab583398151915233610a93565b6111275760405162461bcd60e51b815260040161098e90611967565b600380546001600160a01b03191690556040516001600160a01b03821681527f85a56ff958486f55dd742819603a46ba6233d3b24e6715f9cd5fd2ef6425d68090602001610f94565b60006104c6825490565b60008181526001830160205260408120546111c1575081546001818101845560008481526020808220909301849055845484825282860190935260409020919091556104c6565b5060006104c6565b60006001600160e01b03198216637965db0b60e01b14806104c657506301ffc9a760e01b6001600160e01b03198316146104c6565b6060600061120d836002611a39565b611218906002611a58565b67ffffffffffffffff811115611230576112306117a3565b6040519080825280601f01601f19166020018201604052801561125a576020820181803683370190505b509050600360fc1b8160008151811061127557611275611877565b60200101906001600160f81b031916908160001a905350600f60fb1b816001815181106112a4576112a4611877565b60200101906001600160f81b031916908160001a90535060006112c8846002611a39565b6112d3906001611a58565b90505b600181111561134b576f181899199a1a9b1b9c1cb0b131b232b360811b85600f166010811061130757611307611877565b1a60f81b82828151811061131d5761131d611877565b60200101906001600160f81b031916908160001a90535060049490941c9361134481611a70565b90506112d6565b508315610a8c5760405162461bcd60e51b815260206004820181905260248201527f537472696e67733a20686578206c656e67746820696e73756666696369656e74604482015260640161098e565b6113a48282610a93565b156109a15760008281526001602090815260408083206001600160a01b0385168085529252808320805460ff1916905551339285917ff6391f5c32d9c69d2a47ea670b442974b53935d1edc7fd64eb21e047a839171b9190a45050565b6000610a8c836001600160a01b038416611440565b600082600001828154811061142d5761142d611877565b9060005260206000200154905092915050565b60008181526001830160205260408120548015611529576000611464600183611a87565b855490915060009061147890600190611a87565b90508181146114dd57600086600001828154811061149857611498611877565b90600052602060002001549050808760000184815481106114bb576114bb611877565b6000918252602080832090910192909255918252600188019052604090208390555b85548690806114ee576114ee611a9e565b6001900381819060005260206000200160009055905585600101600086815260200190815260200160002060009055600193505050506104c6565b60009150506104c6565b82805482825590600052602060002090810192821561156e579160200282015b8281111561156e578251825591602001919060010190611553565b5061157a92915061157e565b5090565b5b8082111561157a576000815560010161157f565b6000602082840312156115a557600080fd5b5035919050565b6000602082840312156115be57600080fd5b81356001600160e01b031981168114610a8c57600080fd5b80356001600160a01b03811681146115ed57600080fd5b919050565b6000806040838503121561160557600080fd5b61160e836115d6565b915061161c602084016115d6565b90509250929050565b60008060006060848603121561163a57600080fd5b8335925061164a602085016115d6565b91506040840135801515811461165f57600080fd5b809150509250925092565b60005b8381101561168557818101518382015260200161166d565b83811115611694576000848401525b50505050565b60208152600082518060208401526116b981604085016020870161166a565b601f01601f19169190910160400192915050565b6020808252825182820181905260009190848201906040850190845b81811015611705578351835292840192918401916001016116e9565b50909695505050505050565b6000806040838503121561172457600080fd5b8235915061161c602084016115d6565b60006020828403121561174657600080fd5b610a8c826115d6565b6000806040838503121561176257600080fd5b823560ff8116811461177357600080fd5b946020939093013593505050565b6000806040838503121561179457600080fd5b50508035926020909101359150565b634e487b7160e01b600052604160045260246000fd5b600060208083850312156117cc57600080fd5b825167ffffffffffffffff808211156117e457600080fd5b818501915085601f8301126117f857600080fd5b81518181111561180a5761180a6117a3565b8060051b604051601f19603f8301168101818110858211171561182f5761182f6117a3565b60405291825284820192508381018501918883111561184d57600080fd5b938501935b8285101561186b57845184529385019392850192611852565b98975050505050505050565b634e487b7160e01b600052603260045260246000fd5b634e487b7160e01b600052601160045260246000fd5b600060ff821660ff8114156118ba576118ba61188d565b60010192915050565b6000602082840312156118d557600080fd5b5051919050565b60006000198214156118f0576118f061188d565b5060010190565b600181811c9082168061190b57607f821691505b6020821081141561192c57634e487b7160e01b600052602260045260246000fd5b50919050565b6020808252818101527f4f776e61626c653a2063616c6c6572206973206e6f7420746865206f776e6572604082015260600190565b6020808252603b908201527f43726f7373436f6e74726163744d616e4c697374656e65723a2074686520636160408201527f6c6c6572206d7573742068617665204d414e414745525f524f4c450000000000606082015260800190565b7f416363657373436f6e74726f6c3a206163636f756e74200000000000000000008152600083516119fc81601785016020880161166a565b7001034b99036b4b9b9b4b733903937b6329607d1b6017918401918201528351611a2d81602884016020880161166a565b01602801949350505050565b6000816000190483118215151615611a5357611a5361188d565b500290565b60008219821115611a6b57611a6b61188d565b500190565b600081611a7f57611a7f61188d565b506000190190565b600082821015611a9957611a9961188d565b500390565b634e487b7160e01b600052603160045260246000fdfe241ecf16d79d0f8dbfb92cbc07fe17840425976cf0667f022fe9877caa831b08a2646970667358221220dc9d632cdd659895f800f7114191637c6b13670c2678288c7e0c5d5acabe31bb64736f6c63430008090033",
  "immutableReferences": {},
  "source": "// SPDX-License-Identifier: MIT\npragma solidity ^0.8.0;\n\nimport \"@openzeppelin/contracts/access/Ownable.sol\";\nimport \"./CrossContractManListener.sol\";\nimport {Util} from \"./Util.sol\";\n\ncontract StatsDistrib is CrossContractManListener {\n    string  public contract_name = Util.STATS_DISTRIB_CONTRACT_NAME;\n    bytes32 public contract_id = Util.STATS_DISTRIB_CONTRACT_ID;\n\n    uint256[] public dragonCardRarity;\n    uint256   public dragonCardRarityPopulationSize;\n    uint256[] public dragonCardType;\n    uint256   public dragonCardTypePopulationSize;\n\n    constructor() {\n\tdragonCardRarity = new uint256[](4);\n\tdragonCardRarity[0] = 1;\n\tdragonCardRarity[1] = 3;\n\tdragonCardRarity[2] = 6;\n\tdragonCardRarity[3] = 20;\n\tdragonCardRarityPopulationSize = 738;\n\n\tdragonCardType = new uint256[](4);\n\tdragonCardType[0] = 1;\n\tdragonCardType[1] = 1;\n\tdragonCardType[2] = 1;\n\tdragonCardType[3] = 1;\n\tdragonCardTypePopulationSize = 5;\n    }\n\n    function getName() view external returns(string memory) {\n\treturn contract_name;\n    }\n\n    function getId() view external returns(bytes32) {\n\treturn contract_id;\n    }\n\n    function onListenAdded(bytes32 hname, address contractInstance, bool isNew) external {}\n\n    function onListenRemoved(bytes32 hname) external {}\n\n    function onUpdate(address oldInstance, address _manager) external override {\n\tsuper._onUpdate(oldInstance, _manager);\n\tuint256[] memory _dragonCardRarity = StatsDistrib(oldInstance).getDragonCardRarities();\n\tdragonCardRarity = new uint256[](_dragonCardRarity.length);\n\tfor(uint8 i=0;i<_dragonCardRarity.length;i++)\n\t    setRarityDistrib(i,_dragonCardRarity[i]);\n\tsetRarityPopulationSize(StatsDistrib(oldInstance).dragonCardRarityPopulationSize());\n\tuint256[] memory _dragonCardType = StatsDistrib(oldInstance).getDragonCardTypes();\n\tdragonCardType = new uint256[](_dragonCardType.length);\n\tfor(uint i=0;i<_dragonCardType.length;i++)\n\t    dragonCardType[i] = _dragonCardType[i];\n\tdragonCardTypePopulationSize = StatsDistrib(oldInstance).dragonCardRarityPopulationSize();\n    }\n\n    function getDragonCardRarities() public view returns (uint256[] memory){\n\treturn dragonCardRarity;\n    }\n\n    function getDragonCardTypes() public view returns (uint256[] memory){\n\treturn dragonCardType;\n    }\n\n    function setRarityDistrib(uint8 index, uint256 position) public onlyOwner {\n\tdragonCardRarity[index] = position;\n    }\n\n    function setRarityPopulationSize(uint256 size) public onlyOwner {\n\tdragonCardRarityPopulationSize = size;\n    }\n}\n",
  "sourcePath": "/home/vrogojin/Projects/FireZard/nft/contracts/StatsDistrib.sol",
  "compiler": {
    "name": "solc",
    "version": "0.8.9+commit.e5eed63a.Emscripten.clang"
  },
  "schemaVersion": "3.4.3",
  "updatedAt": "2022-02-10T15:14:28.586Z",
  "networkType": "ethereum",
  "devdoc": {
    "kind": "dev",
    "methods": {
      "getRoleAdmin(bytes32)": {
        "details": "Returns the admin role that controls `role`. See {grantRole} and {revokeRole}. To change a role's admin, use {_setRoleAdmin}."
      },
      "getRoleMember(bytes32,uint256)": {
        "details": "Returns one of the accounts that have `role`. `index` must be a value between 0 and {getRoleMemberCount}, non-inclusive. Role bearers are not sorted in any particular way, and their ordering may change at any point. WARNING: When using {getRoleMember} and {getRoleMemberCount}, make sure you perform all queries on the same block. See the following https://forum.openzeppelin.com/t/iterating-over-elements-on-enumerableset-in-openzeppelin-contracts/2296[forum post] for more information."
      },
      "getRoleMemberCount(bytes32)": {
        "details": "Returns the number of accounts that have `role`. Can be used together with {getRoleMember} to enumerate all bearers of a role."
      },
      "grantRole(bytes32,address)": {
        "details": "Grants `role` to `account`. If `account` had not been already granted `role`, emits a {RoleGranted} event. Requirements: - the caller must have ``role``'s admin role."
      },
      "hasRole(bytes32,address)": {
        "details": "Returns `true` if `account` has been granted `role`."
      },
      "owner()": {
        "details": "Returns the address of the current owner."
      },
      "renounceOwnership()": {
        "details": "Leaves the contract without owner. It will not be possible to call `onlyOwner` functions anymore. Can only be called by the current owner. NOTE: Renouncing ownership will leave the contract without an owner, thereby removing any functionality that is only available to the owner."
      },
      "renounceRole(bytes32,address)": {
        "details": "Revokes `role` from the calling account. Roles are often managed via {grantRole} and {revokeRole}: this function's purpose is to provide a mechanism for accounts to lose their privileges if they are compromised (such as when a trusted device is misplaced). If the calling account had been revoked `role`, emits a {RoleRevoked} event. Requirements: - the caller must be `account`."
      },
      "revokeRole(bytes32,address)": {
        "details": "Revokes `role` from `account`. If `account` had been granted `role`, emits a {RoleRevoked} event. Requirements: - the caller must have ``role``'s admin role."
      },
      "supportsInterface(bytes4)": {
        "details": "See {IERC165-supportsInterface}."
      },
      "transferOwnership(address)": {
        "details": "Transfers ownership of the contract to a new account (`newOwner`). Can only be called by the current owner."
      }
    },
    "version": 1
  },
  "userdoc": {
    "kind": "user",
    "methods": {},
    "version": 1
  }
}