{
  "contractName": "TestRNG",
  "abi": [
    {
      "inputs": [],
      "stateMutability": "nonpayable",
      "type": "constructor"
    },
    {
      "inputs": [],
      "name": "data",
      "outputs": [
        {
          "internalType": "uint256",
          "name": "",
          "type": "uint256"
        }
      ],
      "stateMutability": "view",
      "type": "function"
    },
    {
      "inputs": [
        {
          "internalType": "uint256",
          "name": "",
          "type": "uint256"
        }
      ],
      "name": "distrib512",
      "outputs": [
        {
          "internalType": "uint256",
          "name": "",
          "type": "uint256"
        }
      ],
      "stateMutability": "view",
      "type": "function"
    },
    {
      "inputs": [
        {
          "internalType": "uint256",
          "name": "_data",
          "type": "uint256"
        }
      ],
      "name": "writeSomeData",
      "outputs": [],
      "stateMutability": "nonpayable",
      "type": "function"
    },
    {
      "inputs": [
        {
          "internalType": "uint256",
          "name": "rvalue",
          "type": "uint256"
        }
      ],
      "name": "tossCoin",
      "outputs": [
        {
          "internalType": "uint256",
          "name": "",
          "type": "uint256"
        }
      ],
      "stateMutability": "pure",
      "type": "function"
    },
    {
      "inputs": [
        {
          "internalType": "uint256",
          "name": "rvalue",
          "type": "uint256"
        }
      ],
      "name": "tossCoin1",
      "outputs": [
        {
          "internalType": "uint256",
          "name": "",
          "type": "uint256"
        }
      ],
      "stateMutability": "pure",
      "type": "function"
    },
    {
      "inputs": [
        {
          "internalType": "uint256",
          "name": "rvalue",
          "type": "uint256"
        }
      ],
      "name": "tossCoin2",
      "outputs": [
        {
          "internalType": "uint256",
          "name": "",
          "type": "uint256"
        }
      ],
      "stateMutability": "pure",
      "type": "function"
    },
    {
      "inputs": [
        {
          "internalType": "uint256",
          "name": "rvalue",
          "type": "uint256"
        }
      ],
      "name": "throwDice",
      "outputs": [
        {
          "internalType": "uint256",
          "name": "",
          "type": "uint256"
        }
      ],
      "stateMutability": "pure",
      "type": "function"
    },
    {
      "inputs": [
        {
          "internalType": "uint256",
          "name": "rvalue",
          "type": "uint256"
        }
      ],
      "name": "getSample512",
      "outputs": [
        {
          "internalType": "uint256",
          "name": "",
          "type": "uint256"
        }
      ],
      "stateMutability": "view",
      "type": "function"
    },
    {
      "inputs": [
        {
          "internalType": "uint256",
          "name": "p",
          "type": "uint256"
        }
      ],
      "name": "fillDistrib512",
      "outputs": [],
      "stateMutability": "nonpayable",
      "type": "function"
    }
  ],
  "bytecode": "0x608060405234801561001057600080fd5b50604080516101ff80825261400082019092529060208201613fe0803683375050815161004492600192506020019061004a565b506100aa565b828054828255906000526020600020908101928215610085579160200282015b8281111561008557825182559160200191906001019061006a565b50610091929150610095565b5090565b5b808211156100915760008155600101610096565b61067a806100b96000396000f3fe608060405234801561001057600080fd5b50600436106100925760003560e01c80635efaf4d8116100665780635efaf4d8146100f757806373d4a13a1461010a578063ad71422114610113578063d4d7699e14610126578063fd8f9ade1461013957600080fd5b80624b85a51461009757806317ec0c42146100ac578063295d1066146100d1578063326d10dd146100e4575b600080fd5b6100aa6100a53660046104f3565b600055565b005b6100bf6100ba3660046104f3565b61014c565b60405190815260200160405180910390f35b6100bf6100df3660046104f3565b610223565b6100bf6100f23660046104f3565b6102ba565b6100aa6101053660046104f3565b61033b565b6100bf60005481565b6100bf6101213660046104f3565b610392565b6100bf6101343660046104f3565b6103cc565b6100bf6101473660046104f3565b6103ed565b604080516001808252818301909252600091829190602080830190803683370190505090506001816000815181106101865761018661050c565b60209081029190910101526040516375233c2760e01b815273__Util__________________________________906375233c27906101cc9086908590600490810161055d565b60206040518083038186803b1580156101e457600080fd5b505af41580156101f8573d6000803e3d6000fd5b505050506040513d601f19601f8201168201806040525081019061021c9190610586565b9392505050565b6040516375233c2760e01b815260009073__Util__________________________________906375233c27906102649085906001906102009060040161059f565b60206040518083038186803b15801561027c57600080fd5b505af4158015610290573d6000803e3d6000fd5b505050506040513d601f19601f820116820180604052508101906102b49190610586565b92915050565b604080516001808252818301909252600091829190602080830190803683370190505090506001816000815181106102f4576102f461050c565b60209081029190910101526040516375233c2760e01b815273__Util__________________________________906375233c27906101cc908690859060029060040161055d565b805b610348826040610611565b8110801561035757506101ff81105b1561038e5760018082815481106103705761037061050c565b6000918252602090912001558061038681610629565b91505061033d565b5050565b604080516001808252818301909252600091829190602080830190803683370190505090506003816000815181106101865761018661050c565b600181815481106103dc57600080fd5b600091825260209091200154905081565b60408051600580825260c082019092526000918291906020820160a0803683370190505090506001816000815181106104285761042861050c565b6020026020010181815250506001816001815181106104495761044961050c565b60200260200101818152505060018160028151811061046a5761046a61050c565b60200260200101818152505060018160038151811061048b5761048b61050c565b6020026020010181815250506001816004815181106104ac576104ac61050c565b60209081029190910101526040516375233c2760e01b815273__Util__________________________________906375233c27906101cc908690859060069060040161055d565b60006020828403121561050557600080fd5b5035919050565b634e487b7160e01b600052603260045260246000fd5b600081518084526020808501945080840160005b8381101561055257815187529582019590820190600101610536565b509495945050505050565b8381526060602082015260006105766060830185610522565b9050826040830152949350505050565b60006020828403121561059857600080fd5b5051919050565b60006060820185835260206060818501528186548084526080860191508760005282600020935060005b818110156105e5578454835260019485019492840192016105c9565b5050809350505050826040830152949350505050565b634e487b7160e01b600052601160045260246000fd5b60008219821115610624576106246105fb565b500190565b600060001982141561063d5761063d6105fb565b506001019056fea2646970667358221220a6131f1b410bba7d1a8393287ac92e2a1b16c4995df2dfacbbbf0b2208d321a564736f6c63430008090033",
  "immutableReferences": {},
  "source": "// SPDX-License-Identifier: MIT\npragma solidity ^0.8.0;\n\nimport \"./Util.sol\";\n\ncontract TestRNG {\n\n    uint256 public data;\n    uint256[] public distrib512;\n\n    constructor() {\n\tdistrib512 = new uint256[](511);\n//\tfor(uint i=0;i<511;i++)\n//\t    distrib512[i] = 1;\n    }\n\n    function writeSomeData(uint256 _data) public virtual {\n\tdata = _data;\n    }\n\n    function tossCoin(uint256 rvalue) public pure returns(uint256){\n\tuint256[] memory distrib = new uint256[](1);\n\tdistrib[0] = 1;\n\t\n\treturn Util.getRandomItem(rvalue, distrib, 2);\n    }\n\n    function tossCoin1(uint256 rvalue) public pure returns(uint256){\n\tuint256[] memory distrib = new uint256[](1);\n\tdistrib[0] = 1;\n\t\n\treturn Util.getRandomItem(rvalue, distrib, 4);\n    }\n\n    function tossCoin2(uint256 rvalue) public pure returns(uint256){\n\tuint256[] memory distrib = new uint256[](1);\n\tdistrib[0] = 3;\n\t\n\treturn Util.getRandomItem(rvalue, distrib, 4);\n    }\n\n    function throwDice(uint256 rvalue) public pure returns(uint256){\n\tuint256[] memory distrib = new uint256[](5);\n\tdistrib[0] = 1;\n\tdistrib[1] = 1;\n\tdistrib[2] = 1;\n\tdistrib[3] = 1;\n\tdistrib[4] = 1;\n\treturn Util.getRandomItem(rvalue, distrib, 6);\n    }\n\n    function getSample512(uint256 rvalue) public view returns(uint256) {\n\treturn Util.getRandomItem(rvalue, distrib512, 512);\n    }\n\n    function fillDistrib512(uint256 p) external {\n\tfor(uint i=p;(i<p+64)&&(i<511);i++)\n\t    distrib512[i] = 1;\n    }\n\n}",
  "sourcePath": "/home/vrogojin/Projects/FireZard/nft/contracts/TestRNG.sol",
  "compiler": {
    "name": "solc",
    "version": "0.8.9+commit.e5eed63a.Emscripten.clang"
  },
  "schemaVersion": "3.4.3",
  "updatedAt": "2022-02-10T13:47:31.380Z",
  "devdoc": {
    "kind": "dev",
    "methods": {},
    "version": 1
  },
  "userdoc": {
    "kind": "user",
    "methods": {},
    "version": 1
  }
}